{
	"contracts/borrow.sol": {
		"Borrow": {
			"abi": [
				{
					"inputs": [
						{
							"internalType": "uint256",
							"name": "collateralOver",
							"type": "uint256"
						}
					],
					"name": "borrow",
					"outputs": [],
					"stateMutability": "payable",
					"type": "function"
				},
				{
					"inputs": [],
					"name": "closePosition",
					"outputs": [],
					"stateMutability": "payable",
					"type": "function"
				}
			],
			"devdoc": {
				"kind": "dev",
				"methods": {},
				"version": 1
			},
			"evm": {
				"assembly": "    /* \"contracts/borrow.sol\":67:1388  contract Borrow {... */\n  mstore(0x40, 0x80)\n  callvalue\n  dup1\n  iszero\n  tag_1\n  jumpi\n  0x00\n  dup1\n  revert\ntag_1:\n  pop\n  dataSize(sub_0)\n  dup1\n  dataOffset(sub_0)\n  0x00\n  codecopy\n  0x00\n  return\nstop\n\nsub_0: assembly {\n        /* \"contracts/borrow.sol\":67:1388  contract Borrow {... */\n      mstore(0x40, 0x80)\n      jumpi(tag_1, lt(calldatasize, 0x04))\n      shr(0xe0, calldataload(0x00))\n      dup1\n      0xc393d0e3\n      eq\n      tag_2\n      jumpi\n      dup1\n      0xc5ebeaec\n      eq\n      tag_3\n      jumpi\n    tag_1:\n      0x00\n      dup1\n      revert\n        /* \"contracts/borrow.sol\":994:1385  function closePosition() external payable{... */\n    tag_2:\n      tag_4\n      tag_5\n      jump\t// in\n    tag_4:\n      stop\n        /* \"contracts/borrow.sol\":294:986  function borrow(uint collateralOver) public payable{... */\n    tag_3:\n      tag_6\n      0x04\n      dup1\n      calldatasize\n      sub\n      dup2\n      add\n      swap1\n      tag_7\n      swap2\n      swap1\n      tag_8\n      jump\t// in\n    tag_7:\n      tag_9\n      jump\t// in\n    tag_6:\n      stop\n        /* \"contracts/borrow.sol\":994:1385  function closePosition() external payable{... */\n    tag_5:\n        /* \"contracts/borrow.sol\":1077:1086  msg.value */\n      callvalue\n        /* \"contracts/borrow.sol\":1054:1061  _borrow */\n      0x01\n        /* \"contracts/borrow.sol\":1054:1073  _borrow[msg.sender] */\n      0x00\n        /* \"contracts/borrow.sol\":1062:1072  msg.sender */\n      caller\n        /* \"contracts/borrow.sol\":1054:1073  _borrow[msg.sender] */\n      0xffffffffffffffffffffffffffffffffffffffff\n      and\n      0xffffffffffffffffffffffffffffffffffffffff\n      and\n      dup2\n      mstore\n      0x20\n      add\n      swap1\n      dup2\n      mstore\n      0x20\n      add\n      0x00\n      keccak256\n      sload\n        /* \"contracts/borrow.sol\":1054:1086  _borrow[msg.sender] == msg.value */\n      eq\n        /* \"contracts/borrow.sol\":1046:1131  require(_borrow[msg.sender] == msg.value, \"Repayment amount must be equal your loan\") */\n      tag_11\n      jumpi\n      mload(0x40)\n      0x08c379a000000000000000000000000000000000000000000000000000000000\n      dup2\n      mstore\n      0x04\n      add\n      tag_12\n      swap1\n      tag_13\n      jump\t// in\n    tag_12:\n      mload(0x40)\n      dup1\n      swap2\n      sub\n      swap1\n      revert\n    tag_11:\n        /* \"contracts/borrow.sol\":1152:1162  msg.sender */\n      caller\n        /* \"contracts/borrow.sol\":1144:1172  payable(msg.sender).transfer */\n      0xffffffffffffffffffffffffffffffffffffffff\n      and\n        /* \"contracts/borrow.sol\":1144:1209  payable(msg.sender).transfer(_collateralAsset[msg.sender].amount) */\n      0x08fc\n        /* \"contracts/borrow.sol\":1173:1189  _collateralAsset */\n      0x00\n        /* \"contracts/borrow.sol\":1173:1201  _collateralAsset[msg.sender] */\n      dup1\n        /* \"contracts/borrow.sol\":1190:1200  msg.sender */\n      caller\n        /* \"contracts/borrow.sol\":1173:1201  _collateralAsset[msg.sender] */\n      0xffffffffffffffffffffffffffffffffffffffff\n      and\n      0xffffffffffffffffffffffffffffffffffffffff\n      and\n      dup2\n      mstore\n      0x20\n      add\n      swap1\n      dup2\n      mstore\n      0x20\n      add\n      0x00\n      keccak256\n        /* \"contracts/borrow.sol\":1173:1208  _collateralAsset[msg.sender].amount */\n      0x00\n      add\n      sload\n        /* \"contracts/borrow.sol\":1144:1209  payable(msg.sender).transfer(_collateralAsset[msg.sender].amount) */\n      swap1\n      dup2\n      iszero\n      mul\n      swap1\n      mload(0x40)\n      0x00\n      mload(0x40)\n      dup1\n      dup4\n      sub\n      dup2\n      dup6\n      dup9\n      dup9\n      call\n      swap4\n      pop\n      pop\n      pop\n      pop\n      iszero\n      dup1\n      iszero\n      tag_15\n      jumpi\n      returndatasize\n      0x00\n      dup1\n      returndatacopy\n      revert(0x00, returndatasize)\n    tag_15:\n      pop\n        /* \"contracts/borrow.sol\":1258:1259  0 */\n      0x00\n        /* \"contracts/borrow.sol\":1220:1236  _collateralAsset */\n      dup1\n        /* \"contracts/borrow.sol\":1220:1248  _collateralAsset[msg.sender] */\n      0x00\n        /* \"contracts/borrow.sol\":1237:1247  msg.sender */\n      caller\n        /* \"contracts/borrow.sol\":1220:1248  _collateralAsset[msg.sender] */\n      0xffffffffffffffffffffffffffffffffffffffff\n      and\n      0xffffffffffffffffffffffffffffffffffffffff\n      and\n      dup2\n      mstore\n      0x20\n      add\n      swap1\n      dup2\n      mstore\n      0x20\n      add\n      0x00\n      keccak256\n        /* \"contracts/borrow.sol\":1220:1255  _collateralAsset[msg.sender].amount */\n      0x00\n      add\n        /* \"contracts/borrow.sol\":1220:1259  _collateralAsset[msg.sender].amount = 0 */\n      dup2\n      swap1\n      sstore\n      pop\n        /* \"contracts/borrow.sol\":1307:1308  0 */\n      0x00\n        /* \"contracts/borrow.sol\":1270:1286  _collateralAsset */\n      dup1\n        /* \"contracts/borrow.sol\":1270:1298  _collateralAsset[msg.sender] */\n      0x00\n        /* \"contracts/borrow.sol\":1287:1297  msg.sender */\n      caller\n        /* \"contracts/borrow.sol\":1270:1298  _collateralAsset[msg.sender] */\n      0xffffffffffffffffffffffffffffffffffffffff\n      and\n      0xffffffffffffffffffffffffffffffffffffffff\n      and\n      dup2\n      mstore\n      0x20\n      add\n      swap1\n      dup2\n      mstore\n      0x20\n      add\n      0x00\n      keccak256\n        /* \"contracts/borrow.sol\":1270:1304  _collateralAsset[msg.sender].ratio */\n      0x01\n      add\n        /* \"contracts/borrow.sol\":1270:1308  _collateralAsset[msg.sender].ratio = 0 */\n      dup2\n      swap1\n      sstore\n      pop\n        /* \"contracts/borrow.sol\":1363:1368  false */\n      0x00\n        /* \"contracts/borrow.sol\":1319:1335  _collateralAsset */\n      dup1\n        /* \"contracts/borrow.sol\":1319:1347  _collateralAsset[msg.sender] */\n      0x00\n        /* \"contracts/borrow.sol\":1336:1346  msg.sender */\n      caller\n        /* \"contracts/borrow.sol\":1319:1347  _collateralAsset[msg.sender] */\n      0xffffffffffffffffffffffffffffffffffffffff\n      and\n      0xffffffffffffffffffffffffffffffffffffffff\n      and\n      dup2\n      mstore\n      0x20\n      add\n      swap1\n      dup2\n      mstore\n      0x20\n      add\n      0x00\n      keccak256\n        /* \"contracts/borrow.sol\":1319:1360  _collateralAsset[msg.sender].cannotborrow */\n      0x02\n      add\n      0x00\n        /* \"contracts/borrow.sol\":1319:1368  _collateralAsset[msg.sender].cannotborrow = false */\n      0x0100\n      exp\n      dup2\n      sload\n      dup2\n      0xff\n      mul\n      not\n      and\n      swap1\n      dup4\n      iszero\n      iszero\n      mul\n      or\n      swap1\n      sstore\n      pop\n        /* \"contracts/borrow.sol\":994:1385  function closePosition() external payable{... */\n      jump\t// out\n        /* \"contracts/borrow.sol\":294:986  function borrow(uint collateralOver) public payable{... */\n    tag_9:\n        /* \"contracts/borrow.sol\":409:414  false */\n      0x00\n        /* \"contracts/borrow.sol\":364:414  _collateralAsset[msg.sender].cannotborrow == false */\n      iszero\n      iszero\n        /* \"contracts/borrow.sol\":364:380  _collateralAsset */\n      0x00\n        /* \"contracts/borrow.sol\":364:392  _collateralAsset[msg.sender] */\n      dup1\n        /* \"contracts/borrow.sol\":381:391  msg.sender */\n      caller\n        /* \"contracts/borrow.sol\":364:392  _collateralAsset[msg.sender] */\n      0xffffffffffffffffffffffffffffffffffffffff\n      and\n      0xffffffffffffffffffffffffffffffffffffffff\n      and\n      dup2\n      mstore\n      0x20\n      add\n      swap1\n      dup2\n      mstore\n      0x20\n      add\n      0x00\n      keccak256\n        /* \"contracts/borrow.sol\":364:405  _collateralAsset[msg.sender].cannotborrow */\n      0x02\n      add\n      0x00\n      swap1\n      sload\n      swap1\n      0x0100\n      exp\n      swap1\n      div\n      0xff\n      and\n        /* \"contracts/borrow.sol\":364:414  _collateralAsset[msg.sender].cannotborrow == false */\n      iszero\n      iszero\n      eq\n        /* \"contracts/borrow.sol\":356:461  require(_collateralAsset[msg.sender].cannotborrow == false, \"you must be return asset that borrow first\") */\n      tag_17\n      jumpi\n      mload(0x40)\n      0x08c379a000000000000000000000000000000000000000000000000000000000\n      dup2\n      mstore\n      0x04\n      add\n      tag_18\n      swap1\n      tag_19\n      jump\t// in\n    tag_18:\n      mload(0x40)\n      dup1\n      swap2\n      sub\n      swap1\n      revert\n    tag_17:\n        /* \"contracts/borrow.sol\":498:501  150 */\n      0x96\n        /* \"contracts/borrow.sol\":480:494  collateralOver */\n      dup2\n        /* \"contracts/borrow.sol\":480:501  collateralOver >= 150 */\n      lt\n      iszero\n        /* \"contracts/borrow.sol\":480:526  collateralOver >= 150 && collateralOver <= 300 */\n      dup1\n      iszero\n      tag_20\n      jumpi\n      pop\n        /* \"contracts/borrow.sol\":523:526  300 */\n      0x012c\n        /* \"contracts/borrow.sol\":505:519  collateralOver */\n      dup2\n        /* \"contracts/borrow.sol\":505:526  collateralOver <= 300 */\n      gt\n      iszero\n        /* \"contracts/borrow.sol\":480:526  collateralOver >= 150 && collateralOver <= 300 */\n    tag_20:\n        /* \"contracts/borrow.sol\":472:571  require(collateralOver >= 150 && collateralOver <= 300, \"require collateral between 150 and 300%.\") */\n      tag_21\n      jumpi\n      mload(0x40)\n      0x08c379a000000000000000000000000000000000000000000000000000000000\n      dup2\n      mstore\n      0x04\n      add\n      tag_22\n      swap1\n      tag_23\n      jump\t// in\n    tag_22:\n      mload(0x40)\n      dup1\n      swap2\n      sub\n      swap1\n      revert\n    tag_21:\n        /* \"contracts/borrow.sol\":603:621  100000000000000000 */\n      0x016345785d8a0000\n        /* \"contracts/borrow.sol\":590:599  msg.value */\n      callvalue\n        /* \"contracts/borrow.sol\":590:621  msg.value >= 100000000000000000 */\n      lt\n      iszero\n        /* \"contracts/borrow.sol\":582:659  require(msg.value >= 100000000000000000, \"Ether must greater than equal 0.1\") */\n      tag_24\n      jumpi\n      mload(0x40)\n      0x08c379a000000000000000000000000000000000000000000000000000000000\n      dup2\n      mstore\n      0x04\n      add\n      tag_25\n      swap1\n      tag_26\n      jump\t// in\n    tag_25:\n      mload(0x40)\n      dup1\n      swap2\n      sub\n      swap1\n      revert\n    tag_24:\n        /* \"contracts/borrow.sol\":703:758  collateral(msg.value, 100*(10**2)/collateralOver, true) */\n      mload(0x40)\n      dup1\n      0x60\n      add\n      0x40\n      mstore\n      dup1\n        /* \"contracts/borrow.sol\":714:723  msg.value */\n      callvalue\n        /* \"contracts/borrow.sol\":703:758  collateral(msg.value, 100*(10**2)/collateralOver, true) */\n      dup2\n      mstore\n      0x20\n      add\n        /* \"contracts/borrow.sol\":737:751  collateralOver */\n      dup3\n        /* \"contracts/borrow.sol\":725:736  100*(10**2) */\n      0x2710\n        /* \"contracts/borrow.sol\":725:751  100*(10**2)/collateralOver */\n      tag_27\n      swap2\n      swap1\n      tag_28\n      jump\t// in\n    tag_27:\n        /* \"contracts/borrow.sol\":703:758  collateral(msg.value, 100*(10**2)/collateralOver, true) */\n      dup2\n      mstore\n      0x20\n      add\n        /* \"contracts/borrow.sol\":753:757  true */\n      0x01\n        /* \"contracts/borrow.sol\":703:758  collateral(msg.value, 100*(10**2)/collateralOver, true) */\n      iszero\n      iszero\n      dup2\n      mstore\n      pop\n        /* \"contracts/borrow.sol\":672:688  _collateralAsset */\n      0x00\n        /* \"contracts/borrow.sol\":672:700  _collateralAsset[msg.sender] */\n      dup1\n        /* \"contracts/borrow.sol\":689:699  msg.sender */\n      caller\n        /* \"contracts/borrow.sol\":672:700  _collateralAsset[msg.sender] */\n      0xffffffffffffffffffffffffffffffffffffffff\n      and\n      0xffffffffffffffffffffffffffffffffffffffff\n      and\n      dup2\n      mstore\n      0x20\n      add\n      swap1\n      dup2\n      mstore\n      0x20\n      add\n      0x00\n      keccak256\n        /* \"contracts/borrow.sol\":672:758  _collateralAsset[msg.sender] = collateral(msg.value, 100*(10**2)/collateralOver, true) */\n      0x00\n      dup3\n      add\n      mload\n      dup2\n      0x00\n      add\n      sstore\n      0x20\n      dup3\n      add\n      mload\n      dup2\n      0x01\n      add\n      sstore\n      0x40\n      dup3\n      add\n      mload\n      dup2\n      0x02\n      add\n      exp(0x0100, 0x00)\n      dup2\n      sload\n      dup2\n      0xff\n      mul\n      not\n      and\n      swap1\n      dup4\n      iszero\n      iszero\n      mul\n      or\n      swap1\n      sstore\n      pop\n      swap1\n      pop\n      pop\n        /* \"contracts/borrow.sol\":769:786  uint borrowAmount */\n      0x00\n        /* \"contracts/borrow.sol\":867:872  10**2 */\n      0x64\n        /* \"contracts/borrow.sol\":828:844  _collateralAsset */\n      0x00\n        /* \"contracts/borrow.sol\":828:856  _collateralAsset[msg.sender] */\n      dup1\n        /* \"contracts/borrow.sol\":845:855  msg.sender */\n      caller\n        /* \"contracts/borrow.sol\":828:856  _collateralAsset[msg.sender] */\n      0xffffffffffffffffffffffffffffffffffffffff\n      and\n      0xffffffffffffffffffffffffffffffffffffffff\n      and\n      dup2\n      mstore\n      0x20\n      add\n      swap1\n      dup2\n      mstore\n      0x20\n      add\n      0x00\n      keccak256\n        /* \"contracts/borrow.sol\":828:862  _collateralAsset[msg.sender].ratio */\n      0x01\n      add\n      sload\n        /* \"contracts/borrow.sol\":790:806  _collateralAsset */\n      0x00\n        /* \"contracts/borrow.sol\":790:818  _collateralAsset[msg.sender] */\n      dup1\n        /* \"contracts/borrow.sol\":807:817  msg.sender */\n      caller\n        /* \"contracts/borrow.sol\":790:818  _collateralAsset[msg.sender] */\n      0xffffffffffffffffffffffffffffffffffffffff\n      and\n      0xffffffffffffffffffffffffffffffffffffffff\n      and\n      dup2\n      mstore\n      0x20\n      add\n      swap1\n      dup2\n      mstore\n      0x20\n      add\n      0x00\n      keccak256\n        /* \"contracts/borrow.sol\":790:825  _collateralAsset[msg.sender].amount */\n      0x00\n      add\n      sload\n        /* \"contracts/borrow.sol\":790:862  _collateralAsset[msg.sender].amount * _collateralAsset[msg.sender].ratio */\n      tag_29\n      swap2\n      swap1\n      tag_30\n      jump\t// in\n    tag_29:\n        /* \"contracts/borrow.sol\":789:873  (_collateralAsset[msg.sender].amount * _collateralAsset[msg.sender].ratio) / (10**2) */\n      tag_31\n      swap2\n      swap1\n      tag_28\n      jump\t// in\n    tag_31:\n        /* \"contracts/borrow.sol\":769:873  uint borrowAmount = (_collateralAsset[msg.sender].amount * _collateralAsset[msg.sender].ratio) / (10**2) */\n      swap1\n      pop\n        /* \"contracts/borrow.sol\":906:918  borrowAmount */\n      dup1\n        /* \"contracts/borrow.sol\":884:891  _borrow */\n      0x01\n        /* \"contracts/borrow.sol\":884:903  _borrow[msg.sender] */\n      0x00\n        /* \"contracts/borrow.sol\":892:902  msg.sender */\n      caller\n        /* \"contracts/borrow.sol\":884:903  _borrow[msg.sender] */\n      0xffffffffffffffffffffffffffffffffffffffff\n      and\n      0xffffffffffffffffffffffffffffffffffffffff\n      and\n      dup2\n      mstore\n      0x20\n      add\n      swap1\n      dup2\n      mstore\n      0x20\n      add\n      0x00\n      keccak256\n        /* \"contracts/borrow.sol\":884:918  _borrow[msg.sender] = borrowAmount */\n      dup2\n      swap1\n      sstore\n      pop\n        /* \"contracts/borrow.sol\":937:947  msg.sender */\n      caller\n        /* \"contracts/borrow.sol\":929:957  payable(msg.sender).transfer */\n      0xffffffffffffffffffffffffffffffffffffffff\n      and\n        /* \"contracts/borrow.sol\":929:978  payable(msg.sender).transfer(_borrow[msg.sender]) */\n      0x08fc\n        /* \"contracts/borrow.sol\":958:965  _borrow */\n      0x01\n        /* \"contracts/borrow.sol\":958:977  _borrow[msg.sender] */\n      0x00\n        /* \"contracts/borrow.sol\":966:976  msg.sender */\n      caller\n        /* \"contracts/borrow.sol\":958:977  _borrow[msg.sender] */\n      0xffffffffffffffffffffffffffffffffffffffff\n      and\n      0xffffffffffffffffffffffffffffffffffffffff\n      and\n      dup2\n      mstore\n      0x20\n      add\n      swap1\n      dup2\n      mstore\n      0x20\n      add\n      0x00\n      keccak256\n      sload\n        /* \"contracts/borrow.sol\":929:978  payable(msg.sender).transfer(_borrow[msg.sender]) */\n      swap1\n      dup2\n      iszero\n      mul\n      swap1\n      mload(0x40)\n      0x00\n      mload(0x40)\n      dup1\n      dup4\n      sub\n      dup2\n      dup6\n      dup9\n      dup9\n      call\n      swap4\n      pop\n      pop\n      pop\n      pop\n      iszero\n      dup1\n      iszero\n      tag_33\n      jumpi\n      returndatasize\n      0x00\n      dup1\n      returndatacopy\n      revert(0x00, returndatasize)\n    tag_33:\n      pop\n        /* \"contracts/borrow.sol\":345:986  {... */\n      pop\n        /* \"contracts/borrow.sol\":294:986  function borrow(uint collateralOver) public payable{... */\n      pop\n      jump\t// out\n        /* \"#utility.yul\":88:205   */\n    tag_35:\n        /* \"#utility.yul\":197:198   */\n      0x00\n        /* \"#utility.yul\":194:195   */\n      dup1\n        /* \"#utility.yul\":187:199   */\n      revert\n        /* \"#utility.yul\":334:411   */\n    tag_37:\n        /* \"#utility.yul\":371:378   */\n      0x00\n        /* \"#utility.yul\":400:405   */\n      dup2\n        /* \"#utility.yul\":389:405   */\n      swap1\n      pop\n        /* \"#utility.yul\":334:411   */\n      swap2\n      swap1\n      pop\n      jump\t// out\n        /* \"#utility.yul\":417:539   */\n    tag_38:\n        /* \"#utility.yul\":490:514   */\n      tag_57\n        /* \"#utility.yul\":508:513   */\n      dup2\n        /* \"#utility.yul\":490:514   */\n      tag_37\n      jump\t// in\n    tag_57:\n        /* \"#utility.yul\":483:488   */\n      dup2\n        /* \"#utility.yul\":480:515   */\n      eq\n        /* \"#utility.yul\":470:533   */\n      tag_58\n      jumpi\n        /* \"#utility.yul\":529:530   */\n      0x00\n        /* \"#utility.yul\":526:527   */\n      dup1\n        /* \"#utility.yul\":519:531   */\n      revert\n        /* \"#utility.yul\":470:533   */\n    tag_58:\n        /* \"#utility.yul\":417:539   */\n      pop\n      jump\t// out\n        /* \"#utility.yul\":545:684   */\n    tag_39:\n        /* \"#utility.yul\":591:596   */\n      0x00\n        /* \"#utility.yul\":629:635   */\n      dup2\n        /* \"#utility.yul\":616:636   */\n      calldataload\n        /* \"#utility.yul\":607:636   */\n      swap1\n      pop\n        /* \"#utility.yul\":645:678   */\n      tag_60\n        /* \"#utility.yul\":672:677   */\n      dup2\n        /* \"#utility.yul\":645:678   */\n      tag_38\n      jump\t// in\n    tag_60:\n        /* \"#utility.yul\":545:684   */\n      swap3\n      swap2\n      pop\n      pop\n      jump\t// out\n        /* \"#utility.yul\":690:1019   */\n    tag_8:\n        /* \"#utility.yul\":749:755   */\n      0x00\n        /* \"#utility.yul\":798:800   */\n      0x20\n        /* \"#utility.yul\":786:795   */\n      dup3\n        /* \"#utility.yul\":777:784   */\n      dup5\n        /* \"#utility.yul\":773:796   */\n      sub\n        /* \"#utility.yul\":769:801   */\n      slt\n        /* \"#utility.yul\":766:885   */\n      iszero\n      tag_62\n      jumpi\n        /* \"#utility.yul\":804:883   */\n      tag_63\n      tag_35\n      jump\t// in\n    tag_63:\n        /* \"#utility.yul\":766:885   */\n    tag_62:\n        /* \"#utility.yul\":924:925   */\n      0x00\n        /* \"#utility.yul\":949:1002   */\n      tag_64\n        /* \"#utility.yul\":994:1001   */\n      dup5\n        /* \"#utility.yul\":985:991   */\n      dup3\n        /* \"#utility.yul\":974:983   */\n      dup6\n        /* \"#utility.yul\":970:992   */\n      add\n        /* \"#utility.yul\":949:1002   */\n      tag_39\n      jump\t// in\n    tag_64:\n        /* \"#utility.yul\":939:1002   */\n      swap2\n      pop\n        /* \"#utility.yul\":895:1012   */\n      pop\n        /* \"#utility.yul\":690:1019   */\n      swap3\n      swap2\n      pop\n      pop\n      jump\t// out\n        /* \"#utility.yul\":1025:1194   */\n    tag_40:\n        /* \"#utility.yul\":1109:1120   */\n      0x00\n        /* \"#utility.yul\":1143:1149   */\n      dup3\n        /* \"#utility.yul\":1138:1141   */\n      dup3\n        /* \"#utility.yul\":1131:1150   */\n      mstore\n        /* \"#utility.yul\":1183:1187   */\n      0x20\n        /* \"#utility.yul\":1178:1181   */\n      dup3\n        /* \"#utility.yul\":1174:1188   */\n      add\n        /* \"#utility.yul\":1159:1188   */\n      swap1\n      pop\n        /* \"#utility.yul\":1025:1194   */\n      swap3\n      swap2\n      pop\n      pop\n      jump\t// out\n        /* \"#utility.yul\":1200:1427   */\n    tag_41:\n        /* \"#utility.yul\":1340:1374   */\n      0x52657061796d656e7420616d6f756e74206d75737420626520657175616c2079\n        /* \"#utility.yul\":1336:1337   */\n      0x00\n        /* \"#utility.yul\":1328:1334   */\n      dup3\n        /* \"#utility.yul\":1324:1338   */\n      add\n        /* \"#utility.yul\":1317:1375   */\n      mstore\n        /* \"#utility.yul\":1409:1419   */\n      0x6f7572206c6f616e000000000000000000000000000000000000000000000000\n        /* \"#utility.yul\":1404:1406   */\n      0x20\n        /* \"#utility.yul\":1396:1402   */\n      dup3\n        /* \"#utility.yul\":1392:1407   */\n      add\n        /* \"#utility.yul\":1385:1420   */\n      mstore\n        /* \"#utility.yul\":1200:1427   */\n      pop\n      jump\t// out\n        /* \"#utility.yul\":1433:1799   */\n    tag_42:\n        /* \"#utility.yul\":1575:1578   */\n      0x00\n        /* \"#utility.yul\":1596:1663   */\n      tag_68\n        /* \"#utility.yul\":1660:1662   */\n      0x28\n        /* \"#utility.yul\":1655:1658   */\n      dup4\n        /* \"#utility.yul\":1596:1663   */\n      tag_40\n      jump\t// in\n    tag_68:\n        /* \"#utility.yul\":1589:1663   */\n      swap2\n      pop\n        /* \"#utility.yul\":1672:1765   */\n      tag_69\n        /* \"#utility.yul\":1761:1764   */\n      dup3\n        /* \"#utility.yul\":1672:1765   */\n      tag_41\n      jump\t// in\n    tag_69:\n        /* \"#utility.yul\":1790:1792   */\n      0x40\n        /* \"#utility.yul\":1785:1788   */\n      dup3\n        /* \"#utility.yul\":1781:1793   */\n      add\n        /* \"#utility.yul\":1774:1793   */\n      swap1\n      pop\n        /* \"#utility.yul\":1433:1799   */\n      swap2\n      swap1\n      pop\n      jump\t// out\n        /* \"#utility.yul\":1805:2224   */\n    tag_13:\n        /* \"#utility.yul\":1971:1975   */\n      0x00\n        /* \"#utility.yul\":2009:2011   */\n      0x20\n        /* \"#utility.yul\":1998:2007   */\n      dup3\n        /* \"#utility.yul\":1994:2012   */\n      add\n        /* \"#utility.yul\":1986:2012   */\n      swap1\n      pop\n        /* \"#utility.yul\":2058:2067   */\n      dup2\n        /* \"#utility.yul\":2052:2056   */\n      dup2\n        /* \"#utility.yul\":2048:2068   */\n      sub\n        /* \"#utility.yul\":2044:2045   */\n      0x00\n        /* \"#utility.yul\":2033:2042   */\n      dup4\n        /* \"#utility.yul\":2029:2046   */\n      add\n        /* \"#utility.yul\":2022:2069   */\n      mstore\n        /* \"#utility.yul\":2086:2217   */\n      tag_71\n        /* \"#utility.yul\":2212:2216   */\n      dup2\n        /* \"#utility.yul\":2086:2217   */\n      tag_42\n      jump\t// in\n    tag_71:\n        /* \"#utility.yul\":2078:2217   */\n      swap1\n      pop\n        /* \"#utility.yul\":1805:2224   */\n      swap2\n      swap1\n      pop\n      jump\t// out\n        /* \"#utility.yul\":2230:2459   */\n    tag_43:\n        /* \"#utility.yul\":2370:2404   */\n      0x796f75206d7573742062652072657475726e206173736574207468617420626f\n        /* \"#utility.yul\":2366:2367   */\n      0x00\n        /* \"#utility.yul\":2358:2364   */\n      dup3\n        /* \"#utility.yul\":2354:2368   */\n      add\n        /* \"#utility.yul\":2347:2405   */\n      mstore\n        /* \"#utility.yul\":2439:2451   */\n      0x72726f7720666972737400000000000000000000000000000000000000000000\n        /* \"#utility.yul\":2434:2436   */\n      0x20\n        /* \"#utility.yul\":2426:2432   */\n      dup3\n        /* \"#utility.yul\":2422:2437   */\n      add\n        /* \"#utility.yul\":2415:2452   */\n      mstore\n        /* \"#utility.yul\":2230:2459   */\n      pop\n      jump\t// out\n        /* \"#utility.yul\":2465:2831   */\n    tag_44:\n        /* \"#utility.yul\":2607:2610   */\n      0x00\n        /* \"#utility.yul\":2628:2695   */\n      tag_74\n        /* \"#utility.yul\":2692:2694   */\n      0x2a\n        /* \"#utility.yul\":2687:2690   */\n      dup4\n        /* \"#utility.yul\":2628:2695   */\n      tag_40\n      jump\t// in\n    tag_74:\n        /* \"#utility.yul\":2621:2695   */\n      swap2\n      pop\n        /* \"#utility.yul\":2704:2797   */\n      tag_75\n        /* \"#utility.yul\":2793:2796   */\n      dup3\n        /* \"#utility.yul\":2704:2797   */\n      tag_43\n      jump\t// in\n    tag_75:\n        /* \"#utility.yul\":2822:2824   */\n      0x40\n        /* \"#utility.yul\":2817:2820   */\n      dup3\n        /* \"#utility.yul\":2813:2825   */\n      add\n        /* \"#utility.yul\":2806:2825   */\n      swap1\n      pop\n        /* \"#utility.yul\":2465:2831   */\n      swap2\n      swap1\n      pop\n      jump\t// out\n        /* \"#utility.yul\":2837:3256   */\n    tag_19:\n        /* \"#utility.yul\":3003:3007   */\n      0x00\n        /* \"#utility.yul\":3041:3043   */\n      0x20\n        /* \"#utility.yul\":3030:3039   */\n      dup3\n        /* \"#utility.yul\":3026:3044   */\n      add\n        /* \"#utility.yul\":3018:3044   */\n      swap1\n      pop\n        /* \"#utility.yul\":3090:3099   */\n      dup2\n        /* \"#utility.yul\":3084:3088   */\n      dup2\n        /* \"#utility.yul\":3080:3100   */\n      sub\n        /* \"#utility.yul\":3076:3077   */\n      0x00\n        /* \"#utility.yul\":3065:3074   */\n      dup4\n        /* \"#utility.yul\":3061:3078   */\n      add\n        /* \"#utility.yul\":3054:3101   */\n      mstore\n        /* \"#utility.yul\":3118:3249   */\n      tag_77\n        /* \"#utility.yul\":3244:3248   */\n      dup2\n        /* \"#utility.yul\":3118:3249   */\n      tag_44\n      jump\t// in\n    tag_77:\n        /* \"#utility.yul\":3110:3249   */\n      swap1\n      pop\n        /* \"#utility.yul\":2837:3256   */\n      swap2\n      swap1\n      pop\n      jump\t// out\n        /* \"#utility.yul\":3262:3489   */\n    tag_45:\n        /* \"#utility.yul\":3402:3436   */\n      0x7265717569726520636f6c6c61746572616c206265747765656e203135302061\n        /* \"#utility.yul\":3398:3399   */\n      0x00\n        /* \"#utility.yul\":3390:3396   */\n      dup3\n        /* \"#utility.yul\":3386:3400   */\n      add\n        /* \"#utility.yul\":3379:3437   */\n      mstore\n        /* \"#utility.yul\":3471:3481   */\n      0x6e6420333030252e000000000000000000000000000000000000000000000000\n        /* \"#utility.yul\":3466:3468   */\n      0x20\n        /* \"#utility.yul\":3458:3464   */\n      dup3\n        /* \"#utility.yul\":3454:3469   */\n      add\n        /* \"#utility.yul\":3447:3482   */\n      mstore\n        /* \"#utility.yul\":3262:3489   */\n      pop\n      jump\t// out\n        /* \"#utility.yul\":3495:3861   */\n    tag_46:\n        /* \"#utility.yul\":3637:3640   */\n      0x00\n        /* \"#utility.yul\":3658:3725   */\n      tag_80\n        /* \"#utility.yul\":3722:3724   */\n      0x28\n        /* \"#utility.yul\":3717:3720   */\n      dup4\n        /* \"#utility.yul\":3658:3725   */\n      tag_40\n      jump\t// in\n    tag_80:\n        /* \"#utility.yul\":3651:3725   */\n      swap2\n      pop\n        /* \"#utility.yul\":3734:3827   */\n      tag_81\n        /* \"#utility.yul\":3823:3826   */\n      dup3\n        /* \"#utility.yul\":3734:3827   */\n      tag_45\n      jump\t// in\n    tag_81:\n        /* \"#utility.yul\":3852:3854   */\n      0x40\n        /* \"#utility.yul\":3847:3850   */\n      dup3\n        /* \"#utility.yul\":3843:3855   */\n      add\n        /* \"#utility.yul\":3836:3855   */\n      swap1\n      pop\n        /* \"#utility.yul\":3495:3861   */\n      swap2\n      swap1\n      pop\n      jump\t// out\n        /* \"#utility.yul\":3867:4286   */\n    tag_23:\n        /* \"#utility.yul\":4033:4037   */\n      0x00\n        /* \"#utility.yul\":4071:4073   */\n      0x20\n        /* \"#utility.yul\":4060:4069   */\n      dup3\n        /* \"#utility.yul\":4056:4074   */\n      add\n        /* \"#utility.yul\":4048:4074   */\n      swap1\n      pop\n        /* \"#utility.yul\":4120:4129   */\n      dup2\n        /* \"#utility.yul\":4114:4118   */\n      dup2\n        /* \"#utility.yul\":4110:4130   */\n      sub\n        /* \"#utility.yul\":4106:4107   */\n      0x00\n        /* \"#utility.yul\":4095:4104   */\n      dup4\n        /* \"#utility.yul\":4091:4108   */\n      add\n        /* \"#utility.yul\":4084:4131   */\n      mstore\n        /* \"#utility.yul\":4148:4279   */\n      tag_83\n        /* \"#utility.yul\":4274:4278   */\n      dup2\n        /* \"#utility.yul\":4148:4279   */\n      tag_46\n      jump\t// in\n    tag_83:\n        /* \"#utility.yul\":4140:4279   */\n      swap1\n      pop\n        /* \"#utility.yul\":3867:4286   */\n      swap2\n      swap1\n      pop\n      jump\t// out\n        /* \"#utility.yul\":4292:4512   */\n    tag_47:\n        /* \"#utility.yul\":4432:4466   */\n      0x4574686572206d7573742067726561746572207468616e20657175616c20302e\n        /* \"#utility.yul\":4428:4429   */\n      0x00\n        /* \"#utility.yul\":4420:4426   */\n      dup3\n        /* \"#utility.yul\":4416:4430   */\n      add\n        /* \"#utility.yul\":4409:4467   */\n      mstore\n        /* \"#utility.yul\":4501:4504   */\n      0x3100000000000000000000000000000000000000000000000000000000000000\n        /* \"#utility.yul\":4496:4498   */\n      0x20\n        /* \"#utility.yul\":4488:4494   */\n      dup3\n        /* \"#utility.yul\":4484:4499   */\n      add\n        /* \"#utility.yul\":4477:4505   */\n      mstore\n        /* \"#utility.yul\":4292:4512   */\n      pop\n      jump\t// out\n        /* \"#utility.yul\":4518:4884   */\n    tag_48:\n        /* \"#utility.yul\":4660:4663   */\n      0x00\n        /* \"#utility.yul\":4681:4748   */\n      tag_86\n        /* \"#utility.yul\":4745:4747   */\n      0x21\n        /* \"#utility.yul\":4740:4743   */\n      dup4\n        /* \"#utility.yul\":4681:4748   */\n      tag_40\n      jump\t// in\n    tag_86:\n        /* \"#utility.yul\":4674:4748   */\n      swap2\n      pop\n        /* \"#utility.yul\":4757:4850   */\n      tag_87\n        /* \"#utility.yul\":4846:4849   */\n      dup3\n        /* \"#utility.yul\":4757:4850   */\n      tag_47\n      jump\t// in\n    tag_87:\n        /* \"#utility.yul\":4875:4877   */\n      0x40\n        /* \"#utility.yul\":4870:4873   */\n      dup3\n        /* \"#utility.yul\":4866:4878   */\n      add\n        /* \"#utility.yul\":4859:4878   */\n      swap1\n      pop\n        /* \"#utility.yul\":4518:4884   */\n      swap2\n      swap1\n      pop\n      jump\t// out\n        /* \"#utility.yul\":4890:5309   */\n    tag_26:\n        /* \"#utility.yul\":5056:5060   */\n      0x00\n        /* \"#utility.yul\":5094:5096   */\n      0x20\n        /* \"#utility.yul\":5083:5092   */\n      dup3\n        /* \"#utility.yul\":5079:5097   */\n      add\n        /* \"#utility.yul\":5071:5097   */\n      swap1\n      pop\n        /* \"#utility.yul\":5143:5152   */\n      dup2\n        /* \"#utility.yul\":5137:5141   */\n      dup2\n        /* \"#utility.yul\":5133:5153   */\n      sub\n        /* \"#utility.yul\":5129:5130   */\n      0x00\n        /* \"#utility.yul\":5118:5127   */\n      dup4\n        /* \"#utility.yul\":5114:5131   */\n      add\n        /* \"#utility.yul\":5107:5154   */\n      mstore\n        /* \"#utility.yul\":5171:5302   */\n      tag_89\n        /* \"#utility.yul\":5297:5301   */\n      dup2\n        /* \"#utility.yul\":5171:5302   */\n      tag_48\n      jump\t// in\n    tag_89:\n        /* \"#utility.yul\":5163:5302   */\n      swap1\n      pop\n        /* \"#utility.yul\":4890:5309   */\n      swap2\n      swap1\n      pop\n      jump\t// out\n        /* \"#utility.yul\":5315:5495   */\n    tag_49:\n        /* \"#utility.yul\":5363:5440   */\n      0x4e487b7100000000000000000000000000000000000000000000000000000000\n        /* \"#utility.yul\":5360:5361   */\n      0x00\n        /* \"#utility.yul\":5353:5441   */\n      mstore\n        /* \"#utility.yul\":5460:5464   */\n      0x12\n        /* \"#utility.yul\":5457:5458   */\n      0x04\n        /* \"#utility.yul\":5450:5465   */\n      mstore\n        /* \"#utility.yul\":5484:5488   */\n      0x24\n        /* \"#utility.yul\":5481:5482   */\n      0x00\n        /* \"#utility.yul\":5474:5489   */\n      revert\n        /* \"#utility.yul\":5501:5681   */\n    tag_50:\n        /* \"#utility.yul\":5549:5626   */\n      0x4e487b7100000000000000000000000000000000000000000000000000000000\n        /* \"#utility.yul\":5546:5547   */\n      0x00\n        /* \"#utility.yul\":5539:5627   */\n      mstore\n        /* \"#utility.yul\":5646:5650   */\n      0x11\n        /* \"#utility.yul\":5643:5644   */\n      0x04\n        /* \"#utility.yul\":5636:5651   */\n      mstore\n        /* \"#utility.yul\":5670:5674   */\n      0x24\n        /* \"#utility.yul\":5667:5668   */\n      0x00\n        /* \"#utility.yul\":5660:5675   */\n      revert\n        /* \"#utility.yul\":5687:5872   */\n    tag_28:\n        /* \"#utility.yul\":5727:5728   */\n      0x00\n        /* \"#utility.yul\":5744:5764   */\n      tag_93\n        /* \"#utility.yul\":5762:5763   */\n      dup3\n        /* \"#utility.yul\":5744:5764   */\n      tag_37\n      jump\t// in\n    tag_93:\n        /* \"#utility.yul\":5739:5764   */\n      swap2\n      pop\n        /* \"#utility.yul\":5778:5798   */\n      tag_94\n        /* \"#utility.yul\":5796:5797   */\n      dup4\n        /* \"#utility.yul\":5778:5798   */\n      tag_37\n      jump\t// in\n    tag_94:\n        /* \"#utility.yul\":5773:5798   */\n      swap3\n      pop\n        /* \"#utility.yul\":5817:5818   */\n      dup3\n        /* \"#utility.yul\":5807:5842   */\n      tag_95\n      jumpi\n        /* \"#utility.yul\":5822:5840   */\n      tag_96\n      tag_49\n      jump\t// in\n    tag_96:\n        /* \"#utility.yul\":5807:5842   */\n    tag_95:\n        /* \"#utility.yul\":5864:5865   */\n      dup3\n        /* \"#utility.yul\":5861:5862   */\n      dup3\n        /* \"#utility.yul\":5857:5866   */\n      div\n        /* \"#utility.yul\":5852:5866   */\n      swap1\n      pop\n        /* \"#utility.yul\":5687:5872   */\n      swap3\n      swap2\n      pop\n      pop\n      jump\t// out\n        /* \"#utility.yul\":5878:6288   */\n    tag_30:\n        /* \"#utility.yul\":5918:5925   */\n      0x00\n        /* \"#utility.yul\":5941:5961   */\n      tag_98\n        /* \"#utility.yul\":5959:5960   */\n      dup3\n        /* \"#utility.yul\":5941:5961   */\n      tag_37\n      jump\t// in\n    tag_98:\n        /* \"#utility.yul\":5936:5961   */\n      swap2\n      pop\n        /* \"#utility.yul\":5975:5995   */\n      tag_99\n        /* \"#utility.yul\":5993:5994   */\n      dup4\n        /* \"#utility.yul\":5975:5995   */\n      tag_37\n      jump\t// in\n    tag_99:\n        /* \"#utility.yul\":5970:5995   */\n      swap3\n      pop\n        /* \"#utility.yul\":6030:6031   */\n      dup3\n        /* \"#utility.yul\":6027:6028   */\n      dup3\n        /* \"#utility.yul\":6023:6032   */\n      mul\n        /* \"#utility.yul\":6052:6082   */\n      tag_100\n        /* \"#utility.yul\":6070:6081   */\n      dup2\n        /* \"#utility.yul\":6052:6082   */\n      tag_37\n      jump\t// in\n    tag_100:\n        /* \"#utility.yul\":6041:6082   */\n      swap2\n      pop\n        /* \"#utility.yul\":6231:6232   */\n      dup3\n        /* \"#utility.yul\":6222:6229   */\n      dup3\n        /* \"#utility.yul\":6218:6233   */\n      div\n        /* \"#utility.yul\":6215:6216   */\n      dup5\n        /* \"#utility.yul\":6212:6234   */\n      eq\n        /* \"#utility.yul\":6192:6193   */\n      dup4\n        /* \"#utility.yul\":6185:6194   */\n      iszero\n        /* \"#utility.yul\":6165:6248   */\n      or\n        /* \"#utility.yul\":6142:6281   */\n      tag_101\n      jumpi\n        /* \"#utility.yul\":6261:6279   */\n      tag_102\n      tag_50\n      jump\t// in\n    tag_102:\n        /* \"#utility.yul\":6142:6281   */\n    tag_101:\n        /* \"#utility.yul\":5926:6288   */\n      pop\n        /* \"#utility.yul\":5878:6288   */\n      swap3\n      swap2\n      pop\n      pop\n      jump\t// out\n\n    auxdata: 0xa2646970667358221220db091536c03b92c81917b9e5e6213328d7ff3f8828c299bf5d93aa9f968186db64736f6c63430008160033\n}\n",
				"bytecode": {
					"linkReferences": {},
					"object": "608060405234801561000f575f80fd5b506109058061001d5f395ff3fe608060405260043610610028575f3560e01c8063c393d0e31461002c578063c5ebeaec14610036575b5f80fd5b610034610052565b005b610050600480360381019061004b9190610591565b610232565b005b3460015f3373ffffffffffffffffffffffffffffffffffffffff1673ffffffffffffffffffffffffffffffffffffffff1681526020019081526020015f2054146100d1576040517f08c379a00000000000000000000000000000000000000000000000000000000081526004016100c89061063c565b60405180910390fd5b3373ffffffffffffffffffffffffffffffffffffffff166108fc5f803373ffffffffffffffffffffffffffffffffffffffff1673ffffffffffffffffffffffffffffffffffffffff1681526020019081526020015f205f015490811502906040515f60405180830381858888f19350505050158015610152573d5f803e3d5ffd5b505f805f3373ffffffffffffffffffffffffffffffffffffffff1673ffffffffffffffffffffffffffffffffffffffff1681526020019081526020015f205f01819055505f805f3373ffffffffffffffffffffffffffffffffffffffff1673ffffffffffffffffffffffffffffffffffffffff1681526020019081526020015f20600101819055505f805f3373ffffffffffffffffffffffffffffffffffffffff1673ffffffffffffffffffffffffffffffffffffffff1681526020019081526020015f206002015f6101000a81548160ff021916908315150217905550565b5f15155f803373ffffffffffffffffffffffffffffffffffffffff1673ffffffffffffffffffffffffffffffffffffffff1681526020019081526020015f206002015f9054906101000a900460ff161515146102c3576040517f08c379a00000000000000000000000000000000000000000000000000000000081526004016102ba906106ca565b60405180910390fd5b609681101580156102d6575061012c8111155b610315576040517f08c379a000000000000000000000000000000000000000000000000000000000815260040161030c90610758565b60405180910390fd5b67016345785d8a0000341015610360576040517f08c379a0000000000000000000000000000000000000000000000000000000008152600401610357906107e6565b60405180910390fd5b60405180606001604052803481526020018261271061037f919061085e565b8152602001600115158152505f803373ffffffffffffffffffffffffffffffffffffffff1673ffffffffffffffffffffffffffffffffffffffff1681526020019081526020015f205f820151815f0155602082015181600101556040820151816002015f6101000a81548160ff0219169083151502179055509050505f60645f803373ffffffffffffffffffffffffffffffffffffffff1673ffffffffffffffffffffffffffffffffffffffff1681526020019081526020015f20600101545f803373ffffffffffffffffffffffffffffffffffffffff1673ffffffffffffffffffffffffffffffffffffffff1681526020019081526020015f205f0154610487919061088e565b610491919061085e565b90508060015f3373ffffffffffffffffffffffffffffffffffffffff1673ffffffffffffffffffffffffffffffffffffffff1681526020019081526020015f20819055503373ffffffffffffffffffffffffffffffffffffffff166108fc60015f3373ffffffffffffffffffffffffffffffffffffffff1673ffffffffffffffffffffffffffffffffffffffff1681526020019081526020015f205490811502906040515f60405180830381858888f19350505050158015610555573d5f803e3d5ffd5b505050565b5f80fd5b5f819050919050565b6105708161055e565b811461057a575f80fd5b50565b5f8135905061058b81610567565b92915050565b5f602082840312156105a6576105a561055a565b5b5f6105b38482850161057d565b91505092915050565b5f82825260208201905092915050565b7f52657061796d656e7420616d6f756e74206d75737420626520657175616c20795f8201527f6f7572206c6f616e000000000000000000000000000000000000000000000000602082015250565b5f6106266028836105bc565b9150610631826105cc565b604082019050919050565b5f6020820190508181035f8301526106538161061a565b9050919050565b7f796f75206d7573742062652072657475726e206173736574207468617420626f5f8201527f72726f7720666972737400000000000000000000000000000000000000000000602082015250565b5f6106b4602a836105bc565b91506106bf8261065a565b604082019050919050565b5f6020820190508181035f8301526106e1816106a8565b9050919050565b7f7265717569726520636f6c6c61746572616c206265747765656e2031353020615f8201527f6e6420333030252e000000000000000000000000000000000000000000000000602082015250565b5f6107426028836105bc565b915061074d826106e8565b604082019050919050565b5f6020820190508181035f83015261076f81610736565b9050919050565b7f4574686572206d7573742067726561746572207468616e20657175616c20302e5f8201527f3100000000000000000000000000000000000000000000000000000000000000602082015250565b5f6107d06021836105bc565b91506107db82610776565b604082019050919050565b5f6020820190508181035f8301526107fd816107c4565b9050919050565b7f4e487b71000000000000000000000000000000000000000000000000000000005f52601260045260245ffd5b7f4e487b71000000000000000000000000000000000000000000000000000000005f52601160045260245ffd5b5f6108688261055e565b91506108738361055e565b92508261088357610882610804565b5b828204905092915050565b5f6108988261055e565b91506108a38361055e565b92508282026108b18161055e565b915082820484148315176108c8576108c7610831565b5b509291505056fea2646970667358221220db091536c03b92c81917b9e5e6213328d7ff3f8828c299bf5d93aa9f968186db64736f6c63430008160033",
					"opcodes": "PUSH1 0x80 PUSH1 0x40 MSTORE CALLVALUE DUP1 ISZERO PUSH2 0xF JUMPI PUSH0 DUP1 REVERT JUMPDEST POP PUSH2 0x905 DUP1 PUSH2 0x1D PUSH0 CODECOPY PUSH0 RETURN INVALID PUSH1 0x80 PUSH1 0x40 MSTORE PUSH1 0x4 CALLDATASIZE LT PUSH2 0x28 JUMPI PUSH0 CALLDATALOAD PUSH1 0xE0 SHR DUP1 PUSH4 0xC393D0E3 EQ PUSH2 0x2C JUMPI DUP1 PUSH4 0xC5EBEAEC EQ PUSH2 0x36 JUMPI JUMPDEST PUSH0 DUP1 REVERT JUMPDEST PUSH2 0x34 PUSH2 0x52 JUMP JUMPDEST STOP JUMPDEST PUSH2 0x50 PUSH1 0x4 DUP1 CALLDATASIZE SUB DUP2 ADD SWAP1 PUSH2 0x4B SWAP2 SWAP1 PUSH2 0x591 JUMP JUMPDEST PUSH2 0x232 JUMP JUMPDEST STOP JUMPDEST CALLVALUE PUSH1 0x1 PUSH0 CALLER PUSH20 0xFFFFFFFFFFFFFFFFFFFFFFFFFFFFFFFFFFFFFFFF AND PUSH20 0xFFFFFFFFFFFFFFFFFFFFFFFFFFFFFFFFFFFFFFFF AND DUP2 MSTORE PUSH1 0x20 ADD SWAP1 DUP2 MSTORE PUSH1 0x20 ADD PUSH0 KECCAK256 SLOAD EQ PUSH2 0xD1 JUMPI PUSH1 0x40 MLOAD PUSH32 0x8C379A000000000000000000000000000000000000000000000000000000000 DUP2 MSTORE PUSH1 0x4 ADD PUSH2 0xC8 SWAP1 PUSH2 0x63C JUMP JUMPDEST PUSH1 0x40 MLOAD DUP1 SWAP2 SUB SWAP1 REVERT JUMPDEST CALLER PUSH20 0xFFFFFFFFFFFFFFFFFFFFFFFFFFFFFFFFFFFFFFFF AND PUSH2 0x8FC PUSH0 DUP1 CALLER PUSH20 0xFFFFFFFFFFFFFFFFFFFFFFFFFFFFFFFFFFFFFFFF AND PUSH20 0xFFFFFFFFFFFFFFFFFFFFFFFFFFFFFFFFFFFFFFFF AND DUP2 MSTORE PUSH1 0x20 ADD SWAP1 DUP2 MSTORE PUSH1 0x20 ADD PUSH0 KECCAK256 PUSH0 ADD SLOAD SWAP1 DUP2 ISZERO MUL SWAP1 PUSH1 0x40 MLOAD PUSH0 PUSH1 0x40 MLOAD DUP1 DUP4 SUB DUP2 DUP6 DUP9 DUP9 CALL SWAP4 POP POP POP POP ISZERO DUP1 ISZERO PUSH2 0x152 JUMPI RETURNDATASIZE PUSH0 DUP1 RETURNDATACOPY RETURNDATASIZE PUSH0 REVERT JUMPDEST POP PUSH0 DUP1 PUSH0 CALLER PUSH20 0xFFFFFFFFFFFFFFFFFFFFFFFFFFFFFFFFFFFFFFFF AND PUSH20 0xFFFFFFFFFFFFFFFFFFFFFFFFFFFFFFFFFFFFFFFF AND DUP2 MSTORE PUSH1 0x20 ADD SWAP1 DUP2 MSTORE PUSH1 0x20 ADD PUSH0 KECCAK256 PUSH0 ADD DUP2 SWAP1 SSTORE POP PUSH0 DUP1 PUSH0 CALLER PUSH20 0xFFFFFFFFFFFFFFFFFFFFFFFFFFFFFFFFFFFFFFFF AND PUSH20 0xFFFFFFFFFFFFFFFFFFFFFFFFFFFFFFFFFFFFFFFF AND DUP2 MSTORE PUSH1 0x20 ADD SWAP1 DUP2 MSTORE PUSH1 0x20 ADD PUSH0 KECCAK256 PUSH1 0x1 ADD DUP2 SWAP1 SSTORE POP PUSH0 DUP1 PUSH0 CALLER PUSH20 0xFFFFFFFFFFFFFFFFFFFFFFFFFFFFFFFFFFFFFFFF AND PUSH20 0xFFFFFFFFFFFFFFFFFFFFFFFFFFFFFFFFFFFFFFFF AND DUP2 MSTORE PUSH1 0x20 ADD SWAP1 DUP2 MSTORE PUSH1 0x20 ADD PUSH0 KECCAK256 PUSH1 0x2 ADD PUSH0 PUSH2 0x100 EXP DUP2 SLOAD DUP2 PUSH1 0xFF MUL NOT AND SWAP1 DUP4 ISZERO ISZERO MUL OR SWAP1 SSTORE POP JUMP JUMPDEST PUSH0 ISZERO ISZERO PUSH0 DUP1 CALLER PUSH20 0xFFFFFFFFFFFFFFFFFFFFFFFFFFFFFFFFFFFFFFFF AND PUSH20 0xFFFFFFFFFFFFFFFFFFFFFFFFFFFFFFFFFFFFFFFF AND DUP2 MSTORE PUSH1 0x20 ADD SWAP1 DUP2 MSTORE PUSH1 0x20 ADD PUSH0 KECCAK256 PUSH1 0x2 ADD PUSH0 SWAP1 SLOAD SWAP1 PUSH2 0x100 EXP SWAP1 DIV PUSH1 0xFF AND ISZERO ISZERO EQ PUSH2 0x2C3 JUMPI PUSH1 0x40 MLOAD PUSH32 0x8C379A000000000000000000000000000000000000000000000000000000000 DUP2 MSTORE PUSH1 0x4 ADD PUSH2 0x2BA SWAP1 PUSH2 0x6CA JUMP JUMPDEST PUSH1 0x40 MLOAD DUP1 SWAP2 SUB SWAP1 REVERT JUMPDEST PUSH1 0x96 DUP2 LT ISZERO DUP1 ISZERO PUSH2 0x2D6 JUMPI POP PUSH2 0x12C DUP2 GT ISZERO JUMPDEST PUSH2 0x315 JUMPI PUSH1 0x40 MLOAD PUSH32 0x8C379A000000000000000000000000000000000000000000000000000000000 DUP2 MSTORE PUSH1 0x4 ADD PUSH2 0x30C SWAP1 PUSH2 0x758 JUMP JUMPDEST PUSH1 0x40 MLOAD DUP1 SWAP2 SUB SWAP1 REVERT JUMPDEST PUSH8 0x16345785D8A0000 CALLVALUE LT ISZERO PUSH2 0x360 JUMPI PUSH1 0x40 MLOAD PUSH32 0x8C379A000000000000000000000000000000000000000000000000000000000 DUP2 MSTORE PUSH1 0x4 ADD PUSH2 0x357 SWAP1 PUSH2 0x7E6 JUMP JUMPDEST PUSH1 0x40 MLOAD DUP1 SWAP2 SUB SWAP1 REVERT JUMPDEST PUSH1 0x40 MLOAD DUP1 PUSH1 0x60 ADD PUSH1 0x40 MSTORE DUP1 CALLVALUE DUP2 MSTORE PUSH1 0x20 ADD DUP3 PUSH2 0x2710 PUSH2 0x37F SWAP2 SWAP1 PUSH2 0x85E JUMP JUMPDEST DUP2 MSTORE PUSH1 0x20 ADD PUSH1 0x1 ISZERO ISZERO DUP2 MSTORE POP PUSH0 DUP1 CALLER PUSH20 0xFFFFFFFFFFFFFFFFFFFFFFFFFFFFFFFFFFFFFFFF AND PUSH20 0xFFFFFFFFFFFFFFFFFFFFFFFFFFFFFFFFFFFFFFFF AND DUP2 MSTORE PUSH1 0x20 ADD SWAP1 DUP2 MSTORE PUSH1 0x20 ADD PUSH0 KECCAK256 PUSH0 DUP3 ADD MLOAD DUP2 PUSH0 ADD SSTORE PUSH1 0x20 DUP3 ADD MLOAD DUP2 PUSH1 0x1 ADD SSTORE PUSH1 0x40 DUP3 ADD MLOAD DUP2 PUSH1 0x2 ADD PUSH0 PUSH2 0x100 EXP DUP2 SLOAD DUP2 PUSH1 0xFF MUL NOT AND SWAP1 DUP4 ISZERO ISZERO MUL OR SWAP1 SSTORE POP SWAP1 POP POP PUSH0 PUSH1 0x64 PUSH0 DUP1 CALLER PUSH20 0xFFFFFFFFFFFFFFFFFFFFFFFFFFFFFFFFFFFFFFFF AND PUSH20 0xFFFFFFFFFFFFFFFFFFFFFFFFFFFFFFFFFFFFFFFF AND DUP2 MSTORE PUSH1 0x20 ADD SWAP1 DUP2 MSTORE PUSH1 0x20 ADD PUSH0 KECCAK256 PUSH1 0x1 ADD SLOAD PUSH0 DUP1 CALLER PUSH20 0xFFFFFFFFFFFFFFFFFFFFFFFFFFFFFFFFFFFFFFFF AND PUSH20 0xFFFFFFFFFFFFFFFFFFFFFFFFFFFFFFFFFFFFFFFF AND DUP2 MSTORE PUSH1 0x20 ADD SWAP1 DUP2 MSTORE PUSH1 0x20 ADD PUSH0 KECCAK256 PUSH0 ADD SLOAD PUSH2 0x487 SWAP2 SWAP1 PUSH2 0x88E JUMP JUMPDEST PUSH2 0x491 SWAP2 SWAP1 PUSH2 0x85E JUMP JUMPDEST SWAP1 POP DUP1 PUSH1 0x1 PUSH0 CALLER PUSH20 0xFFFFFFFFFFFFFFFFFFFFFFFFFFFFFFFFFFFFFFFF AND PUSH20 0xFFFFFFFFFFFFFFFFFFFFFFFFFFFFFFFFFFFFFFFF AND DUP2 MSTORE PUSH1 0x20 ADD SWAP1 DUP2 MSTORE PUSH1 0x20 ADD PUSH0 KECCAK256 DUP2 SWAP1 SSTORE POP CALLER PUSH20 0xFFFFFFFFFFFFFFFFFFFFFFFFFFFFFFFFFFFFFFFF AND PUSH2 0x8FC PUSH1 0x1 PUSH0 CALLER PUSH20 0xFFFFFFFFFFFFFFFFFFFFFFFFFFFFFFFFFFFFFFFF AND PUSH20 0xFFFFFFFFFFFFFFFFFFFFFFFFFFFFFFFFFFFFFFFF AND DUP2 MSTORE PUSH1 0x20 ADD SWAP1 DUP2 MSTORE PUSH1 0x20 ADD PUSH0 KECCAK256 SLOAD SWAP1 DUP2 ISZERO MUL SWAP1 PUSH1 0x40 MLOAD PUSH0 PUSH1 0x40 MLOAD DUP1 DUP4 SUB DUP2 DUP6 DUP9 DUP9 CALL SWAP4 POP POP POP POP ISZERO DUP1 ISZERO PUSH2 0x555 JUMPI RETURNDATASIZE PUSH0 DUP1 RETURNDATACOPY RETURNDATASIZE PUSH0 REVERT JUMPDEST POP POP POP JUMP JUMPDEST PUSH0 DUP1 REVERT JUMPDEST PUSH0 DUP2 SWAP1 POP SWAP2 SWAP1 POP JUMP JUMPDEST PUSH2 0x570 DUP2 PUSH2 0x55E JUMP JUMPDEST DUP2 EQ PUSH2 0x57A JUMPI PUSH0 DUP1 REVERT JUMPDEST POP JUMP JUMPDEST PUSH0 DUP2 CALLDATALOAD SWAP1 POP PUSH2 0x58B DUP2 PUSH2 0x567 JUMP JUMPDEST SWAP3 SWAP2 POP POP JUMP JUMPDEST PUSH0 PUSH1 0x20 DUP3 DUP5 SUB SLT ISZERO PUSH2 0x5A6 JUMPI PUSH2 0x5A5 PUSH2 0x55A JUMP JUMPDEST JUMPDEST PUSH0 PUSH2 0x5B3 DUP5 DUP3 DUP6 ADD PUSH2 0x57D JUMP JUMPDEST SWAP2 POP POP SWAP3 SWAP2 POP POP JUMP JUMPDEST PUSH0 DUP3 DUP3 MSTORE PUSH1 0x20 DUP3 ADD SWAP1 POP SWAP3 SWAP2 POP POP JUMP JUMPDEST PUSH32 0x52657061796D656E7420616D6F756E74206D75737420626520657175616C2079 PUSH0 DUP3 ADD MSTORE PUSH32 0x6F7572206C6F616E000000000000000000000000000000000000000000000000 PUSH1 0x20 DUP3 ADD MSTORE POP JUMP JUMPDEST PUSH0 PUSH2 0x626 PUSH1 0x28 DUP4 PUSH2 0x5BC JUMP JUMPDEST SWAP2 POP PUSH2 0x631 DUP3 PUSH2 0x5CC JUMP JUMPDEST PUSH1 0x40 DUP3 ADD SWAP1 POP SWAP2 SWAP1 POP JUMP JUMPDEST PUSH0 PUSH1 0x20 DUP3 ADD SWAP1 POP DUP2 DUP2 SUB PUSH0 DUP4 ADD MSTORE PUSH2 0x653 DUP2 PUSH2 0x61A JUMP JUMPDEST SWAP1 POP SWAP2 SWAP1 POP JUMP JUMPDEST PUSH32 0x796F75206D7573742062652072657475726E206173736574207468617420626F PUSH0 DUP3 ADD MSTORE PUSH32 0x72726F7720666972737400000000000000000000000000000000000000000000 PUSH1 0x20 DUP3 ADD MSTORE POP JUMP JUMPDEST PUSH0 PUSH2 0x6B4 PUSH1 0x2A DUP4 PUSH2 0x5BC JUMP JUMPDEST SWAP2 POP PUSH2 0x6BF DUP3 PUSH2 0x65A JUMP JUMPDEST PUSH1 0x40 DUP3 ADD SWAP1 POP SWAP2 SWAP1 POP JUMP JUMPDEST PUSH0 PUSH1 0x20 DUP3 ADD SWAP1 POP DUP2 DUP2 SUB PUSH0 DUP4 ADD MSTORE PUSH2 0x6E1 DUP2 PUSH2 0x6A8 JUMP JUMPDEST SWAP1 POP SWAP2 SWAP1 POP JUMP JUMPDEST PUSH32 0x7265717569726520636F6C6C61746572616C206265747765656E203135302061 PUSH0 DUP3 ADD MSTORE PUSH32 0x6E6420333030252E000000000000000000000000000000000000000000000000 PUSH1 0x20 DUP3 ADD MSTORE POP JUMP JUMPDEST PUSH0 PUSH2 0x742 PUSH1 0x28 DUP4 PUSH2 0x5BC JUMP JUMPDEST SWAP2 POP PUSH2 0x74D DUP3 PUSH2 0x6E8 JUMP JUMPDEST PUSH1 0x40 DUP3 ADD SWAP1 POP SWAP2 SWAP1 POP JUMP JUMPDEST PUSH0 PUSH1 0x20 DUP3 ADD SWAP1 POP DUP2 DUP2 SUB PUSH0 DUP4 ADD MSTORE PUSH2 0x76F DUP2 PUSH2 0x736 JUMP JUMPDEST SWAP1 POP SWAP2 SWAP1 POP JUMP JUMPDEST PUSH32 0x4574686572206D7573742067726561746572207468616E20657175616C20302E PUSH0 DUP3 ADD MSTORE PUSH32 0x3100000000000000000000000000000000000000000000000000000000000000 PUSH1 0x20 DUP3 ADD MSTORE POP JUMP JUMPDEST PUSH0 PUSH2 0x7D0 PUSH1 0x21 DUP4 PUSH2 0x5BC JUMP JUMPDEST SWAP2 POP PUSH2 0x7DB DUP3 PUSH2 0x776 JUMP JUMPDEST PUSH1 0x40 DUP3 ADD SWAP1 POP SWAP2 SWAP1 POP JUMP JUMPDEST PUSH0 PUSH1 0x20 DUP3 ADD SWAP1 POP DUP2 DUP2 SUB PUSH0 DUP4 ADD MSTORE PUSH2 0x7FD DUP2 PUSH2 0x7C4 JUMP JUMPDEST SWAP1 POP SWAP2 SWAP1 POP JUMP JUMPDEST PUSH32 0x4E487B7100000000000000000000000000000000000000000000000000000000 PUSH0 MSTORE PUSH1 0x12 PUSH1 0x4 MSTORE PUSH1 0x24 PUSH0 REVERT JUMPDEST PUSH32 0x4E487B7100000000000000000000000000000000000000000000000000000000 PUSH0 MSTORE PUSH1 0x11 PUSH1 0x4 MSTORE PUSH1 0x24 PUSH0 REVERT JUMPDEST PUSH0 PUSH2 0x868 DUP3 PUSH2 0x55E JUMP JUMPDEST SWAP2 POP PUSH2 0x873 DUP4 PUSH2 0x55E JUMP JUMPDEST SWAP3 POP DUP3 PUSH2 0x883 JUMPI PUSH2 0x882 PUSH2 0x804 JUMP JUMPDEST JUMPDEST DUP3 DUP3 DIV SWAP1 POP SWAP3 SWAP2 POP POP JUMP JUMPDEST PUSH0 PUSH2 0x898 DUP3 PUSH2 0x55E JUMP JUMPDEST SWAP2 POP PUSH2 0x8A3 DUP4 PUSH2 0x55E JUMP JUMPDEST SWAP3 POP DUP3 DUP3 MUL PUSH2 0x8B1 DUP2 PUSH2 0x55E JUMP JUMPDEST SWAP2 POP DUP3 DUP3 DIV DUP5 EQ DUP4 ISZERO OR PUSH2 0x8C8 JUMPI PUSH2 0x8C7 PUSH2 0x831 JUMP JUMPDEST JUMPDEST POP SWAP3 SWAP2 POP POP JUMP INVALID LOG2 PUSH5 0x6970667358 0x22 SLT KECCAK256 0xDB MULMOD ISZERO CALLDATASIZE 0xC0 EXTCODESIZE SWAP3 0xC8 NOT OR 0xB9 0xE5 0xE6 0x21 CALLER 0x28 0xD7 SELFDESTRUCT EXTCODEHASH DUP9 0x28 0xC2 SWAP10 0xBF 0x5D SWAP4 0xAA SWAP16 SWAP7 DUP2 DUP7 0xDB PUSH5 0x736F6C6343 STOP ADDMOD AND STOP CALLER "
				},
				"gasEstimates": {
					"creation": {
						"codeDepositCost": "461800",
						"executionCost": "497",
						"totalCost": "462297"
					},
					"external": {
						"borrow(uint256)": "infinite",
						"closePosition()": "infinite"
					}
				},
				"methodIdentifiers": {
					"borrow(uint256)": "c5ebeaec",
					"closePosition()": "c393d0e3"
				}
			},
			"storageLayout": {
				"storage": [
					{
						"astId": 13,
						"contract": "contracts/borrow.sol:Borrow",
						"label": "_collateralAsset",
						"offset": 0,
						"slot": "0",
						"type": "t_mapping(t_address,t_struct(collateral)8_storage)"
					},
					{
						"astId": 17,
						"contract": "contracts/borrow.sol:Borrow",
						"label": "_borrow",
						"offset": 0,
						"slot": "1",
						"type": "t_mapping(t_address,t_uint256)"
					}
				],
				"types": {
					"t_address": {
						"encoding": "inplace",
						"label": "address",
						"numberOfBytes": "20"
					},
					"t_bool": {
						"encoding": "inplace",
						"label": "bool",
						"numberOfBytes": "1"
					},
					"t_mapping(t_address,t_struct(collateral)8_storage)": {
						"encoding": "mapping",
						"key": "t_address",
						"label": "mapping(address => struct Borrow.collateral)",
						"numberOfBytes": "32",
						"value": "t_struct(collateral)8_storage"
					},
					"t_mapping(t_address,t_uint256)": {
						"encoding": "mapping",
						"key": "t_address",
						"label": "mapping(address => uint256)",
						"numberOfBytes": "32",
						"value": "t_uint256"
					},
					"t_struct(collateral)8_storage": {
						"encoding": "inplace",
						"label": "struct Borrow.collateral",
						"members": [
							{
								"astId": 3,
								"contract": "contracts/borrow.sol:Borrow",
								"label": "amount",
								"offset": 0,
								"slot": "0",
								"type": "t_uint256"
							},
							{
								"astId": 5,
								"contract": "contracts/borrow.sol:Borrow",
								"label": "ratio",
								"offset": 0,
								"slot": "1",
								"type": "t_uint256"
							},
							{
								"astId": 7,
								"contract": "contracts/borrow.sol:Borrow",
								"label": "cannotborrow",
								"offset": 0,
								"slot": "2",
								"type": "t_bool"
							}
						],
						"numberOfBytes": "96"
					},
					"t_uint256": {
						"encoding": "inplace",
						"label": "uint256",
						"numberOfBytes": "32"
					}
				}
			},
			"userdoc": {
				"kind": "user",
				"methods": {},
				"version": 1
			}
		}
	}
}