{
	"contracts/VendingMachine.sol": {
		"VendingMachine": {
			"abi": [
				{
					"inputs": [],
					"stateMutability": "nonpayable",
					"type": "constructor"
				},
				{
					"inputs": [],
					"name": "getThis",
					"outputs": [
						{
							"internalType": "address",
							"name": "thisAddress",
							"type": "address"
						}
					],
					"stateMutability": "view",
					"type": "function"
				},
				{
					"inputs": [],
					"name": "getVendingMachineBalance",
					"outputs": [
						{
							"internalType": "uint256",
							"name": "",
							"type": "uint256"
						}
					],
					"stateMutability": "view",
					"type": "function"
				},
				{
					"inputs": [],
					"name": "owner",
					"outputs": [
						{
							"internalType": "address",
							"name": "",
							"type": "address"
						}
					],
					"stateMutability": "view",
					"type": "function"
				},
				{
					"inputs": [
						{
							"internalType": "uint256",
							"name": "amount",
							"type": "uint256"
						}
					],
					"name": "purchase",
					"outputs": [],
					"stateMutability": "payable",
					"type": "function"
				},
				{
					"inputs": [
						{
							"internalType": "uint256",
							"name": "amount",
							"type": "uint256"
						}
					],
					"name": "restock",
					"outputs": [],
					"stateMutability": "nonpayable",
					"type": "function"
				}
			],
			"devdoc": {
				"kind": "dev",
				"methods": {},
				"version": 1
			},
			"evm": {
				"assembly": "    /* \"contracts/VendingMachine.sol\":61:1146  contract VendingMachine{... */\n  mstore(0x40, 0x80)\n    /* \"contracts/VendingMachine.sol\":239:381  constructor(){... */\n  callvalue\n  dup1\n  iszero\n  tag_1\n  jumpi\n  0x00\n  dup1\n  revert\ntag_1:\n  pop\n    /* \"contracts/VendingMachine.sol\":271:281  msg.sender */\n  caller\n    /* \"contracts/VendingMachine.sol\":263:268  owner */\n  0x00\n  dup1\n    /* \"contracts/VendingMachine.sol\":263:281  owner = msg.sender */\n  0x0100\n  exp\n  dup2\n  sload\n  dup2\n  0xffffffffffffffffffffffffffffffffffffffff\n  mul\n  not\n  and\n  swap1\n  dup4\n  0xffffffffffffffffffffffffffffffffffffffff\n  and\n  mul\n  or\n  swap1\n  sstore\n  pop\n    /* \"contracts/VendingMachine.sol\":370:373  100 */\n  0x64\n    /* \"contracts/VendingMachine.sol\":340:352  donutBalance */\n  0x01\n    /* \"contracts/VendingMachine.sol\":340:367  donutBalance[address(this)] */\n  0x00\n    /* \"contracts/VendingMachine.sol\":361:365  this */\n  address\n    /* \"contracts/VendingMachine.sol\":340:367  donutBalance[address(this)] */\n  0xffffffffffffffffffffffffffffffffffffffff\n  and\n  0xffffffffffffffffffffffffffffffffffffffff\n  and\n  dup2\n  mstore\n  0x20\n  add\n  swap1\n  dup2\n  mstore\n  0x20\n  add\n  0x00\n  keccak256\n    /* \"contracts/VendingMachine.sol\":340:373  donutBalance[address(this)] = 100 */\n  dup2\n  swap1\n  sstore\n  pop\n    /* \"contracts/VendingMachine.sol\":61:1146  contract VendingMachine{... */\n  dataSize(sub_0)\n  dup1\n  dataOffset(sub_0)\n  0x00\n  codecopy\n  0x00\n  return\nstop\n\nsub_0: assembly {\n        /* \"contracts/VendingMachine.sol\":61:1146  contract VendingMachine{... */\n      mstore(0x40, 0x80)\n      jumpi(tag_1, lt(calldatasize, 0x04))\n      shr(0xe0, calldataload(0x00))\n      dup1\n      0x8da5cb5b\n      eq\n      tag_2\n      jumpi\n      dup1\n      0xb8368615\n      eq\n      tag_3\n      jumpi\n      dup1\n      0xc21a702a\n      eq\n      tag_4\n      jumpi\n      dup1\n      0xe7644d34\n      eq\n      tag_5\n      jumpi\n      dup1\n      0xefef39a1\n      eq\n      tag_6\n      jumpi\n    tag_1:\n      0x00\n      dup1\n      revert\n        /* \"contracts/VendingMachine.sol\":91:111  address public owner */\n    tag_2:\n      callvalue\n      dup1\n      iszero\n      tag_7\n      jumpi\n      0x00\n      dup1\n      revert\n    tag_7:\n      pop\n      tag_8\n      tag_9\n      jump\t// in\n    tag_8:\n      mload(0x40)\n      tag_10\n      swap2\n      swap1\n      tag_11\n      jump\t// in\n    tag_10:\n      mload(0x40)\n      dup1\n      swap2\n      sub\n      swap1\n      return\n        /* \"contracts/VendingMachine.sol\":1043:1143  function getThis() public view returns (address thisAddress) {... */\n    tag_3:\n      callvalue\n      dup1\n      iszero\n      tag_12\n      jumpi\n      0x00\n      dup1\n      revert\n    tag_12:\n      pop\n      tag_13\n      tag_14\n      jump\t// in\n    tag_13:\n      mload(0x40)\n      tag_15\n      swap2\n      swap1\n      tag_11\n      jump\t// in\n    tag_15:\n      mload(0x40)\n      dup1\n      swap2\n      sub\n      swap1\n      return\n        /* \"contracts/VendingMachine.sol\":513:688  function restock(uint amount) public {... */\n    tag_4:\n      callvalue\n      dup1\n      iszero\n      tag_16\n      jumpi\n      0x00\n      dup1\n      revert\n    tag_16:\n      pop\n      tag_17\n      0x04\n      dup1\n      calldatasize\n      sub\n      dup2\n      add\n      swap1\n      tag_18\n      swap2\n      swap1\n      tag_19\n      jump\t// in\n    tag_18:\n      tag_20\n      jump\t// in\n    tag_17:\n      stop\n        /* \"contracts/VendingMachine.sol\":389:505  function getVendingMachineBalance() public view returns (uint) {... */\n    tag_5:\n      callvalue\n      dup1\n      iszero\n      tag_21\n      jumpi\n      0x00\n      dup1\n      revert\n    tag_21:\n      pop\n      tag_22\n      tag_23\n      jump\t// in\n    tag_22:\n      mload(0x40)\n      tag_24\n      swap2\n      swap1\n      tag_25\n      jump\t// in\n    tag_24:\n      mload(0x40)\n      dup1\n      swap2\n      sub\n      swap1\n      return\n        /* \"contracts/VendingMachine.sol\":696:1035  function purchase(uint amount) public payable {... */\n    tag_6:\n      tag_26\n      0x04\n      dup1\n      calldatasize\n      sub\n      dup2\n      add\n      swap1\n      tag_27\n      swap2\n      swap1\n      tag_19\n      jump\t// in\n    tag_27:\n      tag_28\n      jump\t// in\n    tag_26:\n      stop\n        /* \"contracts/VendingMachine.sol\":91:111  address public owner */\n    tag_9:\n      0x00\n      dup1\n      sload\n      swap1\n      0x0100\n      exp\n      swap1\n      div\n      0xffffffffffffffffffffffffffffffffffffffff\n      and\n      dup2\n      jump\t// out\n        /* \"contracts/VendingMachine.sol\":1043:1143  function getThis() public view returns (address thisAddress) {... */\n    tag_14:\n        /* \"contracts/VendingMachine.sol\":1083:1102  address thisAddress */\n      0x00\n        /* \"contracts/VendingMachine.sol\":1130:1134  this */\n      address\n        /* \"contracts/VendingMachine.sol\":1115:1135  return address(this) */\n      swap1\n      pop\n        /* \"contracts/VendingMachine.sol\":1043:1143  function getThis() public view returns (address thisAddress) {... */\n      swap1\n      jump\t// out\n        /* \"contracts/VendingMachine.sol\":513:688  function restock(uint amount) public {... */\n    tag_20:\n        /* \"contracts/VendingMachine.sol\":578:588  msg.sender */\n      caller\n        /* \"contracts/VendingMachine.sol\":569:588  owner == msg.sender */\n      0xffffffffffffffffffffffffffffffffffffffff\n      and\n        /* \"contracts/VendingMachine.sol\":569:574  owner */\n      0x00\n      dup1\n      sload\n      swap1\n      0x0100\n      exp\n      swap1\n      div\n      0xffffffffffffffffffffffffffffffffffffffff\n      and\n        /* \"contracts/VendingMachine.sol\":569:588  owner == msg.sender */\n      0xffffffffffffffffffffffffffffffffffffffff\n      and\n      eq\n        /* \"contracts/VendingMachine.sol\":561:632  require(owner == msg.sender, \"You need to be an owner to refill stock\") */\n      tag_31\n      jumpi\n      mload(0x40)\n      0x08c379a000000000000000000000000000000000000000000000000000000000\n      dup2\n      mstore\n      0x04\n      add\n      tag_32\n      swap1\n      tag_33\n      jump\t// in\n    tag_32:\n      mload(0x40)\n      dup1\n      swap2\n      sub\n      swap1\n      revert\n    tag_31:\n        /* \"contracts/VendingMachine.sol\":674:680  amount */\n      dup1\n        /* \"contracts/VendingMachine.sol\":643:655  donutBalance */\n      0x01\n        /* \"contracts/VendingMachine.sol\":643:670  donutBalance[address(this)] */\n      0x00\n        /* \"contracts/VendingMachine.sol\":664:668  this */\n      address\n        /* \"contracts/VendingMachine.sol\":643:670  donutBalance[address(this)] */\n      0xffffffffffffffffffffffffffffffffffffffff\n      and\n      0xffffffffffffffffffffffffffffffffffffffff\n      and\n      dup2\n      mstore\n      0x20\n      add\n      swap1\n      dup2\n      mstore\n      0x20\n      add\n      0x00\n      keccak256\n      0x00\n        /* \"contracts/VendingMachine.sol\":643:680  donutBalance[address(this)] += amount */\n      dup3\n      dup3\n      sload\n      tag_34\n      swap2\n      swap1\n      tag_35\n      jump\t// in\n    tag_34:\n      swap3\n      pop\n      pop\n      dup2\n      swap1\n      sstore\n      pop\n        /* \"contracts/VendingMachine.sol\":513:688  function restock(uint amount) public {... */\n      pop\n      jump\t// out\n        /* \"contracts/VendingMachine.sol\":389:505  function getVendingMachineBalance() public view returns (uint) {... */\n    tag_23:\n        /* \"contracts/VendingMachine.sol\":446:450  uint */\n      0x00\n        /* \"contracts/VendingMachine.sol\":470:482  donutBalance */\n      0x01\n        /* \"contracts/VendingMachine.sol\":470:497  donutBalance[address(this)] */\n      0x00\n        /* \"contracts/VendingMachine.sol\":491:495  this */\n      address\n        /* \"contracts/VendingMachine.sol\":470:497  donutBalance[address(this)] */\n      0xffffffffffffffffffffffffffffffffffffffff\n      and\n      0xffffffffffffffffffffffffffffffffffffffff\n      and\n      dup2\n      mstore\n      0x20\n      add\n      swap1\n      dup2\n      mstore\n      0x20\n      add\n      0x00\n      keccak256\n      sload\n        /* \"contracts/VendingMachine.sol\":463:497  return donutBalance[address(this)] */\n      swap1\n      pop\n        /* \"contracts/VendingMachine.sol\":389:505  function getVendingMachineBalance() public view returns (uint) {... */\n      swap1\n      jump\t// out\n        /* \"contracts/VendingMachine.sol\":696:1035  function purchase(uint amount) public payable {... */\n    tag_28:\n        /* \"contracts/VendingMachine.sol\":792:798  amount */\n      dup1\n        /* \"contracts/VendingMachine.sol\":761:773  donutBalance */\n      0x01\n        /* \"contracts/VendingMachine.sol\":761:788  donutBalance[address(this)] */\n      0x00\n        /* \"contracts/VendingMachine.sol\":782:786  this */\n      address\n        /* \"contracts/VendingMachine.sol\":761:788  donutBalance[address(this)] */\n      0xffffffffffffffffffffffffffffffffffffffff\n      and\n      0xffffffffffffffffffffffffffffffffffffffff\n      and\n      dup2\n      mstore\n      0x20\n      add\n      swap1\n      dup2\n      mstore\n      0x20\n      add\n      0x00\n      keccak256\n      sload\n        /* \"contracts/VendingMachine.sol\":761:798  donutBalance[address(this)] >= amount */\n      lt\n      iszero\n        /* \"contracts/VendingMachine.sol\":753:834  require(donutBalance[address(this)] >= amount, \"Not enough donut in the machine\") */\n      tag_38\n      jumpi\n      mload(0x40)\n      0x08c379a000000000000000000000000000000000000000000000000000000000\n      dup2\n      mstore\n      0x04\n      add\n      tag_39\n      swap1\n      tag_40\n      jump\t// in\n    tag_39:\n      mload(0x40)\n      dup1\n      swap2\n      sub\n      swap1\n      revert\n    tag_38:\n        /* \"contracts/VendingMachine.sol\":875:882  2 ether */\n      0x1bc16d674ec80000\n        /* \"contracts/VendingMachine.sol\":866:872  amount */\n      dup2\n        /* \"contracts/VendingMachine.sol\":866:882  amount * 2 ether */\n      tag_41\n      swap2\n      swap1\n      tag_42\n      jump\t// in\n    tag_41:\n        /* \"contracts/VendingMachine.sol\":853:862  msg.value */\n      callvalue\n        /* \"contracts/VendingMachine.sol\":853:882  msg.value >= amount * 2 ether */\n      lt\n      iszero\n        /* \"contracts/VendingMachine.sol\":845:923  require(msg.value >= amount * 2 ether, \"Not enough ether for requested donut\") */\n      tag_43\n      jumpi\n      mload(0x40)\n      0x08c379a000000000000000000000000000000000000000000000000000000000\n      dup2\n      mstore\n      0x04\n      add\n      tag_44\n      swap1\n      tag_45\n      jump\t// in\n    tag_44:\n      mload(0x40)\n      dup1\n      swap2\n      sub\n      swap1\n      revert\n    tag_43:\n        /* \"contracts/VendingMachine.sol\":967:973  amount */\n      dup1\n        /* \"contracts/VendingMachine.sol\":936:948  donutBalance */\n      0x01\n        /* \"contracts/VendingMachine.sol\":936:963  donutBalance[address(this)] */\n      0x00\n        /* \"contracts/VendingMachine.sol\":957:961  this */\n      address\n        /* \"contracts/VendingMachine.sol\":936:963  donutBalance[address(this)] */\n      0xffffffffffffffffffffffffffffffffffffffff\n      and\n      0xffffffffffffffffffffffffffffffffffffffff\n      and\n      dup2\n      mstore\n      0x20\n      add\n      swap1\n      dup2\n      mstore\n      0x20\n      add\n      0x00\n      keccak256\n      0x00\n        /* \"contracts/VendingMachine.sol\":936:973  donutBalance[address(this)] -= amount */\n      dup3\n      dup3\n      sload\n      tag_46\n      swap2\n      swap1\n      tag_47\n      jump\t// in\n    tag_46:\n      swap3\n      pop\n      pop\n      dup2\n      swap1\n      sstore\n      pop\n        /* \"contracts/VendingMachine.sol\":1021:1027  amount */\n      dup1\n        /* \"contracts/VendingMachine.sol\":984:996  donutBalance */\n      0x01\n        /* \"contracts/VendingMachine.sol\":984:1017  donutBalance[address(msg.sender)] */\n      0x00\n        /* \"contracts/VendingMachine.sol\":1005:1015  msg.sender */\n      caller\n        /* \"contracts/VendingMachine.sol\":984:1017  donutBalance[address(msg.sender)] */\n      0xffffffffffffffffffffffffffffffffffffffff\n      and\n      0xffffffffffffffffffffffffffffffffffffffff\n      and\n      dup2\n      mstore\n      0x20\n      add\n      swap1\n      dup2\n      mstore\n      0x20\n      add\n      0x00\n      keccak256\n      0x00\n        /* \"contracts/VendingMachine.sol\":984:1027  donutBalance[address(msg.sender)] += amount */\n      dup3\n      dup3\n      sload\n      tag_48\n      swap2\n      swap1\n      tag_35\n      jump\t// in\n    tag_48:\n      swap3\n      pop\n      pop\n      dup2\n      swap1\n      sstore\n      pop\n        /* \"contracts/VendingMachine.sol\":696:1035  function purchase(uint amount) public payable {... */\n      pop\n      jump\t// out\n        /* \"#utility.yul\":7:133   */\n    tag_49:\n        /* \"#utility.yul\":44:51   */\n      0x00\n        /* \"#utility.yul\":84:126   */\n      0xffffffffffffffffffffffffffffffffffffffff\n        /* \"#utility.yul\":77:82   */\n      dup3\n        /* \"#utility.yul\":73:127   */\n      and\n        /* \"#utility.yul\":62:127   */\n      swap1\n      pop\n        /* \"#utility.yul\":7:133   */\n      swap2\n      swap1\n      pop\n      jump\t// out\n        /* \"#utility.yul\":139:235   */\n    tag_50:\n        /* \"#utility.yul\":176:183   */\n      0x00\n        /* \"#utility.yul\":205:229   */\n      tag_70\n        /* \"#utility.yul\":223:228   */\n      dup3\n        /* \"#utility.yul\":205:229   */\n      tag_49\n      jump\t// in\n    tag_70:\n        /* \"#utility.yul\":194:229   */\n      swap1\n      pop\n        /* \"#utility.yul\":139:235   */\n      swap2\n      swap1\n      pop\n      jump\t// out\n        /* \"#utility.yul\":241:359   */\n    tag_51:\n        /* \"#utility.yul\":328:352   */\n      tag_72\n        /* \"#utility.yul\":346:351   */\n      dup2\n        /* \"#utility.yul\":328:352   */\n      tag_50\n      jump\t// in\n    tag_72:\n        /* \"#utility.yul\":323:326   */\n      dup3\n        /* \"#utility.yul\":316:353   */\n      mstore\n        /* \"#utility.yul\":241:359   */\n      pop\n      pop\n      jump\t// out\n        /* \"#utility.yul\":365:587   */\n    tag_11:\n        /* \"#utility.yul\":458:462   */\n      0x00\n        /* \"#utility.yul\":496:498   */\n      0x20\n        /* \"#utility.yul\":485:494   */\n      dup3\n        /* \"#utility.yul\":481:499   */\n      add\n        /* \"#utility.yul\":473:499   */\n      swap1\n      pop\n        /* \"#utility.yul\":509:580   */\n      tag_74\n        /* \"#utility.yul\":577:578   */\n      0x00\n        /* \"#utility.yul\":566:575   */\n      dup4\n        /* \"#utility.yul\":562:579   */\n      add\n        /* \"#utility.yul\":553:559   */\n      dup5\n        /* \"#utility.yul\":509:580   */\n      tag_51\n      jump\t// in\n    tag_74:\n        /* \"#utility.yul\":365:587   */\n      swap3\n      swap2\n      pop\n      pop\n      jump\t// out\n        /* \"#utility.yul\":674:791   */\n    tag_53:\n        /* \"#utility.yul\":783:784   */\n      0x00\n        /* \"#utility.yul\":780:781   */\n      dup1\n        /* \"#utility.yul\":773:785   */\n      revert\n        /* \"#utility.yul\":920:997   */\n    tag_55:\n        /* \"#utility.yul\":957:964   */\n      0x00\n        /* \"#utility.yul\":986:991   */\n      dup2\n        /* \"#utility.yul\":975:991   */\n      swap1\n      pop\n        /* \"#utility.yul\":920:997   */\n      swap2\n      swap1\n      pop\n      jump\t// out\n        /* \"#utility.yul\":1003:1125   */\n    tag_56:\n        /* \"#utility.yul\":1076:1100   */\n      tag_80\n        /* \"#utility.yul\":1094:1099   */\n      dup2\n        /* \"#utility.yul\":1076:1100   */\n      tag_55\n      jump\t// in\n    tag_80:\n        /* \"#utility.yul\":1069:1074   */\n      dup2\n        /* \"#utility.yul\":1066:1101   */\n      eq\n        /* \"#utility.yul\":1056:1119   */\n      tag_81\n      jumpi\n        /* \"#utility.yul\":1115:1116   */\n      0x00\n        /* \"#utility.yul\":1112:1113   */\n      dup1\n        /* \"#utility.yul\":1105:1117   */\n      revert\n        /* \"#utility.yul\":1056:1119   */\n    tag_81:\n        /* \"#utility.yul\":1003:1125   */\n      pop\n      jump\t// out\n        /* \"#utility.yul\":1131:1270   */\n    tag_57:\n        /* \"#utility.yul\":1177:1182   */\n      0x00\n        /* \"#utility.yul\":1215:1221   */\n      dup2\n        /* \"#utility.yul\":1202:1222   */\n      calldataload\n        /* \"#utility.yul\":1193:1222   */\n      swap1\n      pop\n        /* \"#utility.yul\":1231:1264   */\n      tag_83\n        /* \"#utility.yul\":1258:1263   */\n      dup2\n        /* \"#utility.yul\":1231:1264   */\n      tag_56\n      jump\t// in\n    tag_83:\n        /* \"#utility.yul\":1131:1270   */\n      swap3\n      swap2\n      pop\n      pop\n      jump\t// out\n        /* \"#utility.yul\":1276:1605   */\n    tag_19:\n        /* \"#utility.yul\":1335:1341   */\n      0x00\n        /* \"#utility.yul\":1384:1386   */\n      0x20\n        /* \"#utility.yul\":1372:1381   */\n      dup3\n        /* \"#utility.yul\":1363:1370   */\n      dup5\n        /* \"#utility.yul\":1359:1382   */\n      sub\n        /* \"#utility.yul\":1355:1387   */\n      slt\n        /* \"#utility.yul\":1352:1471   */\n      iszero\n      tag_85\n      jumpi\n        /* \"#utility.yul\":1390:1469   */\n      tag_86\n      tag_53\n      jump\t// in\n    tag_86:\n        /* \"#utility.yul\":1352:1471   */\n    tag_85:\n        /* \"#utility.yul\":1510:1511   */\n      0x00\n        /* \"#utility.yul\":1535:1588   */\n      tag_87\n        /* \"#utility.yul\":1580:1587   */\n      dup5\n        /* \"#utility.yul\":1571:1577   */\n      dup3\n        /* \"#utility.yul\":1560:1569   */\n      dup6\n        /* \"#utility.yul\":1556:1578   */\n      add\n        /* \"#utility.yul\":1535:1588   */\n      tag_57\n      jump\t// in\n    tag_87:\n        /* \"#utility.yul\":1525:1588   */\n      swap2\n      pop\n        /* \"#utility.yul\":1481:1598   */\n      pop\n        /* \"#utility.yul\":1276:1605   */\n      swap3\n      swap2\n      pop\n      pop\n      jump\t// out\n        /* \"#utility.yul\":1611:1729   */\n    tag_58:\n        /* \"#utility.yul\":1698:1722   */\n      tag_89\n        /* \"#utility.yul\":1716:1721   */\n      dup2\n        /* \"#utility.yul\":1698:1722   */\n      tag_55\n      jump\t// in\n    tag_89:\n        /* \"#utility.yul\":1693:1696   */\n      dup3\n        /* \"#utility.yul\":1686:1723   */\n      mstore\n        /* \"#utility.yul\":1611:1729   */\n      pop\n      pop\n      jump\t// out\n        /* \"#utility.yul\":1735:1957   */\n    tag_25:\n        /* \"#utility.yul\":1828:1832   */\n      0x00\n        /* \"#utility.yul\":1866:1868   */\n      0x20\n        /* \"#utility.yul\":1855:1864   */\n      dup3\n        /* \"#utility.yul\":1851:1869   */\n      add\n        /* \"#utility.yul\":1843:1869   */\n      swap1\n      pop\n        /* \"#utility.yul\":1879:1950   */\n      tag_91\n        /* \"#utility.yul\":1947:1948   */\n      0x00\n        /* \"#utility.yul\":1936:1945   */\n      dup4\n        /* \"#utility.yul\":1932:1949   */\n      add\n        /* \"#utility.yul\":1923:1929   */\n      dup5\n        /* \"#utility.yul\":1879:1950   */\n      tag_58\n      jump\t// in\n    tag_91:\n        /* \"#utility.yul\":1735:1957   */\n      swap3\n      swap2\n      pop\n      pop\n      jump\t// out\n        /* \"#utility.yul\":1963:2132   */\n    tag_59:\n        /* \"#utility.yul\":2047:2058   */\n      0x00\n        /* \"#utility.yul\":2081:2087   */\n      dup3\n        /* \"#utility.yul\":2076:2079   */\n      dup3\n        /* \"#utility.yul\":2069:2088   */\n      mstore\n        /* \"#utility.yul\":2121:2125   */\n      0x20\n        /* \"#utility.yul\":2116:2119   */\n      dup3\n        /* \"#utility.yul\":2112:2126   */\n      add\n        /* \"#utility.yul\":2097:2126   */\n      swap1\n      pop\n        /* \"#utility.yul\":1963:2132   */\n      swap3\n      swap2\n      pop\n      pop\n      jump\t// out\n        /* \"#utility.yul\":2138:2364   */\n    tag_60:\n        /* \"#utility.yul\":2278:2312   */\n      0x596f75206e65656420746f20626520616e206f776e657220746f20726566696c\n        /* \"#utility.yul\":2274:2275   */\n      0x00\n        /* \"#utility.yul\":2266:2272   */\n      dup3\n        /* \"#utility.yul\":2262:2276   */\n      add\n        /* \"#utility.yul\":2255:2313   */\n      mstore\n        /* \"#utility.yul\":2347:2356   */\n      0x6c2073746f636b00000000000000000000000000000000000000000000000000\n        /* \"#utility.yul\":2342:2344   */\n      0x20\n        /* \"#utility.yul\":2334:2340   */\n      dup3\n        /* \"#utility.yul\":2330:2345   */\n      add\n        /* \"#utility.yul\":2323:2357   */\n      mstore\n        /* \"#utility.yul\":2138:2364   */\n      pop\n      jump\t// out\n        /* \"#utility.yul\":2370:2736   */\n    tag_61:\n        /* \"#utility.yul\":2512:2515   */\n      0x00\n        /* \"#utility.yul\":2533:2600   */\n      tag_95\n        /* \"#utility.yul\":2597:2599   */\n      0x27\n        /* \"#utility.yul\":2592:2595   */\n      dup4\n        /* \"#utility.yul\":2533:2600   */\n      tag_59\n      jump\t// in\n    tag_95:\n        /* \"#utility.yul\":2526:2600   */\n      swap2\n      pop\n        /* \"#utility.yul\":2609:2702   */\n      tag_96\n        /* \"#utility.yul\":2698:2701   */\n      dup3\n        /* \"#utility.yul\":2609:2702   */\n      tag_60\n      jump\t// in\n    tag_96:\n        /* \"#utility.yul\":2727:2729   */\n      0x40\n        /* \"#utility.yul\":2722:2725   */\n      dup3\n        /* \"#utility.yul\":2718:2730   */\n      add\n        /* \"#utility.yul\":2711:2730   */\n      swap1\n      pop\n        /* \"#utility.yul\":2370:2736   */\n      swap2\n      swap1\n      pop\n      jump\t// out\n        /* \"#utility.yul\":2742:3161   */\n    tag_33:\n        /* \"#utility.yul\":2908:2912   */\n      0x00\n        /* \"#utility.yul\":2946:2948   */\n      0x20\n        /* \"#utility.yul\":2935:2944   */\n      dup3\n        /* \"#utility.yul\":2931:2949   */\n      add\n        /* \"#utility.yul\":2923:2949   */\n      swap1\n      pop\n        /* \"#utility.yul\":2995:3004   */\n      dup2\n        /* \"#utility.yul\":2989:2993   */\n      dup2\n        /* \"#utility.yul\":2985:3005   */\n      sub\n        /* \"#utility.yul\":2981:2982   */\n      0x00\n        /* \"#utility.yul\":2970:2979   */\n      dup4\n        /* \"#utility.yul\":2966:2983   */\n      add\n        /* \"#utility.yul\":2959:3006   */\n      mstore\n        /* \"#utility.yul\":3023:3154   */\n      tag_98\n        /* \"#utility.yul\":3149:3153   */\n      dup2\n        /* \"#utility.yul\":3023:3154   */\n      tag_61\n      jump\t// in\n    tag_98:\n        /* \"#utility.yul\":3015:3154   */\n      swap1\n      pop\n        /* \"#utility.yul\":2742:3161   */\n      swap2\n      swap1\n      pop\n      jump\t// out\n        /* \"#utility.yul\":3167:3347   */\n    tag_62:\n        /* \"#utility.yul\":3215:3292   */\n      0x4e487b7100000000000000000000000000000000000000000000000000000000\n        /* \"#utility.yul\":3212:3213   */\n      0x00\n        /* \"#utility.yul\":3205:3293   */\n      mstore\n        /* \"#utility.yul\":3312:3316   */\n      0x11\n        /* \"#utility.yul\":3309:3310   */\n      0x04\n        /* \"#utility.yul\":3302:3317   */\n      mstore\n        /* \"#utility.yul\":3336:3340   */\n      0x24\n        /* \"#utility.yul\":3333:3334   */\n      0x00\n        /* \"#utility.yul\":3326:3341   */\n      revert\n        /* \"#utility.yul\":3353:3544   */\n    tag_35:\n        /* \"#utility.yul\":3393:3396   */\n      0x00\n        /* \"#utility.yul\":3412:3432   */\n      tag_101\n        /* \"#utility.yul\":3430:3431   */\n      dup3\n        /* \"#utility.yul\":3412:3432   */\n      tag_55\n      jump\t// in\n    tag_101:\n        /* \"#utility.yul\":3407:3432   */\n      swap2\n      pop\n        /* \"#utility.yul\":3446:3466   */\n      tag_102\n        /* \"#utility.yul\":3464:3465   */\n      dup4\n        /* \"#utility.yul\":3446:3466   */\n      tag_55\n      jump\t// in\n    tag_102:\n        /* \"#utility.yul\":3441:3466   */\n      swap3\n      pop\n        /* \"#utility.yul\":3489:3490   */\n      dup3\n        /* \"#utility.yul\":3486:3487   */\n      dup3\n        /* \"#utility.yul\":3482:3491   */\n      add\n        /* \"#utility.yul\":3475:3491   */\n      swap1\n      pop\n        /* \"#utility.yul\":3510:3513   */\n      dup1\n        /* \"#utility.yul\":3507:3508   */\n      dup3\n        /* \"#utility.yul\":3504:3514   */\n      gt\n        /* \"#utility.yul\":3501:3537   */\n      iszero\n      tag_103\n      jumpi\n        /* \"#utility.yul\":3517:3535   */\n      tag_104\n      tag_62\n      jump\t// in\n    tag_104:\n        /* \"#utility.yul\":3501:3537   */\n    tag_103:\n        /* \"#utility.yul\":3353:3544   */\n      swap3\n      swap2\n      pop\n      pop\n      jump\t// out\n        /* \"#utility.yul\":3550:3731   */\n    tag_63:\n        /* \"#utility.yul\":3690:3723   */\n      0x4e6f7420656e6f75676820646f6e757420696e20746865206d616368696e6500\n        /* \"#utility.yul\":3686:3687   */\n      0x00\n        /* \"#utility.yul\":3678:3684   */\n      dup3\n        /* \"#utility.yul\":3674:3688   */\n      add\n        /* \"#utility.yul\":3667:3724   */\n      mstore\n        /* \"#utility.yul\":3550:3731   */\n      pop\n      jump\t// out\n        /* \"#utility.yul\":3737:4103   */\n    tag_64:\n        /* \"#utility.yul\":3879:3882   */\n      0x00\n        /* \"#utility.yul\":3900:3967   */\n      tag_107\n        /* \"#utility.yul\":3964:3966   */\n      0x1f\n        /* \"#utility.yul\":3959:3962   */\n      dup4\n        /* \"#utility.yul\":3900:3967   */\n      tag_59\n      jump\t// in\n    tag_107:\n        /* \"#utility.yul\":3893:3967   */\n      swap2\n      pop\n        /* \"#utility.yul\":3976:4069   */\n      tag_108\n        /* \"#utility.yul\":4065:4068   */\n      dup3\n        /* \"#utility.yul\":3976:4069   */\n      tag_63\n      jump\t// in\n    tag_108:\n        /* \"#utility.yul\":4094:4096   */\n      0x20\n        /* \"#utility.yul\":4089:4092   */\n      dup3\n        /* \"#utility.yul\":4085:4097   */\n      add\n        /* \"#utility.yul\":4078:4097   */\n      swap1\n      pop\n        /* \"#utility.yul\":3737:4103   */\n      swap2\n      swap1\n      pop\n      jump\t// out\n        /* \"#utility.yul\":4109:4528   */\n    tag_40:\n        /* \"#utility.yul\":4275:4279   */\n      0x00\n        /* \"#utility.yul\":4313:4315   */\n      0x20\n        /* \"#utility.yul\":4302:4311   */\n      dup3\n        /* \"#utility.yul\":4298:4316   */\n      add\n        /* \"#utility.yul\":4290:4316   */\n      swap1\n      pop\n        /* \"#utility.yul\":4362:4371   */\n      dup2\n        /* \"#utility.yul\":4356:4360   */\n      dup2\n        /* \"#utility.yul\":4352:4372   */\n      sub\n        /* \"#utility.yul\":4348:4349   */\n      0x00\n        /* \"#utility.yul\":4337:4346   */\n      dup4\n        /* \"#utility.yul\":4333:4350   */\n      add\n        /* \"#utility.yul\":4326:4373   */\n      mstore\n        /* \"#utility.yul\":4390:4521   */\n      tag_110\n        /* \"#utility.yul\":4516:4520   */\n      dup2\n        /* \"#utility.yul\":4390:4521   */\n      tag_64\n      jump\t// in\n    tag_110:\n        /* \"#utility.yul\":4382:4521   */\n      swap1\n      pop\n        /* \"#utility.yul\":4109:4528   */\n      swap2\n      swap1\n      pop\n      jump\t// out\n        /* \"#utility.yul\":4534:4944   */\n    tag_42:\n        /* \"#utility.yul\":4574:4581   */\n      0x00\n        /* \"#utility.yul\":4597:4617   */\n      tag_112\n        /* \"#utility.yul\":4615:4616   */\n      dup3\n        /* \"#utility.yul\":4597:4617   */\n      tag_55\n      jump\t// in\n    tag_112:\n        /* \"#utility.yul\":4592:4617   */\n      swap2\n      pop\n        /* \"#utility.yul\":4631:4651   */\n      tag_113\n        /* \"#utility.yul\":4649:4650   */\n      dup4\n        /* \"#utility.yul\":4631:4651   */\n      tag_55\n      jump\t// in\n    tag_113:\n        /* \"#utility.yul\":4626:4651   */\n      swap3\n      pop\n        /* \"#utility.yul\":4686:4687   */\n      dup3\n        /* \"#utility.yul\":4683:4684   */\n      dup3\n        /* \"#utility.yul\":4679:4688   */\n      mul\n        /* \"#utility.yul\":4708:4738   */\n      tag_114\n        /* \"#utility.yul\":4726:4737   */\n      dup2\n        /* \"#utility.yul\":4708:4738   */\n      tag_55\n      jump\t// in\n    tag_114:\n        /* \"#utility.yul\":4697:4738   */\n      swap2\n      pop\n        /* \"#utility.yul\":4887:4888   */\n      dup3\n        /* \"#utility.yul\":4878:4885   */\n      dup3\n        /* \"#utility.yul\":4874:4889   */\n      div\n        /* \"#utility.yul\":4871:4872   */\n      dup5\n        /* \"#utility.yul\":4868:4890   */\n      eq\n        /* \"#utility.yul\":4848:4849   */\n      dup4\n        /* \"#utility.yul\":4841:4850   */\n      iszero\n        /* \"#utility.yul\":4821:4904   */\n      or\n        /* \"#utility.yul\":4798:4937   */\n      tag_115\n      jumpi\n        /* \"#utility.yul\":4917:4935   */\n      tag_116\n      tag_62\n      jump\t// in\n    tag_116:\n        /* \"#utility.yul\":4798:4937   */\n    tag_115:\n        /* \"#utility.yul\":4582:4944   */\n      pop\n        /* \"#utility.yul\":4534:4944   */\n      swap3\n      swap2\n      pop\n      pop\n      jump\t// out\n        /* \"#utility.yul\":4950:5173   */\n    tag_65:\n        /* \"#utility.yul\":5090:5124   */\n      0x4e6f7420656e6f75676820657468657220666f72207265717565737465642064\n        /* \"#utility.yul\":5086:5087   */\n      0x00\n        /* \"#utility.yul\":5078:5084   */\n      dup3\n        /* \"#utility.yul\":5074:5088   */\n      add\n        /* \"#utility.yul\":5067:5125   */\n      mstore\n        /* \"#utility.yul\":5159:5165   */\n      0x6f6e757400000000000000000000000000000000000000000000000000000000\n        /* \"#utility.yul\":5154:5156   */\n      0x20\n        /* \"#utility.yul\":5146:5152   */\n      dup3\n        /* \"#utility.yul\":5142:5157   */\n      add\n        /* \"#utility.yul\":5135:5166   */\n      mstore\n        /* \"#utility.yul\":4950:5173   */\n      pop\n      jump\t// out\n        /* \"#utility.yul\":5179:5545   */\n    tag_66:\n        /* \"#utility.yul\":5321:5324   */\n      0x00\n        /* \"#utility.yul\":5342:5409   */\n      tag_119\n        /* \"#utility.yul\":5406:5408   */\n      0x24\n        /* \"#utility.yul\":5401:5404   */\n      dup4\n        /* \"#utility.yul\":5342:5409   */\n      tag_59\n      jump\t// in\n    tag_119:\n        /* \"#utility.yul\":5335:5409   */\n      swap2\n      pop\n        /* \"#utility.yul\":5418:5511   */\n      tag_120\n        /* \"#utility.yul\":5507:5510   */\n      dup3\n        /* \"#utility.yul\":5418:5511   */\n      tag_65\n      jump\t// in\n    tag_120:\n        /* \"#utility.yul\":5536:5538   */\n      0x40\n        /* \"#utility.yul\":5531:5534   */\n      dup3\n        /* \"#utility.yul\":5527:5539   */\n      add\n        /* \"#utility.yul\":5520:5539   */\n      swap1\n      pop\n        /* \"#utility.yul\":5179:5545   */\n      swap2\n      swap1\n      pop\n      jump\t// out\n        /* \"#utility.yul\":5551:5970   */\n    tag_45:\n        /* \"#utility.yul\":5717:5721   */\n      0x00\n        /* \"#utility.yul\":5755:5757   */\n      0x20\n        /* \"#utility.yul\":5744:5753   */\n      dup3\n        /* \"#utility.yul\":5740:5758   */\n      add\n        /* \"#utility.yul\":5732:5758   */\n      swap1\n      pop\n        /* \"#utility.yul\":5804:5813   */\n      dup2\n        /* \"#utility.yul\":5798:5802   */\n      dup2\n        /* \"#utility.yul\":5794:5814   */\n      sub\n        /* \"#utility.yul\":5790:5791   */\n      0x00\n        /* \"#utility.yul\":5779:5788   */\n      dup4\n        /* \"#utility.yul\":5775:5792   */\n      add\n        /* \"#utility.yul\":5768:5815   */\n      mstore\n        /* \"#utility.yul\":5832:5963   */\n      tag_122\n        /* \"#utility.yul\":5958:5962   */\n      dup2\n        /* \"#utility.yul\":5832:5963   */\n      tag_66\n      jump\t// in\n    tag_122:\n        /* \"#utility.yul\":5824:5963   */\n      swap1\n      pop\n        /* \"#utility.yul\":5551:5970   */\n      swap2\n      swap1\n      pop\n      jump\t// out\n        /* \"#utility.yul\":5976:6170   */\n    tag_47:\n        /* \"#utility.yul\":6016:6020   */\n      0x00\n        /* \"#utility.yul\":6036:6056   */\n      tag_124\n        /* \"#utility.yul\":6054:6055   */\n      dup3\n        /* \"#utility.yul\":6036:6056   */\n      tag_55\n      jump\t// in\n    tag_124:\n        /* \"#utility.yul\":6031:6056   */\n      swap2\n      pop\n        /* \"#utility.yul\":6070:6090   */\n      tag_125\n        /* \"#utility.yul\":6088:6089   */\n      dup4\n        /* \"#utility.yul\":6070:6090   */\n      tag_55\n      jump\t// in\n    tag_125:\n        /* \"#utility.yul\":6065:6090   */\n      swap3\n      pop\n        /* \"#utility.yul\":6114:6115   */\n      dup3\n        /* \"#utility.yul\":6111:6112   */\n      dup3\n        /* \"#utility.yul\":6107:6116   */\n      sub\n        /* \"#utility.yul\":6099:6116   */\n      swap1\n      pop\n        /* \"#utility.yul\":6138:6139   */\n      dup2\n        /* \"#utility.yul\":6132:6136   */\n      dup2\n        /* \"#utility.yul\":6129:6140   */\n      gt\n        /* \"#utility.yul\":6126:6163   */\n      iszero\n      tag_126\n      jumpi\n        /* \"#utility.yul\":6143:6161   */\n      tag_127\n      tag_62\n      jump\t// in\n    tag_127:\n        /* \"#utility.yul\":6126:6163   */\n    tag_126:\n        /* \"#utility.yul\":5976:6170   */\n      swap3\n      swap2\n      pop\n      pop\n      jump\t// out\n\n    auxdata: 0xa26469706673582212200e450044c2e6f1444f484cb139cb5e4b939c1e5acda4bc065cda617dc391964964736f6c63430008160033\n}\n",
				"bytecode": {
					"linkReferences": {},
					"object": "608060405234801561000f575f80fd5b50335f806101000a81548173ffffffffffffffffffffffffffffffffffffffff021916908373ffffffffffffffffffffffffffffffffffffffff160217905550606460015f3073ffffffffffffffffffffffffffffffffffffffff1673ffffffffffffffffffffffffffffffffffffffff1681526020019081526020015f208190555061075f8061009f5f395ff3fe608060405260043610610049575f3560e01c80638da5cb5b1461004d578063b836861514610077578063c21a702a146100a1578063e7644d34146100c9578063efef39a1146100f3575b5f80fd5b348015610058575f80fd5b5061006161010f565b60405161006e919061041e565b60405180910390f35b348015610082575f80fd5b5061008b610132565b604051610098919061041e565b60405180910390f35b3480156100ac575f80fd5b506100c760048036038101906100c2919061046e565b610139565b005b3480156100d4575f80fd5b506100dd61021c565b6040516100ea91906104a8565b60405180910390f35b61010d6004803603810190610108919061046e565b610260565b005b5f8054906101000a900473ffffffffffffffffffffffffffffffffffffffff1681565b5f30905090565b3373ffffffffffffffffffffffffffffffffffffffff165f8054906101000a900473ffffffffffffffffffffffffffffffffffffffff1673ffffffffffffffffffffffffffffffffffffffff16146101c6576040517f08c379a00000000000000000000000000000000000000000000000000000000081526004016101bd90610541565b60405180910390fd5b8060015f3073ffffffffffffffffffffffffffffffffffffffff1673ffffffffffffffffffffffffffffffffffffffff1681526020019081526020015f205f828254610212919061058c565b9250508190555050565b5f60015f3073ffffffffffffffffffffffffffffffffffffffff1673ffffffffffffffffffffffffffffffffffffffff1681526020019081526020015f2054905090565b8060015f3073ffffffffffffffffffffffffffffffffffffffff1673ffffffffffffffffffffffffffffffffffffffff1681526020019081526020015f205410156102e0576040517f08c379a00000000000000000000000000000000000000000000000000000000081526004016102d790610609565b60405180910390fd5b671bc16d674ec80000816102f49190610627565b341015610336576040517f08c379a000000000000000000000000000000000000000000000000000000000815260040161032d906106d8565b60405180910390fd5b8060015f3073ffffffffffffffffffffffffffffffffffffffff1673ffffffffffffffffffffffffffffffffffffffff1681526020019081526020015f205f82825461038291906106f6565b925050819055508060015f3373ffffffffffffffffffffffffffffffffffffffff1673ffffffffffffffffffffffffffffffffffffffff1681526020019081526020015f205f8282546103d5919061058c565b9250508190555050565b5f73ffffffffffffffffffffffffffffffffffffffff82169050919050565b5f610408826103df565b9050919050565b610418816103fe565b82525050565b5f6020820190506104315f83018461040f565b92915050565b5f80fd5b5f819050919050565b61044d8161043b565b8114610457575f80fd5b50565b5f8135905061046881610444565b92915050565b5f6020828403121561048357610482610437565b5b5f6104908482850161045a565b91505092915050565b6104a28161043b565b82525050565b5f6020820190506104bb5f830184610499565b92915050565b5f82825260208201905092915050565b7f596f75206e65656420746f20626520616e206f776e657220746f20726566696c5f8201527f6c2073746f636b00000000000000000000000000000000000000000000000000602082015250565b5f61052b6027836104c1565b9150610536826104d1565b604082019050919050565b5f6020820190508181035f8301526105588161051f565b9050919050565b7f4e487b71000000000000000000000000000000000000000000000000000000005f52601160045260245ffd5b5f6105968261043b565b91506105a18361043b565b92508282019050808211156105b9576105b861055f565b5b92915050565b7f4e6f7420656e6f75676820646f6e757420696e20746865206d616368696e65005f82015250565b5f6105f3601f836104c1565b91506105fe826105bf565b602082019050919050565b5f6020820190508181035f830152610620816105e7565b9050919050565b5f6106318261043b565b915061063c8361043b565b925082820261064a8161043b565b915082820484148315176106615761066061055f565b5b5092915050565b7f4e6f7420656e6f75676820657468657220666f722072657175657374656420645f8201527f6f6e757400000000000000000000000000000000000000000000000000000000602082015250565b5f6106c26024836104c1565b91506106cd82610668565b604082019050919050565b5f6020820190508181035f8301526106ef816106b6565b9050919050565b5f6107008261043b565b915061070b8361043b565b92508282039050818111156107235761072261055f565b5b9291505056fea26469706673582212200e450044c2e6f1444f484cb139cb5e4b939c1e5acda4bc065cda617dc391964964736f6c63430008160033",
					"opcodes": "PUSH1 0x80 PUSH1 0x40 MSTORE CALLVALUE DUP1 ISZERO PUSH2 0xF JUMPI PUSH0 DUP1 REVERT JUMPDEST POP CALLER PUSH0 DUP1 PUSH2 0x100 EXP DUP2 SLOAD DUP2 PUSH20 0xFFFFFFFFFFFFFFFFFFFFFFFFFFFFFFFFFFFFFFFF MUL NOT AND SWAP1 DUP4 PUSH20 0xFFFFFFFFFFFFFFFFFFFFFFFFFFFFFFFFFFFFFFFF AND MUL OR SWAP1 SSTORE POP PUSH1 0x64 PUSH1 0x1 PUSH0 ADDRESS PUSH20 0xFFFFFFFFFFFFFFFFFFFFFFFFFFFFFFFFFFFFFFFF AND PUSH20 0xFFFFFFFFFFFFFFFFFFFFFFFFFFFFFFFFFFFFFFFF AND DUP2 MSTORE PUSH1 0x20 ADD SWAP1 DUP2 MSTORE PUSH1 0x20 ADD PUSH0 KECCAK256 DUP2 SWAP1 SSTORE POP PUSH2 0x75F DUP1 PUSH2 0x9F PUSH0 CODECOPY PUSH0 RETURN INVALID PUSH1 0x80 PUSH1 0x40 MSTORE PUSH1 0x4 CALLDATASIZE LT PUSH2 0x49 JUMPI PUSH0 CALLDATALOAD PUSH1 0xE0 SHR DUP1 PUSH4 0x8DA5CB5B EQ PUSH2 0x4D JUMPI DUP1 PUSH4 0xB8368615 EQ PUSH2 0x77 JUMPI DUP1 PUSH4 0xC21A702A EQ PUSH2 0xA1 JUMPI DUP1 PUSH4 0xE7644D34 EQ PUSH2 0xC9 JUMPI DUP1 PUSH4 0xEFEF39A1 EQ PUSH2 0xF3 JUMPI JUMPDEST PUSH0 DUP1 REVERT JUMPDEST CALLVALUE DUP1 ISZERO PUSH2 0x58 JUMPI PUSH0 DUP1 REVERT JUMPDEST POP PUSH2 0x61 PUSH2 0x10F JUMP JUMPDEST PUSH1 0x40 MLOAD PUSH2 0x6E SWAP2 SWAP1 PUSH2 0x41E JUMP JUMPDEST PUSH1 0x40 MLOAD DUP1 SWAP2 SUB SWAP1 RETURN JUMPDEST CALLVALUE DUP1 ISZERO PUSH2 0x82 JUMPI PUSH0 DUP1 REVERT JUMPDEST POP PUSH2 0x8B PUSH2 0x132 JUMP JUMPDEST PUSH1 0x40 MLOAD PUSH2 0x98 SWAP2 SWAP1 PUSH2 0x41E JUMP JUMPDEST PUSH1 0x40 MLOAD DUP1 SWAP2 SUB SWAP1 RETURN JUMPDEST CALLVALUE DUP1 ISZERO PUSH2 0xAC JUMPI PUSH0 DUP1 REVERT JUMPDEST POP PUSH2 0xC7 PUSH1 0x4 DUP1 CALLDATASIZE SUB DUP2 ADD SWAP1 PUSH2 0xC2 SWAP2 SWAP1 PUSH2 0x46E JUMP JUMPDEST PUSH2 0x139 JUMP JUMPDEST STOP JUMPDEST CALLVALUE DUP1 ISZERO PUSH2 0xD4 JUMPI PUSH0 DUP1 REVERT JUMPDEST POP PUSH2 0xDD PUSH2 0x21C JUMP JUMPDEST PUSH1 0x40 MLOAD PUSH2 0xEA SWAP2 SWAP1 PUSH2 0x4A8 JUMP JUMPDEST PUSH1 0x40 MLOAD DUP1 SWAP2 SUB SWAP1 RETURN JUMPDEST PUSH2 0x10D PUSH1 0x4 DUP1 CALLDATASIZE SUB DUP2 ADD SWAP1 PUSH2 0x108 SWAP2 SWAP1 PUSH2 0x46E JUMP JUMPDEST PUSH2 0x260 JUMP JUMPDEST STOP JUMPDEST PUSH0 DUP1 SLOAD SWAP1 PUSH2 0x100 EXP SWAP1 DIV PUSH20 0xFFFFFFFFFFFFFFFFFFFFFFFFFFFFFFFFFFFFFFFF AND DUP2 JUMP JUMPDEST PUSH0 ADDRESS SWAP1 POP SWAP1 JUMP JUMPDEST CALLER PUSH20 0xFFFFFFFFFFFFFFFFFFFFFFFFFFFFFFFFFFFFFFFF AND PUSH0 DUP1 SLOAD SWAP1 PUSH2 0x100 EXP SWAP1 DIV PUSH20 0xFFFFFFFFFFFFFFFFFFFFFFFFFFFFFFFFFFFFFFFF AND PUSH20 0xFFFFFFFFFFFFFFFFFFFFFFFFFFFFFFFFFFFFFFFF AND EQ PUSH2 0x1C6 JUMPI PUSH1 0x40 MLOAD PUSH32 0x8C379A000000000000000000000000000000000000000000000000000000000 DUP2 MSTORE PUSH1 0x4 ADD PUSH2 0x1BD SWAP1 PUSH2 0x541 JUMP JUMPDEST PUSH1 0x40 MLOAD DUP1 SWAP2 SUB SWAP1 REVERT JUMPDEST DUP1 PUSH1 0x1 PUSH0 ADDRESS PUSH20 0xFFFFFFFFFFFFFFFFFFFFFFFFFFFFFFFFFFFFFFFF AND PUSH20 0xFFFFFFFFFFFFFFFFFFFFFFFFFFFFFFFFFFFFFFFF AND DUP2 MSTORE PUSH1 0x20 ADD SWAP1 DUP2 MSTORE PUSH1 0x20 ADD PUSH0 KECCAK256 PUSH0 DUP3 DUP3 SLOAD PUSH2 0x212 SWAP2 SWAP1 PUSH2 0x58C JUMP JUMPDEST SWAP3 POP POP DUP2 SWAP1 SSTORE POP POP JUMP JUMPDEST PUSH0 PUSH1 0x1 PUSH0 ADDRESS PUSH20 0xFFFFFFFFFFFFFFFFFFFFFFFFFFFFFFFFFFFFFFFF AND PUSH20 0xFFFFFFFFFFFFFFFFFFFFFFFFFFFFFFFFFFFFFFFF AND DUP2 MSTORE PUSH1 0x20 ADD SWAP1 DUP2 MSTORE PUSH1 0x20 ADD PUSH0 KECCAK256 SLOAD SWAP1 POP SWAP1 JUMP JUMPDEST DUP1 PUSH1 0x1 PUSH0 ADDRESS PUSH20 0xFFFFFFFFFFFFFFFFFFFFFFFFFFFFFFFFFFFFFFFF AND PUSH20 0xFFFFFFFFFFFFFFFFFFFFFFFFFFFFFFFFFFFFFFFF AND DUP2 MSTORE PUSH1 0x20 ADD SWAP1 DUP2 MSTORE PUSH1 0x20 ADD PUSH0 KECCAK256 SLOAD LT ISZERO PUSH2 0x2E0 JUMPI PUSH1 0x40 MLOAD PUSH32 0x8C379A000000000000000000000000000000000000000000000000000000000 DUP2 MSTORE PUSH1 0x4 ADD PUSH2 0x2D7 SWAP1 PUSH2 0x609 JUMP JUMPDEST PUSH1 0x40 MLOAD DUP1 SWAP2 SUB SWAP1 REVERT JUMPDEST PUSH8 0x1BC16D674EC80000 DUP2 PUSH2 0x2F4 SWAP2 SWAP1 PUSH2 0x627 JUMP JUMPDEST CALLVALUE LT ISZERO PUSH2 0x336 JUMPI PUSH1 0x40 MLOAD PUSH32 0x8C379A000000000000000000000000000000000000000000000000000000000 DUP2 MSTORE PUSH1 0x4 ADD PUSH2 0x32D SWAP1 PUSH2 0x6D8 JUMP JUMPDEST PUSH1 0x40 MLOAD DUP1 SWAP2 SUB SWAP1 REVERT JUMPDEST DUP1 PUSH1 0x1 PUSH0 ADDRESS PUSH20 0xFFFFFFFFFFFFFFFFFFFFFFFFFFFFFFFFFFFFFFFF AND PUSH20 0xFFFFFFFFFFFFFFFFFFFFFFFFFFFFFFFFFFFFFFFF AND DUP2 MSTORE PUSH1 0x20 ADD SWAP1 DUP2 MSTORE PUSH1 0x20 ADD PUSH0 KECCAK256 PUSH0 DUP3 DUP3 SLOAD PUSH2 0x382 SWAP2 SWAP1 PUSH2 0x6F6 JUMP JUMPDEST SWAP3 POP POP DUP2 SWAP1 SSTORE POP DUP1 PUSH1 0x1 PUSH0 CALLER PUSH20 0xFFFFFFFFFFFFFFFFFFFFFFFFFFFFFFFFFFFFFFFF AND PUSH20 0xFFFFFFFFFFFFFFFFFFFFFFFFFFFFFFFFFFFFFFFF AND DUP2 MSTORE PUSH1 0x20 ADD SWAP1 DUP2 MSTORE PUSH1 0x20 ADD PUSH0 KECCAK256 PUSH0 DUP3 DUP3 SLOAD PUSH2 0x3D5 SWAP2 SWAP1 PUSH2 0x58C JUMP JUMPDEST SWAP3 POP POP DUP2 SWAP1 SSTORE POP POP JUMP JUMPDEST PUSH0 PUSH20 0xFFFFFFFFFFFFFFFFFFFFFFFFFFFFFFFFFFFFFFFF DUP3 AND SWAP1 POP SWAP2 SWAP1 POP JUMP JUMPDEST PUSH0 PUSH2 0x408 DUP3 PUSH2 0x3DF JUMP JUMPDEST SWAP1 POP SWAP2 SWAP1 POP JUMP JUMPDEST PUSH2 0x418 DUP2 PUSH2 0x3FE JUMP JUMPDEST DUP3 MSTORE POP POP JUMP JUMPDEST PUSH0 PUSH1 0x20 DUP3 ADD SWAP1 POP PUSH2 0x431 PUSH0 DUP4 ADD DUP5 PUSH2 0x40F JUMP JUMPDEST SWAP3 SWAP2 POP POP JUMP JUMPDEST PUSH0 DUP1 REVERT JUMPDEST PUSH0 DUP2 SWAP1 POP SWAP2 SWAP1 POP JUMP JUMPDEST PUSH2 0x44D DUP2 PUSH2 0x43B JUMP JUMPDEST DUP2 EQ PUSH2 0x457 JUMPI PUSH0 DUP1 REVERT JUMPDEST POP JUMP JUMPDEST PUSH0 DUP2 CALLDATALOAD SWAP1 POP PUSH2 0x468 DUP2 PUSH2 0x444 JUMP JUMPDEST SWAP3 SWAP2 POP POP JUMP JUMPDEST PUSH0 PUSH1 0x20 DUP3 DUP5 SUB SLT ISZERO PUSH2 0x483 JUMPI PUSH2 0x482 PUSH2 0x437 JUMP JUMPDEST JUMPDEST PUSH0 PUSH2 0x490 DUP5 DUP3 DUP6 ADD PUSH2 0x45A JUMP JUMPDEST SWAP2 POP POP SWAP3 SWAP2 POP POP JUMP JUMPDEST PUSH2 0x4A2 DUP2 PUSH2 0x43B JUMP JUMPDEST DUP3 MSTORE POP POP JUMP JUMPDEST PUSH0 PUSH1 0x20 DUP3 ADD SWAP1 POP PUSH2 0x4BB PUSH0 DUP4 ADD DUP5 PUSH2 0x499 JUMP JUMPDEST SWAP3 SWAP2 POP POP JUMP JUMPDEST PUSH0 DUP3 DUP3 MSTORE PUSH1 0x20 DUP3 ADD SWAP1 POP SWAP3 SWAP2 POP POP JUMP JUMPDEST PUSH32 0x596F75206E65656420746F20626520616E206F776E657220746F20726566696C PUSH0 DUP3 ADD MSTORE PUSH32 0x6C2073746F636B00000000000000000000000000000000000000000000000000 PUSH1 0x20 DUP3 ADD MSTORE POP JUMP JUMPDEST PUSH0 PUSH2 0x52B PUSH1 0x27 DUP4 PUSH2 0x4C1 JUMP JUMPDEST SWAP2 POP PUSH2 0x536 DUP3 PUSH2 0x4D1 JUMP JUMPDEST PUSH1 0x40 DUP3 ADD SWAP1 POP SWAP2 SWAP1 POP JUMP JUMPDEST PUSH0 PUSH1 0x20 DUP3 ADD SWAP1 POP DUP2 DUP2 SUB PUSH0 DUP4 ADD MSTORE PUSH2 0x558 DUP2 PUSH2 0x51F JUMP JUMPDEST SWAP1 POP SWAP2 SWAP1 POP JUMP JUMPDEST PUSH32 0x4E487B7100000000000000000000000000000000000000000000000000000000 PUSH0 MSTORE PUSH1 0x11 PUSH1 0x4 MSTORE PUSH1 0x24 PUSH0 REVERT JUMPDEST PUSH0 PUSH2 0x596 DUP3 PUSH2 0x43B JUMP JUMPDEST SWAP2 POP PUSH2 0x5A1 DUP4 PUSH2 0x43B JUMP JUMPDEST SWAP3 POP DUP3 DUP3 ADD SWAP1 POP DUP1 DUP3 GT ISZERO PUSH2 0x5B9 JUMPI PUSH2 0x5B8 PUSH2 0x55F JUMP JUMPDEST JUMPDEST SWAP3 SWAP2 POP POP JUMP JUMPDEST PUSH32 0x4E6F7420656E6F75676820646F6E757420696E20746865206D616368696E6500 PUSH0 DUP3 ADD MSTORE POP JUMP JUMPDEST PUSH0 PUSH2 0x5F3 PUSH1 0x1F DUP4 PUSH2 0x4C1 JUMP JUMPDEST SWAP2 POP PUSH2 0x5FE DUP3 PUSH2 0x5BF JUMP JUMPDEST PUSH1 0x20 DUP3 ADD SWAP1 POP SWAP2 SWAP1 POP JUMP JUMPDEST PUSH0 PUSH1 0x20 DUP3 ADD SWAP1 POP DUP2 DUP2 SUB PUSH0 DUP4 ADD MSTORE PUSH2 0x620 DUP2 PUSH2 0x5E7 JUMP JUMPDEST SWAP1 POP SWAP2 SWAP1 POP JUMP JUMPDEST PUSH0 PUSH2 0x631 DUP3 PUSH2 0x43B JUMP JUMPDEST SWAP2 POP PUSH2 0x63C DUP4 PUSH2 0x43B JUMP JUMPDEST SWAP3 POP DUP3 DUP3 MUL PUSH2 0x64A DUP2 PUSH2 0x43B JUMP JUMPDEST SWAP2 POP DUP3 DUP3 DIV DUP5 EQ DUP4 ISZERO OR PUSH2 0x661 JUMPI PUSH2 0x660 PUSH2 0x55F JUMP JUMPDEST JUMPDEST POP SWAP3 SWAP2 POP POP JUMP JUMPDEST PUSH32 0x4E6F7420656E6F75676820657468657220666F72207265717565737465642064 PUSH0 DUP3 ADD MSTORE PUSH32 0x6F6E757400000000000000000000000000000000000000000000000000000000 PUSH1 0x20 DUP3 ADD MSTORE POP JUMP JUMPDEST PUSH0 PUSH2 0x6C2 PUSH1 0x24 DUP4 PUSH2 0x4C1 JUMP JUMPDEST SWAP2 POP PUSH2 0x6CD DUP3 PUSH2 0x668 JUMP JUMPDEST PUSH1 0x40 DUP3 ADD SWAP1 POP SWAP2 SWAP1 POP JUMP JUMPDEST PUSH0 PUSH1 0x20 DUP3 ADD SWAP1 POP DUP2 DUP2 SUB PUSH0 DUP4 ADD MSTORE PUSH2 0x6EF DUP2 PUSH2 0x6B6 JUMP JUMPDEST SWAP1 POP SWAP2 SWAP1 POP JUMP JUMPDEST PUSH0 PUSH2 0x700 DUP3 PUSH2 0x43B JUMP JUMPDEST SWAP2 POP PUSH2 0x70B DUP4 PUSH2 0x43B JUMP JUMPDEST SWAP3 POP DUP3 DUP3 SUB SWAP1 POP DUP2 DUP2 GT ISZERO PUSH2 0x723 JUMPI PUSH2 0x722 PUSH2 0x55F JUMP JUMPDEST JUMPDEST SWAP3 SWAP2 POP POP JUMP INVALID LOG2 PUSH5 0x6970667358 0x22 SLT KECCAK256 0xE GASLIMIT STOP PREVRANDAO 0xC2 0xE6 CALL PREVRANDAO 0x4F BASEFEE 0x4C 0xB1 CODECOPY 0xCB 0x5E 0x4B SWAP4 SWAP13 0x1E GAS 0xCD LOG4 0xBC MOD 0x5C 0xDA PUSH2 0x7DC3 SWAP2 SWAP7 0x49 PUSH5 0x736F6C6343 STOP ADDMOD AND STOP CALLER "
				},
				"gasEstimates": {
					"creation": {
						"codeDepositCost": "377400",
						"executionCost": "46875",
						"totalCost": "424275"
					},
					"external": {
						"getThis()": "379",
						"getVendingMachineBalance()": "2563",
						"owner()": "2483",
						"purchase(uint256)": "infinite",
						"restock(uint256)": "infinite"
					}
				},
				"methodIdentifiers": {
					"getThis()": "b8368615",
					"getVendingMachineBalance()": "e7644d34",
					"owner()": "8da5cb5b",
					"purchase(uint256)": "efef39a1",
					"restock(uint256)": "c21a702a"
				}
			},
			"storageLayout": {
				"storage": [
					{
						"astId": 3,
						"contract": "contracts/VendingMachine.sol:VendingMachine",
						"label": "owner",
						"offset": 0,
						"slot": "0",
						"type": "t_address"
					},
					{
						"astId": 7,
						"contract": "contracts/VendingMachine.sol:VendingMachine",
						"label": "donutBalance",
						"offset": 0,
						"slot": "1",
						"type": "t_mapping(t_address,t_uint256)"
					}
				],
				"types": {
					"t_address": {
						"encoding": "inplace",
						"label": "address",
						"numberOfBytes": "20"
					},
					"t_mapping(t_address,t_uint256)": {
						"encoding": "mapping",
						"key": "t_address",
						"label": "mapping(address => uint256)",
						"numberOfBytes": "32",
						"value": "t_uint256"
					},
					"t_uint256": {
						"encoding": "inplace",
						"label": "uint256",
						"numberOfBytes": "32"
					}
				}
			},
			"userdoc": {
				"kind": "user",
				"methods": {},
				"version": 1
			}
		}
	}
}