{
	"contracts/Loan.sol": {
		"Loan": {
			"abi": [
				{
					"inputs": [
						{
							"internalType": "uint256",
							"name": "collateralOver",
							"type": "uint256"
						}
					],
					"name": "loan",
					"outputs": [],
					"stateMutability": "payable",
					"type": "function"
				},
				{
					"inputs": [],
					"name": "repayLoan",
					"outputs": [],
					"stateMutability": "payable",
					"type": "function"
				}
			],
			"devdoc": {
				"kind": "dev",
				"methods": {},
				"version": 1
			},
			"evm": {
				"assembly": "    /* \"contracts/Loan.sol\":146:1957  contract Loan {... */\n  mstore(0x40, 0x80)\n  callvalue\n  dup1\n  iszero\n  tag_1\n  jumpi\n  0x00\n  dup1\n  revert\ntag_1:\n  pop\n  dataSize(sub_0)\n  dup1\n  dataOffset(sub_0)\n  0x00\n  codecopy\n  0x00\n  return\nstop\n\nsub_0: assembly {\n        /* \"contracts/Loan.sol\":146:1957  contract Loan {... */\n      mstore(0x40, 0x80)\n      jumpi(tag_1, lt(calldatasize, 0x04))\n      shr(0xe0, calldataload(0x00))\n      dup1\n      0x365a5306\n      eq\n      tag_2\n      jumpi\n      dup1\n      0xf966ade7\n      eq\n      tag_3\n      jumpi\n    tag_1:\n      0x00\n      dup1\n      revert\n        /* \"contracts/Loan.sol\":410:1090  function loan(uint collateralOver) public payable{... */\n    tag_2:\n      tag_4\n      0x04\n      dup1\n      calldatasize\n      sub\n      dup2\n      add\n      swap1\n      tag_5\n      swap2\n      swap1\n      tag_6\n      jump\t// in\n    tag_5:\n      tag_7\n      jump\t// in\n    tag_4:\n      stop\n        /* \"contracts/Loan.sol\":1098:1533  function repayLoan() external payable{... */\n    tag_3:\n      tag_8\n      tag_9\n      jump\t// in\n    tag_8:\n      stop\n        /* \"contracts/Loan.sol\":410:1090  function loan(uint collateralOver) public payable{... */\n    tag_7:\n        /* \"contracts/Loan.sol\":521:526  false */\n      0x00\n        /* \"contracts/Loan.sol\":478:526  _collateralAsset[msg.sender].cannotLoan == false */\n      iszero\n      iszero\n        /* \"contracts/Loan.sol\":478:494  _collateralAsset */\n      0x00\n        /* \"contracts/Loan.sol\":478:506  _collateralAsset[msg.sender] */\n      dup1\n        /* \"contracts/Loan.sol\":495:505  msg.sender */\n      caller\n        /* \"contracts/Loan.sol\":478:506  _collateralAsset[msg.sender] */\n      0xffffffffffffffffffffffffffffffffffffffff\n      and\n      0xffffffffffffffffffffffffffffffffffffffff\n      and\n      dup2\n      mstore\n      0x20\n      add\n      swap1\n      dup2\n      mstore\n      0x20\n      add\n      0x00\n      keccak256\n        /* \"contracts/Loan.sol\":478:517  _collateralAsset[msg.sender].cannotLoan */\n      0x02\n      add\n      0x00\n      swap1\n      sload\n      swap1\n      0x0100\n      exp\n      swap1\n      div\n      0xff\n      and\n        /* \"contracts/Loan.sol\":478:526  _collateralAsset[msg.sender].cannotLoan == false */\n      iszero\n      iszero\n      eq\n        /* \"contracts/Loan.sol\":470:573  require(_collateralAsset[msg.sender].cannotLoan == false, \"you must be return asset that borrow first\") */\n      tag_11\n      jumpi\n      mload(0x40)\n      0x08c379a000000000000000000000000000000000000000000000000000000000\n      dup2\n      mstore\n      0x04\n      add\n      tag_12\n      swap1\n      tag_13\n      jump\t// in\n    tag_12:\n      mload(0x40)\n      dup1\n      swap2\n      sub\n      swap1\n      revert\n    tag_11:\n        /* \"contracts/Loan.sol\":610:613  150 */\n      0x96\n        /* \"contracts/Loan.sol\":592:606  collateralOver */\n      dup2\n        /* \"contracts/Loan.sol\":592:613  collateralOver >= 150 */\n      lt\n      iszero\n        /* \"contracts/Loan.sol\":592:638  collateralOver >= 150 && collateralOver <= 300 */\n      dup1\n      iszero\n      tag_14\n      jumpi\n      pop\n        /* \"contracts/Loan.sol\":635:638  300 */\n      0x012c\n        /* \"contracts/Loan.sol\":617:631  collateralOver */\n      dup2\n        /* \"contracts/Loan.sol\":617:638  collateralOver <= 300 */\n      gt\n      iszero\n        /* \"contracts/Loan.sol\":592:638  collateralOver >= 150 && collateralOver <= 300 */\n    tag_14:\n        /* \"contracts/Loan.sol\":584:683  require(collateralOver >= 150 && collateralOver <= 300, \"require collateral between 150 and 300%.\") */\n      tag_15\n      jumpi\n      mload(0x40)\n      0x08c379a000000000000000000000000000000000000000000000000000000000\n      dup2\n      mstore\n      0x04\n      add\n      tag_16\n      swap1\n      tag_17\n      jump\t// in\n    tag_16:\n      mload(0x40)\n      dup1\n      swap2\n      sub\n      swap1\n      revert\n    tag_15:\n        /* \"contracts/Loan.sol\":715:733  100000000000000000 */\n      0x016345785d8a0000\n        /* \"contracts/Loan.sol\":702:711  msg.value */\n      callvalue\n        /* \"contracts/Loan.sol\":702:733  msg.value >= 100000000000000000 */\n      lt\n      iszero\n        /* \"contracts/Loan.sol\":694:771  require(msg.value >= 100000000000000000, \"Ether must greater than equal 0.1\") */\n      tag_18\n      jumpi\n      mload(0x40)\n      0x08c379a000000000000000000000000000000000000000000000000000000000\n      dup2\n      mstore\n      0x04\n      add\n      tag_19\n      swap1\n      tag_20\n      jump\t// in\n    tag_19:\n      mload(0x40)\n      dup1\n      swap2\n      sub\n      swap1\n      revert\n    tag_18:\n        /* \"contracts/Loan.sol\":815:870  collateral(msg.value, 100*(10**2)/collateralOver, true) */\n      mload(0x40)\n      dup1\n      0x60\n      add\n      0x40\n      mstore\n      dup1\n        /* \"contracts/Loan.sol\":826:835  msg.value */\n      callvalue\n        /* \"contracts/Loan.sol\":815:870  collateral(msg.value, 100*(10**2)/collateralOver, true) */\n      dup2\n      mstore\n      0x20\n      add\n        /* \"contracts/Loan.sol\":849:863  collateralOver */\n      dup3\n        /* \"contracts/Loan.sol\":837:848  100*(10**2) */\n      0x2710\n        /* \"contracts/Loan.sol\":837:863  100*(10**2)/collateralOver */\n      tag_21\n      swap2\n      swap1\n      tag_22\n      jump\t// in\n    tag_21:\n        /* \"contracts/Loan.sol\":815:870  collateral(msg.value, 100*(10**2)/collateralOver, true) */\n      dup2\n      mstore\n      0x20\n      add\n        /* \"contracts/Loan.sol\":865:869  true */\n      0x01\n        /* \"contracts/Loan.sol\":815:870  collateral(msg.value, 100*(10**2)/collateralOver, true) */\n      iszero\n      iszero\n      dup2\n      mstore\n      pop\n        /* \"contracts/Loan.sol\":784:800  _collateralAsset */\n      0x00\n        /* \"contracts/Loan.sol\":784:812  _collateralAsset[msg.sender] */\n      dup1\n        /* \"contracts/Loan.sol\":801:811  msg.sender */\n      caller\n        /* \"contracts/Loan.sol\":784:812  _collateralAsset[msg.sender] */\n      0xffffffffffffffffffffffffffffffffffffffff\n      and\n      0xffffffffffffffffffffffffffffffffffffffff\n      and\n      dup2\n      mstore\n      0x20\n      add\n      swap1\n      dup2\n      mstore\n      0x20\n      add\n      0x00\n      keccak256\n        /* \"contracts/Loan.sol\":784:870  _collateralAsset[msg.sender] = collateral(msg.value, 100*(10**2)/collateralOver, true) */\n      0x00\n      dup3\n      add\n      mload\n      dup2\n      0x00\n      add\n      sstore\n      0x20\n      dup3\n      add\n      mload\n      dup2\n      0x01\n      add\n      sstore\n      0x40\n      dup3\n      add\n      mload\n      dup2\n      0x02\n      add\n      exp(0x0100, 0x00)\n      dup2\n      sload\n      dup2\n      0xff\n      mul\n      not\n      and\n      swap1\n      dup4\n      iszero\n      iszero\n      mul\n      or\n      swap1\n      sstore\n      pop\n      swap1\n      pop\n      pop\n        /* \"contracts/Loan.sol\":881:896  uint loanAmount */\n      0x00\n        /* \"contracts/Loan.sol\":977:982  10**2 */\n      0x64\n        /* \"contracts/Loan.sol\":938:954  _collateralAsset */\n      0x00\n        /* \"contracts/Loan.sol\":938:966  _collateralAsset[msg.sender] */\n      dup1\n        /* \"contracts/Loan.sol\":955:965  msg.sender */\n      caller\n        /* \"contracts/Loan.sol\":938:966  _collateralAsset[msg.sender] */\n      0xffffffffffffffffffffffffffffffffffffffff\n      and\n      0xffffffffffffffffffffffffffffffffffffffff\n      and\n      dup2\n      mstore\n      0x20\n      add\n      swap1\n      dup2\n      mstore\n      0x20\n      add\n      0x00\n      keccak256\n        /* \"contracts/Loan.sol\":938:972  _collateralAsset[msg.sender].ratio */\n      0x01\n      add\n      sload\n        /* \"contracts/Loan.sol\":900:916  _collateralAsset */\n      0x00\n        /* \"contracts/Loan.sol\":900:928  _collateralAsset[msg.sender] */\n      dup1\n        /* \"contracts/Loan.sol\":917:927  msg.sender */\n      caller\n        /* \"contracts/Loan.sol\":900:928  _collateralAsset[msg.sender] */\n      0xffffffffffffffffffffffffffffffffffffffff\n      and\n      0xffffffffffffffffffffffffffffffffffffffff\n      and\n      dup2\n      mstore\n      0x20\n      add\n      swap1\n      dup2\n      mstore\n      0x20\n      add\n      0x00\n      keccak256\n        /* \"contracts/Loan.sol\":900:935  _collateralAsset[msg.sender].amount */\n      0x00\n      add\n      sload\n        /* \"contracts/Loan.sol\":900:972  _collateralAsset[msg.sender].amount * _collateralAsset[msg.sender].ratio */\n      tag_23\n      swap2\n      swap1\n      tag_24\n      jump\t// in\n    tag_23:\n        /* \"contracts/Loan.sol\":899:983  (_collateralAsset[msg.sender].amount * _collateralAsset[msg.sender].ratio) / (10**2) */\n      tag_25\n      swap2\n      swap1\n      tag_22\n      jump\t// in\n    tag_25:\n        /* \"contracts/Loan.sol\":881:983  uint loanAmount = (_collateralAsset[msg.sender].amount * _collateralAsset[msg.sender].ratio) / (10**2) */\n      swap1\n      pop\n        /* \"contracts/Loan.sol\":1014:1024  loanAmount */\n      dup1\n        /* \"contracts/Loan.sol\":994:999  _loan */\n      0x01\n        /* \"contracts/Loan.sol\":994:1011  _loan[msg.sender] */\n      0x00\n        /* \"contracts/Loan.sol\":1000:1010  msg.sender */\n      caller\n        /* \"contracts/Loan.sol\":994:1011  _loan[msg.sender] */\n      0xffffffffffffffffffffffffffffffffffffffff\n      and\n      0xffffffffffffffffffffffffffffffffffffffff\n      and\n      dup2\n      mstore\n      0x20\n      add\n      swap1\n      dup2\n      mstore\n      0x20\n      add\n      0x00\n      keccak256\n        /* \"contracts/Loan.sol\":994:1024  _loan[msg.sender] = loanAmount */\n      dup2\n      swap1\n      sstore\n      pop\n        /* \"contracts/Loan.sol\":1043:1053  msg.sender */\n      caller\n        /* \"contracts/Loan.sol\":1035:1063  payable(msg.sender).transfer */\n      0xffffffffffffffffffffffffffffffffffffffff\n      and\n        /* \"contracts/Loan.sol\":1035:1082  payable(msg.sender).transfer(_loan[msg.sender]) */\n      0x08fc\n        /* \"contracts/Loan.sol\":1064:1069  _loan */\n      0x01\n        /* \"contracts/Loan.sol\":1064:1081  _loan[msg.sender] */\n      0x00\n        /* \"contracts/Loan.sol\":1070:1080  msg.sender */\n      caller\n        /* \"contracts/Loan.sol\":1064:1081  _loan[msg.sender] */\n      0xffffffffffffffffffffffffffffffffffffffff\n      and\n      0xffffffffffffffffffffffffffffffffffffffff\n      and\n      dup2\n      mstore\n      0x20\n      add\n      swap1\n      dup2\n      mstore\n      0x20\n      add\n      0x00\n      keccak256\n      sload\n        /* \"contracts/Loan.sol\":1035:1082  payable(msg.sender).transfer(_loan[msg.sender]) */\n      swap1\n      dup2\n      iszero\n      mul\n      swap1\n      mload(0x40)\n      0x00\n      mload(0x40)\n      dup1\n      dup4\n      sub\n      dup2\n      dup6\n      dup9\n      dup9\n      call\n      swap4\n      pop\n      pop\n      pop\n      pop\n      iszero\n      dup1\n      iszero\n      tag_27\n      jumpi\n      returndatasize\n      0x00\n      dup1\n      returndatacopy\n      revert(0x00, returndatasize)\n    tag_27:\n      pop\n        /* \"contracts/Loan.sol\":459:1090  {... */\n      pop\n        /* \"contracts/Loan.sol\":410:1090  function loan(uint collateralOver) public payable{... */\n      pop\n      jump\t// out\n        /* \"contracts/Loan.sol\":1098:1533  function repayLoan() external payable{... */\n    tag_9:\n        /* \"contracts/Loan.sol\":1175:1184  msg.value */\n      callvalue\n        /* \"contracts/Loan.sol\":1154:1159  _loan */\n      0x01\n        /* \"contracts/Loan.sol\":1154:1171  _loan[msg.sender] */\n      0x00\n        /* \"contracts/Loan.sol\":1160:1170  msg.sender */\n      caller\n        /* \"contracts/Loan.sol\":1154:1171  _loan[msg.sender] */\n      0xffffffffffffffffffffffffffffffffffffffff\n      and\n      0xffffffffffffffffffffffffffffffffffffffff\n      and\n      dup2\n      mstore\n      0x20\n      add\n      swap1\n      dup2\n      mstore\n      0x20\n      add\n      0x00\n      keccak256\n      sload\n        /* \"contracts/Loan.sol\":1154:1184  _loan[msg.sender] == msg.value */\n      eq\n        /* \"contracts/Loan.sol\":1146:1229  require(_loan[msg.sender] == msg.value, \"Repayment amount must be equal your loan\") */\n      tag_29\n      jumpi\n      mload(0x40)\n      0x08c379a000000000000000000000000000000000000000000000000000000000\n      dup2\n      mstore\n      0x04\n      add\n      tag_30\n      swap1\n      tag_31\n      jump\t// in\n    tag_30:\n      mload(0x40)\n      dup1\n      swap2\n      sub\n      swap1\n      revert\n    tag_29:\n        /* \"contracts/Loan.sol\":1250:1260  msg.sender */\n      caller\n        /* \"contracts/Loan.sol\":1242:1270  payable(msg.sender).transfer */\n      0xffffffffffffffffffffffffffffffffffffffff\n      and\n        /* \"contracts/Loan.sol\":1242:1307  payable(msg.sender).transfer(_collateralAsset[msg.sender].amount) */\n      0x08fc\n        /* \"contracts/Loan.sol\":1271:1287  _collateralAsset */\n      0x00\n        /* \"contracts/Loan.sol\":1271:1299  _collateralAsset[msg.sender] */\n      dup1\n        /* \"contracts/Loan.sol\":1288:1298  msg.sender */\n      caller\n        /* \"contracts/Loan.sol\":1271:1299  _collateralAsset[msg.sender] */\n      0xffffffffffffffffffffffffffffffffffffffff\n      and\n      0xffffffffffffffffffffffffffffffffffffffff\n      and\n      dup2\n      mstore\n      0x20\n      add\n      swap1\n      dup2\n      mstore\n      0x20\n      add\n      0x00\n      keccak256\n        /* \"contracts/Loan.sol\":1271:1306  _collateralAsset[msg.sender].amount */\n      0x00\n      add\n      sload\n        /* \"contracts/Loan.sol\":1242:1307  payable(msg.sender).transfer(_collateralAsset[msg.sender].amount) */\n      swap1\n      dup2\n      iszero\n      mul\n      swap1\n      mload(0x40)\n      0x00\n      mload(0x40)\n      dup1\n      dup4\n      sub\n      dup2\n      dup6\n      dup9\n      dup9\n      call\n      swap4\n      pop\n      pop\n      pop\n      pop\n      iszero\n      dup1\n      iszero\n      tag_33\n      jumpi\n      returndatasize\n      0x00\n      dup1\n      returndatacopy\n      revert(0x00, returndatasize)\n    tag_33:\n      pop\n        /* \"contracts/Loan.sol\":1356:1357  0 */\n      0x00\n        /* \"contracts/Loan.sol\":1318:1334  _collateralAsset */\n      dup1\n        /* \"contracts/Loan.sol\":1318:1346  _collateralAsset[msg.sender] */\n      0x00\n        /* \"contracts/Loan.sol\":1335:1345  msg.sender */\n      caller\n        /* \"contracts/Loan.sol\":1318:1346  _collateralAsset[msg.sender] */\n      0xffffffffffffffffffffffffffffffffffffffff\n      and\n      0xffffffffffffffffffffffffffffffffffffffff\n      and\n      dup2\n      mstore\n      0x20\n      add\n      swap1\n      dup2\n      mstore\n      0x20\n      add\n      0x00\n      keccak256\n        /* \"contracts/Loan.sol\":1318:1353  _collateralAsset[msg.sender].amount */\n      0x00\n      add\n        /* \"contracts/Loan.sol\":1318:1357  _collateralAsset[msg.sender].amount = 0 */\n      dup2\n      swap1\n      sstore\n      pop\n        /* \"contracts/Loan.sol\":1405:1406  0 */\n      0x00\n        /* \"contracts/Loan.sol\":1368:1384  _collateralAsset */\n      dup1\n        /* \"contracts/Loan.sol\":1368:1396  _collateralAsset[msg.sender] */\n      0x00\n        /* \"contracts/Loan.sol\":1385:1395  msg.sender */\n      caller\n        /* \"contracts/Loan.sol\":1368:1396  _collateralAsset[msg.sender] */\n      0xffffffffffffffffffffffffffffffffffffffff\n      and\n      0xffffffffffffffffffffffffffffffffffffffff\n      and\n      dup2\n      mstore\n      0x20\n      add\n      swap1\n      dup2\n      mstore\n      0x20\n      add\n      0x00\n      keccak256\n        /* \"contracts/Loan.sol\":1368:1402  _collateralAsset[msg.sender].ratio */\n      0x01\n      add\n        /* \"contracts/Loan.sol\":1368:1406  _collateralAsset[msg.sender].ratio = 0 */\n      dup2\n      swap1\n      sstore\n      pop\n        /* \"contracts/Loan.sol\":1459:1464  false */\n      0x00\n        /* \"contracts/Loan.sol\":1417:1433  _collateralAsset */\n      dup1\n        /* \"contracts/Loan.sol\":1417:1445  _collateralAsset[msg.sender] */\n      0x00\n        /* \"contracts/Loan.sol\":1434:1444  msg.sender */\n      caller\n        /* \"contracts/Loan.sol\":1417:1445  _collateralAsset[msg.sender] */\n      0xffffffffffffffffffffffffffffffffffffffff\n      and\n      0xffffffffffffffffffffffffffffffffffffffff\n      and\n      dup2\n      mstore\n      0x20\n      add\n      swap1\n      dup2\n      mstore\n      0x20\n      add\n      0x00\n      keccak256\n        /* \"contracts/Loan.sol\":1417:1456  _collateralAsset[msg.sender].cannotLoan */\n      0x02\n      add\n      0x00\n        /* \"contracts/Loan.sol\":1417:1464  _collateralAsset[msg.sender].cannotLoan = false */\n      0x0100\n      exp\n      dup2\n      sload\n      dup2\n      0xff\n      mul\n      not\n      and\n      swap1\n      dup4\n      iszero\n      iszero\n      mul\n      or\n      swap1\n      sstore\n      pop\n        /* \"contracts/Loan.sol\":1098:1533  function repayLoan() external payable{... */\n      jump\t// out\n        /* \"#utility.yul\":88:205   */\n    tag_35:\n        /* \"#utility.yul\":197:198   */\n      0x00\n        /* \"#utility.yul\":194:195   */\n      dup1\n        /* \"#utility.yul\":187:199   */\n      revert\n        /* \"#utility.yul\":334:411   */\n    tag_37:\n        /* \"#utility.yul\":371:378   */\n      0x00\n        /* \"#utility.yul\":400:405   */\n      dup2\n        /* \"#utility.yul\":389:405   */\n      swap1\n      pop\n        /* \"#utility.yul\":334:411   */\n      swap2\n      swap1\n      pop\n      jump\t// out\n        /* \"#utility.yul\":417:539   */\n    tag_38:\n        /* \"#utility.yul\":490:514   */\n      tag_57\n        /* \"#utility.yul\":508:513   */\n      dup2\n        /* \"#utility.yul\":490:514   */\n      tag_37\n      jump\t// in\n    tag_57:\n        /* \"#utility.yul\":483:488   */\n      dup2\n        /* \"#utility.yul\":480:515   */\n      eq\n        /* \"#utility.yul\":470:533   */\n      tag_58\n      jumpi\n        /* \"#utility.yul\":529:530   */\n      0x00\n        /* \"#utility.yul\":526:527   */\n      dup1\n        /* \"#utility.yul\":519:531   */\n      revert\n        /* \"#utility.yul\":470:533   */\n    tag_58:\n        /* \"#utility.yul\":417:539   */\n      pop\n      jump\t// out\n        /* \"#utility.yul\":545:684   */\n    tag_39:\n        /* \"#utility.yul\":591:596   */\n      0x00\n        /* \"#utility.yul\":629:635   */\n      dup2\n        /* \"#utility.yul\":616:636   */\n      calldataload\n        /* \"#utility.yul\":607:636   */\n      swap1\n      pop\n        /* \"#utility.yul\":645:678   */\n      tag_60\n        /* \"#utility.yul\":672:677   */\n      dup2\n        /* \"#utility.yul\":645:678   */\n      tag_38\n      jump\t// in\n    tag_60:\n        /* \"#utility.yul\":545:684   */\n      swap3\n      swap2\n      pop\n      pop\n      jump\t// out\n        /* \"#utility.yul\":690:1019   */\n    tag_6:\n        /* \"#utility.yul\":749:755   */\n      0x00\n        /* \"#utility.yul\":798:800   */\n      0x20\n        /* \"#utility.yul\":786:795   */\n      dup3\n        /* \"#utility.yul\":777:784   */\n      dup5\n        /* \"#utility.yul\":773:796   */\n      sub\n        /* \"#utility.yul\":769:801   */\n      slt\n        /* \"#utility.yul\":766:885   */\n      iszero\n      tag_62\n      jumpi\n        /* \"#utility.yul\":804:883   */\n      tag_63\n      tag_35\n      jump\t// in\n    tag_63:\n        /* \"#utility.yul\":766:885   */\n    tag_62:\n        /* \"#utility.yul\":924:925   */\n      0x00\n        /* \"#utility.yul\":949:1002   */\n      tag_64\n        /* \"#utility.yul\":994:1001   */\n      dup5\n        /* \"#utility.yul\":985:991   */\n      dup3\n        /* \"#utility.yul\":974:983   */\n      dup6\n        /* \"#utility.yul\":970:992   */\n      add\n        /* \"#utility.yul\":949:1002   */\n      tag_39\n      jump\t// in\n    tag_64:\n        /* \"#utility.yul\":939:1002   */\n      swap2\n      pop\n        /* \"#utility.yul\":895:1012   */\n      pop\n        /* \"#utility.yul\":690:1019   */\n      swap3\n      swap2\n      pop\n      pop\n      jump\t// out\n        /* \"#utility.yul\":1025:1194   */\n    tag_40:\n        /* \"#utility.yul\":1109:1120   */\n      0x00\n        /* \"#utility.yul\":1143:1149   */\n      dup3\n        /* \"#utility.yul\":1138:1141   */\n      dup3\n        /* \"#utility.yul\":1131:1150   */\n      mstore\n        /* \"#utility.yul\":1183:1187   */\n      0x20\n        /* \"#utility.yul\":1178:1181   */\n      dup3\n        /* \"#utility.yul\":1174:1188   */\n      add\n        /* \"#utility.yul\":1159:1188   */\n      swap1\n      pop\n        /* \"#utility.yul\":1025:1194   */\n      swap3\n      swap2\n      pop\n      pop\n      jump\t// out\n        /* \"#utility.yul\":1200:1429   */\n    tag_41:\n        /* \"#utility.yul\":1340:1374   */\n      0x796f75206d7573742062652072657475726e206173736574207468617420626f\n        /* \"#utility.yul\":1336:1337   */\n      0x00\n        /* \"#utility.yul\":1328:1334   */\n      dup3\n        /* \"#utility.yul\":1324:1338   */\n      add\n        /* \"#utility.yul\":1317:1375   */\n      mstore\n        /* \"#utility.yul\":1409:1421   */\n      0x72726f7720666972737400000000000000000000000000000000000000000000\n        /* \"#utility.yul\":1404:1406   */\n      0x20\n        /* \"#utility.yul\":1396:1402   */\n      dup3\n        /* \"#utility.yul\":1392:1407   */\n      add\n        /* \"#utility.yul\":1385:1422   */\n      mstore\n        /* \"#utility.yul\":1200:1429   */\n      pop\n      jump\t// out\n        /* \"#utility.yul\":1435:1801   */\n    tag_42:\n        /* \"#utility.yul\":1577:1580   */\n      0x00\n        /* \"#utility.yul\":1598:1665   */\n      tag_68\n        /* \"#utility.yul\":1662:1664   */\n      0x2a\n        /* \"#utility.yul\":1657:1660   */\n      dup4\n        /* \"#utility.yul\":1598:1665   */\n      tag_40\n      jump\t// in\n    tag_68:\n        /* \"#utility.yul\":1591:1665   */\n      swap2\n      pop\n        /* \"#utility.yul\":1674:1767   */\n      tag_69\n        /* \"#utility.yul\":1763:1766   */\n      dup3\n        /* \"#utility.yul\":1674:1767   */\n      tag_41\n      jump\t// in\n    tag_69:\n        /* \"#utility.yul\":1792:1794   */\n      0x40\n        /* \"#utility.yul\":1787:1790   */\n      dup3\n        /* \"#utility.yul\":1783:1795   */\n      add\n        /* \"#utility.yul\":1776:1795   */\n      swap1\n      pop\n        /* \"#utility.yul\":1435:1801   */\n      swap2\n      swap1\n      pop\n      jump\t// out\n        /* \"#utility.yul\":1807:2226   */\n    tag_13:\n        /* \"#utility.yul\":1973:1977   */\n      0x00\n        /* \"#utility.yul\":2011:2013   */\n      0x20\n        /* \"#utility.yul\":2000:2009   */\n      dup3\n        /* \"#utility.yul\":1996:2014   */\n      add\n        /* \"#utility.yul\":1988:2014   */\n      swap1\n      pop\n        /* \"#utility.yul\":2060:2069   */\n      dup2\n        /* \"#utility.yul\":2054:2058   */\n      dup2\n        /* \"#utility.yul\":2050:2070   */\n      sub\n        /* \"#utility.yul\":2046:2047   */\n      0x00\n        /* \"#utility.yul\":2035:2044   */\n      dup4\n        /* \"#utility.yul\":2031:2048   */\n      add\n        /* \"#utility.yul\":2024:2071   */\n      mstore\n        /* \"#utility.yul\":2088:2219   */\n      tag_71\n        /* \"#utility.yul\":2214:2218   */\n      dup2\n        /* \"#utility.yul\":2088:2219   */\n      tag_42\n      jump\t// in\n    tag_71:\n        /* \"#utility.yul\":2080:2219   */\n      swap1\n      pop\n        /* \"#utility.yul\":1807:2226   */\n      swap2\n      swap1\n      pop\n      jump\t// out\n        /* \"#utility.yul\":2232:2459   */\n    tag_43:\n        /* \"#utility.yul\":2372:2406   */\n      0x7265717569726520636f6c6c61746572616c206265747765656e203135302061\n        /* \"#utility.yul\":2368:2369   */\n      0x00\n        /* \"#utility.yul\":2360:2366   */\n      dup3\n        /* \"#utility.yul\":2356:2370   */\n      add\n        /* \"#utility.yul\":2349:2407   */\n      mstore\n        /* \"#utility.yul\":2441:2451   */\n      0x6e6420333030252e000000000000000000000000000000000000000000000000\n        /* \"#utility.yul\":2436:2438   */\n      0x20\n        /* \"#utility.yul\":2428:2434   */\n      dup3\n        /* \"#utility.yul\":2424:2439   */\n      add\n        /* \"#utility.yul\":2417:2452   */\n      mstore\n        /* \"#utility.yul\":2232:2459   */\n      pop\n      jump\t// out\n        /* \"#utility.yul\":2465:2831   */\n    tag_44:\n        /* \"#utility.yul\":2607:2610   */\n      0x00\n        /* \"#utility.yul\":2628:2695   */\n      tag_74\n        /* \"#utility.yul\":2692:2694   */\n      0x28\n        /* \"#utility.yul\":2687:2690   */\n      dup4\n        /* \"#utility.yul\":2628:2695   */\n      tag_40\n      jump\t// in\n    tag_74:\n        /* \"#utility.yul\":2621:2695   */\n      swap2\n      pop\n        /* \"#utility.yul\":2704:2797   */\n      tag_75\n        /* \"#utility.yul\":2793:2796   */\n      dup3\n        /* \"#utility.yul\":2704:2797   */\n      tag_43\n      jump\t// in\n    tag_75:\n        /* \"#utility.yul\":2822:2824   */\n      0x40\n        /* \"#utility.yul\":2817:2820   */\n      dup3\n        /* \"#utility.yul\":2813:2825   */\n      add\n        /* \"#utility.yul\":2806:2825   */\n      swap1\n      pop\n        /* \"#utility.yul\":2465:2831   */\n      swap2\n      swap1\n      pop\n      jump\t// out\n        /* \"#utility.yul\":2837:3256   */\n    tag_17:\n        /* \"#utility.yul\":3003:3007   */\n      0x00\n        /* \"#utility.yul\":3041:3043   */\n      0x20\n        /* \"#utility.yul\":3030:3039   */\n      dup3\n        /* \"#utility.yul\":3026:3044   */\n      add\n        /* \"#utility.yul\":3018:3044   */\n      swap1\n      pop\n        /* \"#utility.yul\":3090:3099   */\n      dup2\n        /* \"#utility.yul\":3084:3088   */\n      dup2\n        /* \"#utility.yul\":3080:3100   */\n      sub\n        /* \"#utility.yul\":3076:3077   */\n      0x00\n        /* \"#utility.yul\":3065:3074   */\n      dup4\n        /* \"#utility.yul\":3061:3078   */\n      add\n        /* \"#utility.yul\":3054:3101   */\n      mstore\n        /* \"#utility.yul\":3118:3249   */\n      tag_77\n        /* \"#utility.yul\":3244:3248   */\n      dup2\n        /* \"#utility.yul\":3118:3249   */\n      tag_44\n      jump\t// in\n    tag_77:\n        /* \"#utility.yul\":3110:3249   */\n      swap1\n      pop\n        /* \"#utility.yul\":2837:3256   */\n      swap2\n      swap1\n      pop\n      jump\t// out\n        /* \"#utility.yul\":3262:3482   */\n    tag_45:\n        /* \"#utility.yul\":3402:3436   */\n      0x4574686572206d7573742067726561746572207468616e20657175616c20302e\n        /* \"#utility.yul\":3398:3399   */\n      0x00\n        /* \"#utility.yul\":3390:3396   */\n      dup3\n        /* \"#utility.yul\":3386:3400   */\n      add\n        /* \"#utility.yul\":3379:3437   */\n      mstore\n        /* \"#utility.yul\":3471:3474   */\n      0x3100000000000000000000000000000000000000000000000000000000000000\n        /* \"#utility.yul\":3466:3468   */\n      0x20\n        /* \"#utility.yul\":3458:3464   */\n      dup3\n        /* \"#utility.yul\":3454:3469   */\n      add\n        /* \"#utility.yul\":3447:3475   */\n      mstore\n        /* \"#utility.yul\":3262:3482   */\n      pop\n      jump\t// out\n        /* \"#utility.yul\":3488:3854   */\n    tag_46:\n        /* \"#utility.yul\":3630:3633   */\n      0x00\n        /* \"#utility.yul\":3651:3718   */\n      tag_80\n        /* \"#utility.yul\":3715:3717   */\n      0x21\n        /* \"#utility.yul\":3710:3713   */\n      dup4\n        /* \"#utility.yul\":3651:3718   */\n      tag_40\n      jump\t// in\n    tag_80:\n        /* \"#utility.yul\":3644:3718   */\n      swap2\n      pop\n        /* \"#utility.yul\":3727:3820   */\n      tag_81\n        /* \"#utility.yul\":3816:3819   */\n      dup3\n        /* \"#utility.yul\":3727:3820   */\n      tag_45\n      jump\t// in\n    tag_81:\n        /* \"#utility.yul\":3845:3847   */\n      0x40\n        /* \"#utility.yul\":3840:3843   */\n      dup3\n        /* \"#utility.yul\":3836:3848   */\n      add\n        /* \"#utility.yul\":3829:3848   */\n      swap1\n      pop\n        /* \"#utility.yul\":3488:3854   */\n      swap2\n      swap1\n      pop\n      jump\t// out\n        /* \"#utility.yul\":3860:4279   */\n    tag_20:\n        /* \"#utility.yul\":4026:4030   */\n      0x00\n        /* \"#utility.yul\":4064:4066   */\n      0x20\n        /* \"#utility.yul\":4053:4062   */\n      dup3\n        /* \"#utility.yul\":4049:4067   */\n      add\n        /* \"#utility.yul\":4041:4067   */\n      swap1\n      pop\n        /* \"#utility.yul\":4113:4122   */\n      dup2\n        /* \"#utility.yul\":4107:4111   */\n      dup2\n        /* \"#utility.yul\":4103:4123   */\n      sub\n        /* \"#utility.yul\":4099:4100   */\n      0x00\n        /* \"#utility.yul\":4088:4097   */\n      dup4\n        /* \"#utility.yul\":4084:4101   */\n      add\n        /* \"#utility.yul\":4077:4124   */\n      mstore\n        /* \"#utility.yul\":4141:4272   */\n      tag_83\n        /* \"#utility.yul\":4267:4271   */\n      dup2\n        /* \"#utility.yul\":4141:4272   */\n      tag_46\n      jump\t// in\n    tag_83:\n        /* \"#utility.yul\":4133:4272   */\n      swap1\n      pop\n        /* \"#utility.yul\":3860:4279   */\n      swap2\n      swap1\n      pop\n      jump\t// out\n        /* \"#utility.yul\":4285:4465   */\n    tag_47:\n        /* \"#utility.yul\":4333:4410   */\n      0x4e487b7100000000000000000000000000000000000000000000000000000000\n        /* \"#utility.yul\":4330:4331   */\n      0x00\n        /* \"#utility.yul\":4323:4411   */\n      mstore\n        /* \"#utility.yul\":4430:4434   */\n      0x12\n        /* \"#utility.yul\":4427:4428   */\n      0x04\n        /* \"#utility.yul\":4420:4435   */\n      mstore\n        /* \"#utility.yul\":4454:4458   */\n      0x24\n        /* \"#utility.yul\":4451:4452   */\n      0x00\n        /* \"#utility.yul\":4444:4459   */\n      revert\n        /* \"#utility.yul\":4471:4651   */\n    tag_48:\n        /* \"#utility.yul\":4519:4596   */\n      0x4e487b7100000000000000000000000000000000000000000000000000000000\n        /* \"#utility.yul\":4516:4517   */\n      0x00\n        /* \"#utility.yul\":4509:4597   */\n      mstore\n        /* \"#utility.yul\":4616:4620   */\n      0x11\n        /* \"#utility.yul\":4613:4614   */\n      0x04\n        /* \"#utility.yul\":4606:4621   */\n      mstore\n        /* \"#utility.yul\":4640:4644   */\n      0x24\n        /* \"#utility.yul\":4637:4638   */\n      0x00\n        /* \"#utility.yul\":4630:4645   */\n      revert\n        /* \"#utility.yul\":4657:4842   */\n    tag_22:\n        /* \"#utility.yul\":4697:4698   */\n      0x00\n        /* \"#utility.yul\":4714:4734   */\n      tag_87\n        /* \"#utility.yul\":4732:4733   */\n      dup3\n        /* \"#utility.yul\":4714:4734   */\n      tag_37\n      jump\t// in\n    tag_87:\n        /* \"#utility.yul\":4709:4734   */\n      swap2\n      pop\n        /* \"#utility.yul\":4748:4768   */\n      tag_88\n        /* \"#utility.yul\":4766:4767   */\n      dup4\n        /* \"#utility.yul\":4748:4768   */\n      tag_37\n      jump\t// in\n    tag_88:\n        /* \"#utility.yul\":4743:4768   */\n      swap3\n      pop\n        /* \"#utility.yul\":4787:4788   */\n      dup3\n        /* \"#utility.yul\":4777:4812   */\n      tag_89\n      jumpi\n        /* \"#utility.yul\":4792:4810   */\n      tag_90\n      tag_47\n      jump\t// in\n    tag_90:\n        /* \"#utility.yul\":4777:4812   */\n    tag_89:\n        /* \"#utility.yul\":4834:4835   */\n      dup3\n        /* \"#utility.yul\":4831:4832   */\n      dup3\n        /* \"#utility.yul\":4827:4836   */\n      div\n        /* \"#utility.yul\":4822:4836   */\n      swap1\n      pop\n        /* \"#utility.yul\":4657:4842   */\n      swap3\n      swap2\n      pop\n      pop\n      jump\t// out\n        /* \"#utility.yul\":4848:5258   */\n    tag_24:\n        /* \"#utility.yul\":4888:4895   */\n      0x00\n        /* \"#utility.yul\":4911:4931   */\n      tag_92\n        /* \"#utility.yul\":4929:4930   */\n      dup3\n        /* \"#utility.yul\":4911:4931   */\n      tag_37\n      jump\t// in\n    tag_92:\n        /* \"#utility.yul\":4906:4931   */\n      swap2\n      pop\n        /* \"#utility.yul\":4945:4965   */\n      tag_93\n        /* \"#utility.yul\":4963:4964   */\n      dup4\n        /* \"#utility.yul\":4945:4965   */\n      tag_37\n      jump\t// in\n    tag_93:\n        /* \"#utility.yul\":4940:4965   */\n      swap3\n      pop\n        /* \"#utility.yul\":5000:5001   */\n      dup3\n        /* \"#utility.yul\":4997:4998   */\n      dup3\n        /* \"#utility.yul\":4993:5002   */\n      mul\n        /* \"#utility.yul\":5022:5052   */\n      tag_94\n        /* \"#utility.yul\":5040:5051   */\n      dup2\n        /* \"#utility.yul\":5022:5052   */\n      tag_37\n      jump\t// in\n    tag_94:\n        /* \"#utility.yul\":5011:5052   */\n      swap2\n      pop\n        /* \"#utility.yul\":5201:5202   */\n      dup3\n        /* \"#utility.yul\":5192:5199   */\n      dup3\n        /* \"#utility.yul\":5188:5203   */\n      div\n        /* \"#utility.yul\":5185:5186   */\n      dup5\n        /* \"#utility.yul\":5182:5204   */\n      eq\n        /* \"#utility.yul\":5162:5163   */\n      dup4\n        /* \"#utility.yul\":5155:5164   */\n      iszero\n        /* \"#utility.yul\":5135:5218   */\n      or\n        /* \"#utility.yul\":5112:5251   */\n      tag_95\n      jumpi\n        /* \"#utility.yul\":5231:5249   */\n      tag_96\n      tag_48\n      jump\t// in\n    tag_96:\n        /* \"#utility.yul\":5112:5251   */\n    tag_95:\n        /* \"#utility.yul\":4896:5258   */\n      pop\n        /* \"#utility.yul\":4848:5258   */\n      swap3\n      swap2\n      pop\n      pop\n      jump\t// out\n        /* \"#utility.yul\":5264:5491   */\n    tag_49:\n        /* \"#utility.yul\":5404:5438   */\n      0x52657061796d656e7420616d6f756e74206d75737420626520657175616c2079\n        /* \"#utility.yul\":5400:5401   */\n      0x00\n        /* \"#utility.yul\":5392:5398   */\n      dup3\n        /* \"#utility.yul\":5388:5402   */\n      add\n        /* \"#utility.yul\":5381:5439   */\n      mstore\n        /* \"#utility.yul\":5473:5483   */\n      0x6f7572206c6f616e000000000000000000000000000000000000000000000000\n        /* \"#utility.yul\":5468:5470   */\n      0x20\n        /* \"#utility.yul\":5460:5466   */\n      dup3\n        /* \"#utility.yul\":5456:5471   */\n      add\n        /* \"#utility.yul\":5449:5484   */\n      mstore\n        /* \"#utility.yul\":5264:5491   */\n      pop\n      jump\t// out\n        /* \"#utility.yul\":5497:5863   */\n    tag_50:\n        /* \"#utility.yul\":5639:5642   */\n      0x00\n        /* \"#utility.yul\":5660:5727   */\n      tag_99\n        /* \"#utility.yul\":5724:5726   */\n      0x28\n        /* \"#utility.yul\":5719:5722   */\n      dup4\n        /* \"#utility.yul\":5660:5727   */\n      tag_40\n      jump\t// in\n    tag_99:\n        /* \"#utility.yul\":5653:5727   */\n      swap2\n      pop\n        /* \"#utility.yul\":5736:5829   */\n      tag_100\n        /* \"#utility.yul\":5825:5828   */\n      dup3\n        /* \"#utility.yul\":5736:5829   */\n      tag_49\n      jump\t// in\n    tag_100:\n        /* \"#utility.yul\":5854:5856   */\n      0x40\n        /* \"#utility.yul\":5849:5852   */\n      dup3\n        /* \"#utility.yul\":5845:5857   */\n      add\n        /* \"#utility.yul\":5838:5857   */\n      swap1\n      pop\n        /* \"#utility.yul\":5497:5863   */\n      swap2\n      swap1\n      pop\n      jump\t// out\n        /* \"#utility.yul\":5869:6288   */\n    tag_31:\n        /* \"#utility.yul\":6035:6039   */\n      0x00\n        /* \"#utility.yul\":6073:6075   */\n      0x20\n        /* \"#utility.yul\":6062:6071   */\n      dup3\n        /* \"#utility.yul\":6058:6076   */\n      add\n        /* \"#utility.yul\":6050:6076   */\n      swap1\n      pop\n        /* \"#utility.yul\":6122:6131   */\n      dup2\n        /* \"#utility.yul\":6116:6120   */\n      dup2\n        /* \"#utility.yul\":6112:6132   */\n      sub\n        /* \"#utility.yul\":6108:6109   */\n      0x00\n        /* \"#utility.yul\":6097:6106   */\n      dup4\n        /* \"#utility.yul\":6093:6110   */\n      add\n        /* \"#utility.yul\":6086:6133   */\n      mstore\n        /* \"#utility.yul\":6150:6281   */\n      tag_102\n        /* \"#utility.yul\":6276:6280   */\n      dup2\n        /* \"#utility.yul\":6150:6281   */\n      tag_50\n      jump\t// in\n    tag_102:\n        /* \"#utility.yul\":6142:6281   */\n      swap1\n      pop\n        /* \"#utility.yul\":5869:6288   */\n      swap2\n      swap1\n      pop\n      jump\t// out\n\n    auxdata: 0xa26469706673582212208676d53fa8a24dcefc9965ed1716f8a5edf155ada8c2a9e201b2c2f867b93b9264736f6c63430008160033\n}\n",
				"bytecode": {
					"linkReferences": {},
					"object": "608060405234801561000f575f80fd5b506109058061001d5f395ff3fe608060405260043610610028575f3560e01c8063365a53061461002c578063f966ade714610048575b5f80fd5b61004660048036038101906100419190610591565b610052565b005b61005061037a565b005b5f15155f803373ffffffffffffffffffffffffffffffffffffffff1673ffffffffffffffffffffffffffffffffffffffff1681526020019081526020015f206002015f9054906101000a900460ff161515146100e3576040517f08c379a00000000000000000000000000000000000000000000000000000000081526004016100da9061063c565b60405180910390fd5b609681101580156100f6575061012c8111155b610135576040517f08c379a000000000000000000000000000000000000000000000000000000000815260040161012c906106ca565b60405180910390fd5b67016345785d8a0000341015610180576040517f08c379a000000000000000000000000000000000000000000000000000000000815260040161017790610758565b60405180910390fd5b60405180606001604052803481526020018261271061019f91906107d0565b8152602001600115158152505f803373ffffffffffffffffffffffffffffffffffffffff1673ffffffffffffffffffffffffffffffffffffffff1681526020019081526020015f205f820151815f0155602082015181600101556040820151816002015f6101000a81548160ff0219169083151502179055509050505f60645f803373ffffffffffffffffffffffffffffffffffffffff1673ffffffffffffffffffffffffffffffffffffffff1681526020019081526020015f20600101545f803373ffffffffffffffffffffffffffffffffffffffff1673ffffffffffffffffffffffffffffffffffffffff1681526020019081526020015f205f01546102a79190610800565b6102b191906107d0565b90508060015f3373ffffffffffffffffffffffffffffffffffffffff1673ffffffffffffffffffffffffffffffffffffffff1681526020019081526020015f20819055503373ffffffffffffffffffffffffffffffffffffffff166108fc60015f3373ffffffffffffffffffffffffffffffffffffffff1673ffffffffffffffffffffffffffffffffffffffff1681526020019081526020015f205490811502906040515f60405180830381858888f19350505050158015610375573d5f803e3d5ffd5b505050565b3460015f3373ffffffffffffffffffffffffffffffffffffffff1673ffffffffffffffffffffffffffffffffffffffff1681526020019081526020015f2054146103f9576040517f08c379a00000000000000000000000000000000000000000000000000000000081526004016103f0906108b1565b60405180910390fd5b3373ffffffffffffffffffffffffffffffffffffffff166108fc5f803373ffffffffffffffffffffffffffffffffffffffff1673ffffffffffffffffffffffffffffffffffffffff1681526020019081526020015f205f015490811502906040515f60405180830381858888f1935050505015801561047a573d5f803e3d5ffd5b505f805f3373ffffffffffffffffffffffffffffffffffffffff1673ffffffffffffffffffffffffffffffffffffffff1681526020019081526020015f205f01819055505f805f3373ffffffffffffffffffffffffffffffffffffffff1673ffffffffffffffffffffffffffffffffffffffff1681526020019081526020015f20600101819055505f805f3373ffffffffffffffffffffffffffffffffffffffff1673ffffffffffffffffffffffffffffffffffffffff1681526020019081526020015f206002015f6101000a81548160ff021916908315150217905550565b5f80fd5b5f819050919050565b6105708161055e565b811461057a575f80fd5b50565b5f8135905061058b81610567565b92915050565b5f602082840312156105a6576105a561055a565b5b5f6105b38482850161057d565b91505092915050565b5f82825260208201905092915050565b7f796f75206d7573742062652072657475726e206173736574207468617420626f5f8201527f72726f7720666972737400000000000000000000000000000000000000000000602082015250565b5f610626602a836105bc565b9150610631826105cc565b604082019050919050565b5f6020820190508181035f8301526106538161061a565b9050919050565b7f7265717569726520636f6c6c61746572616c206265747765656e2031353020615f8201527f6e6420333030252e000000000000000000000000000000000000000000000000602082015250565b5f6106b46028836105bc565b91506106bf8261065a565b604082019050919050565b5f6020820190508181035f8301526106e1816106a8565b9050919050565b7f4574686572206d7573742067726561746572207468616e20657175616c20302e5f8201527f3100000000000000000000000000000000000000000000000000000000000000602082015250565b5f6107426021836105bc565b915061074d826106e8565b604082019050919050565b5f6020820190508181035f83015261076f81610736565b9050919050565b7f4e487b71000000000000000000000000000000000000000000000000000000005f52601260045260245ffd5b7f4e487b71000000000000000000000000000000000000000000000000000000005f52601160045260245ffd5b5f6107da8261055e565b91506107e58361055e565b9250826107f5576107f4610776565b5b828204905092915050565b5f61080a8261055e565b91506108158361055e565b92508282026108238161055e565b9150828204841483151761083a576108396107a3565b5b5092915050565b7f52657061796d656e7420616d6f756e74206d75737420626520657175616c20795f8201527f6f7572206c6f616e000000000000000000000000000000000000000000000000602082015250565b5f61089b6028836105bc565b91506108a682610841565b604082019050919050565b5f6020820190508181035f8301526108c88161088f565b905091905056fea26469706673582212208676d53fa8a24dcefc9965ed1716f8a5edf155ada8c2a9e201b2c2f867b93b9264736f6c63430008160033",
					"opcodes": "PUSH1 0x80 PUSH1 0x40 MSTORE CALLVALUE DUP1 ISZERO PUSH2 0xF JUMPI PUSH0 DUP1 REVERT JUMPDEST POP PUSH2 0x905 DUP1 PUSH2 0x1D PUSH0 CODECOPY PUSH0 RETURN INVALID PUSH1 0x80 PUSH1 0x40 MSTORE PUSH1 0x4 CALLDATASIZE LT PUSH2 0x28 JUMPI PUSH0 CALLDATALOAD PUSH1 0xE0 SHR DUP1 PUSH4 0x365A5306 EQ PUSH2 0x2C JUMPI DUP1 PUSH4 0xF966ADE7 EQ PUSH2 0x48 JUMPI JUMPDEST PUSH0 DUP1 REVERT JUMPDEST PUSH2 0x46 PUSH1 0x4 DUP1 CALLDATASIZE SUB DUP2 ADD SWAP1 PUSH2 0x41 SWAP2 SWAP1 PUSH2 0x591 JUMP JUMPDEST PUSH2 0x52 JUMP JUMPDEST STOP JUMPDEST PUSH2 0x50 PUSH2 0x37A JUMP JUMPDEST STOP JUMPDEST PUSH0 ISZERO ISZERO PUSH0 DUP1 CALLER PUSH20 0xFFFFFFFFFFFFFFFFFFFFFFFFFFFFFFFFFFFFFFFF AND PUSH20 0xFFFFFFFFFFFFFFFFFFFFFFFFFFFFFFFFFFFFFFFF AND DUP2 MSTORE PUSH1 0x20 ADD SWAP1 DUP2 MSTORE PUSH1 0x20 ADD PUSH0 KECCAK256 PUSH1 0x2 ADD PUSH0 SWAP1 SLOAD SWAP1 PUSH2 0x100 EXP SWAP1 DIV PUSH1 0xFF AND ISZERO ISZERO EQ PUSH2 0xE3 JUMPI PUSH1 0x40 MLOAD PUSH32 0x8C379A000000000000000000000000000000000000000000000000000000000 DUP2 MSTORE PUSH1 0x4 ADD PUSH2 0xDA SWAP1 PUSH2 0x63C JUMP JUMPDEST PUSH1 0x40 MLOAD DUP1 SWAP2 SUB SWAP1 REVERT JUMPDEST PUSH1 0x96 DUP2 LT ISZERO DUP1 ISZERO PUSH2 0xF6 JUMPI POP PUSH2 0x12C DUP2 GT ISZERO JUMPDEST PUSH2 0x135 JUMPI PUSH1 0x40 MLOAD PUSH32 0x8C379A000000000000000000000000000000000000000000000000000000000 DUP2 MSTORE PUSH1 0x4 ADD PUSH2 0x12C SWAP1 PUSH2 0x6CA JUMP JUMPDEST PUSH1 0x40 MLOAD DUP1 SWAP2 SUB SWAP1 REVERT JUMPDEST PUSH8 0x16345785D8A0000 CALLVALUE LT ISZERO PUSH2 0x180 JUMPI PUSH1 0x40 MLOAD PUSH32 0x8C379A000000000000000000000000000000000000000000000000000000000 DUP2 MSTORE PUSH1 0x4 ADD PUSH2 0x177 SWAP1 PUSH2 0x758 JUMP JUMPDEST PUSH1 0x40 MLOAD DUP1 SWAP2 SUB SWAP1 REVERT JUMPDEST PUSH1 0x40 MLOAD DUP1 PUSH1 0x60 ADD PUSH1 0x40 MSTORE DUP1 CALLVALUE DUP2 MSTORE PUSH1 0x20 ADD DUP3 PUSH2 0x2710 PUSH2 0x19F SWAP2 SWAP1 PUSH2 0x7D0 JUMP JUMPDEST DUP2 MSTORE PUSH1 0x20 ADD PUSH1 0x1 ISZERO ISZERO DUP2 MSTORE POP PUSH0 DUP1 CALLER PUSH20 0xFFFFFFFFFFFFFFFFFFFFFFFFFFFFFFFFFFFFFFFF AND PUSH20 0xFFFFFFFFFFFFFFFFFFFFFFFFFFFFFFFFFFFFFFFF AND DUP2 MSTORE PUSH1 0x20 ADD SWAP1 DUP2 MSTORE PUSH1 0x20 ADD PUSH0 KECCAK256 PUSH0 DUP3 ADD MLOAD DUP2 PUSH0 ADD SSTORE PUSH1 0x20 DUP3 ADD MLOAD DUP2 PUSH1 0x1 ADD SSTORE PUSH1 0x40 DUP3 ADD MLOAD DUP2 PUSH1 0x2 ADD PUSH0 PUSH2 0x100 EXP DUP2 SLOAD DUP2 PUSH1 0xFF MUL NOT AND SWAP1 DUP4 ISZERO ISZERO MUL OR SWAP1 SSTORE POP SWAP1 POP POP PUSH0 PUSH1 0x64 PUSH0 DUP1 CALLER PUSH20 0xFFFFFFFFFFFFFFFFFFFFFFFFFFFFFFFFFFFFFFFF AND PUSH20 0xFFFFFFFFFFFFFFFFFFFFFFFFFFFFFFFFFFFFFFFF AND DUP2 MSTORE PUSH1 0x20 ADD SWAP1 DUP2 MSTORE PUSH1 0x20 ADD PUSH0 KECCAK256 PUSH1 0x1 ADD SLOAD PUSH0 DUP1 CALLER PUSH20 0xFFFFFFFFFFFFFFFFFFFFFFFFFFFFFFFFFFFFFFFF AND PUSH20 0xFFFFFFFFFFFFFFFFFFFFFFFFFFFFFFFFFFFFFFFF AND DUP2 MSTORE PUSH1 0x20 ADD SWAP1 DUP2 MSTORE PUSH1 0x20 ADD PUSH0 KECCAK256 PUSH0 ADD SLOAD PUSH2 0x2A7 SWAP2 SWAP1 PUSH2 0x800 JUMP JUMPDEST PUSH2 0x2B1 SWAP2 SWAP1 PUSH2 0x7D0 JUMP JUMPDEST SWAP1 POP DUP1 PUSH1 0x1 PUSH0 CALLER PUSH20 0xFFFFFFFFFFFFFFFFFFFFFFFFFFFFFFFFFFFFFFFF AND PUSH20 0xFFFFFFFFFFFFFFFFFFFFFFFFFFFFFFFFFFFFFFFF AND DUP2 MSTORE PUSH1 0x20 ADD SWAP1 DUP2 MSTORE PUSH1 0x20 ADD PUSH0 KECCAK256 DUP2 SWAP1 SSTORE POP CALLER PUSH20 0xFFFFFFFFFFFFFFFFFFFFFFFFFFFFFFFFFFFFFFFF AND PUSH2 0x8FC PUSH1 0x1 PUSH0 CALLER PUSH20 0xFFFFFFFFFFFFFFFFFFFFFFFFFFFFFFFFFFFFFFFF AND PUSH20 0xFFFFFFFFFFFFFFFFFFFFFFFFFFFFFFFFFFFFFFFF AND DUP2 MSTORE PUSH1 0x20 ADD SWAP1 DUP2 MSTORE PUSH1 0x20 ADD PUSH0 KECCAK256 SLOAD SWAP1 DUP2 ISZERO MUL SWAP1 PUSH1 0x40 MLOAD PUSH0 PUSH1 0x40 MLOAD DUP1 DUP4 SUB DUP2 DUP6 DUP9 DUP9 CALL SWAP4 POP POP POP POP ISZERO DUP1 ISZERO PUSH2 0x375 JUMPI RETURNDATASIZE PUSH0 DUP1 RETURNDATACOPY RETURNDATASIZE PUSH0 REVERT JUMPDEST POP POP POP JUMP JUMPDEST CALLVALUE PUSH1 0x1 PUSH0 CALLER PUSH20 0xFFFFFFFFFFFFFFFFFFFFFFFFFFFFFFFFFFFFFFFF AND PUSH20 0xFFFFFFFFFFFFFFFFFFFFFFFFFFFFFFFFFFFFFFFF AND DUP2 MSTORE PUSH1 0x20 ADD SWAP1 DUP2 MSTORE PUSH1 0x20 ADD PUSH0 KECCAK256 SLOAD EQ PUSH2 0x3F9 JUMPI PUSH1 0x40 MLOAD PUSH32 0x8C379A000000000000000000000000000000000000000000000000000000000 DUP2 MSTORE PUSH1 0x4 ADD PUSH2 0x3F0 SWAP1 PUSH2 0x8B1 JUMP JUMPDEST PUSH1 0x40 MLOAD DUP1 SWAP2 SUB SWAP1 REVERT JUMPDEST CALLER PUSH20 0xFFFFFFFFFFFFFFFFFFFFFFFFFFFFFFFFFFFFFFFF AND PUSH2 0x8FC PUSH0 DUP1 CALLER PUSH20 0xFFFFFFFFFFFFFFFFFFFFFFFFFFFFFFFFFFFFFFFF AND PUSH20 0xFFFFFFFFFFFFFFFFFFFFFFFFFFFFFFFFFFFFFFFF AND DUP2 MSTORE PUSH1 0x20 ADD SWAP1 DUP2 MSTORE PUSH1 0x20 ADD PUSH0 KECCAK256 PUSH0 ADD SLOAD SWAP1 DUP2 ISZERO MUL SWAP1 PUSH1 0x40 MLOAD PUSH0 PUSH1 0x40 MLOAD DUP1 DUP4 SUB DUP2 DUP6 DUP9 DUP9 CALL SWAP4 POP POP POP POP ISZERO DUP1 ISZERO PUSH2 0x47A JUMPI RETURNDATASIZE PUSH0 DUP1 RETURNDATACOPY RETURNDATASIZE PUSH0 REVERT JUMPDEST POP PUSH0 DUP1 PUSH0 CALLER PUSH20 0xFFFFFFFFFFFFFFFFFFFFFFFFFFFFFFFFFFFFFFFF AND PUSH20 0xFFFFFFFFFFFFFFFFFFFFFFFFFFFFFFFFFFFFFFFF AND DUP2 MSTORE PUSH1 0x20 ADD SWAP1 DUP2 MSTORE PUSH1 0x20 ADD PUSH0 KECCAK256 PUSH0 ADD DUP2 SWAP1 SSTORE POP PUSH0 DUP1 PUSH0 CALLER PUSH20 0xFFFFFFFFFFFFFFFFFFFFFFFFFFFFFFFFFFFFFFFF AND PUSH20 0xFFFFFFFFFFFFFFFFFFFFFFFFFFFFFFFFFFFFFFFF AND DUP2 MSTORE PUSH1 0x20 ADD SWAP1 DUP2 MSTORE PUSH1 0x20 ADD PUSH0 KECCAK256 PUSH1 0x1 ADD DUP2 SWAP1 SSTORE POP PUSH0 DUP1 PUSH0 CALLER PUSH20 0xFFFFFFFFFFFFFFFFFFFFFFFFFFFFFFFFFFFFFFFF AND PUSH20 0xFFFFFFFFFFFFFFFFFFFFFFFFFFFFFFFFFFFFFFFF AND DUP2 MSTORE PUSH1 0x20 ADD SWAP1 DUP2 MSTORE PUSH1 0x20 ADD PUSH0 KECCAK256 PUSH1 0x2 ADD PUSH0 PUSH2 0x100 EXP DUP2 SLOAD DUP2 PUSH1 0xFF MUL NOT AND SWAP1 DUP4 ISZERO ISZERO MUL OR SWAP1 SSTORE POP JUMP JUMPDEST PUSH0 DUP1 REVERT JUMPDEST PUSH0 DUP2 SWAP1 POP SWAP2 SWAP1 POP JUMP JUMPDEST PUSH2 0x570 DUP2 PUSH2 0x55E JUMP JUMPDEST DUP2 EQ PUSH2 0x57A JUMPI PUSH0 DUP1 REVERT JUMPDEST POP JUMP JUMPDEST PUSH0 DUP2 CALLDATALOAD SWAP1 POP PUSH2 0x58B DUP2 PUSH2 0x567 JUMP JUMPDEST SWAP3 SWAP2 POP POP JUMP JUMPDEST PUSH0 PUSH1 0x20 DUP3 DUP5 SUB SLT ISZERO PUSH2 0x5A6 JUMPI PUSH2 0x5A5 PUSH2 0x55A JUMP JUMPDEST JUMPDEST PUSH0 PUSH2 0x5B3 DUP5 DUP3 DUP6 ADD PUSH2 0x57D JUMP JUMPDEST SWAP2 POP POP SWAP3 SWAP2 POP POP JUMP JUMPDEST PUSH0 DUP3 DUP3 MSTORE PUSH1 0x20 DUP3 ADD SWAP1 POP SWAP3 SWAP2 POP POP JUMP JUMPDEST PUSH32 0x796F75206D7573742062652072657475726E206173736574207468617420626F PUSH0 DUP3 ADD MSTORE PUSH32 0x72726F7720666972737400000000000000000000000000000000000000000000 PUSH1 0x20 DUP3 ADD MSTORE POP JUMP JUMPDEST PUSH0 PUSH2 0x626 PUSH1 0x2A DUP4 PUSH2 0x5BC JUMP JUMPDEST SWAP2 POP PUSH2 0x631 DUP3 PUSH2 0x5CC JUMP JUMPDEST PUSH1 0x40 DUP3 ADD SWAP1 POP SWAP2 SWAP1 POP JUMP JUMPDEST PUSH0 PUSH1 0x20 DUP3 ADD SWAP1 POP DUP2 DUP2 SUB PUSH0 DUP4 ADD MSTORE PUSH2 0x653 DUP2 PUSH2 0x61A JUMP JUMPDEST SWAP1 POP SWAP2 SWAP1 POP JUMP JUMPDEST PUSH32 0x7265717569726520636F6C6C61746572616C206265747765656E203135302061 PUSH0 DUP3 ADD MSTORE PUSH32 0x6E6420333030252E000000000000000000000000000000000000000000000000 PUSH1 0x20 DUP3 ADD MSTORE POP JUMP JUMPDEST PUSH0 PUSH2 0x6B4 PUSH1 0x28 DUP4 PUSH2 0x5BC JUMP JUMPDEST SWAP2 POP PUSH2 0x6BF DUP3 PUSH2 0x65A JUMP JUMPDEST PUSH1 0x40 DUP3 ADD SWAP1 POP SWAP2 SWAP1 POP JUMP JUMPDEST PUSH0 PUSH1 0x20 DUP3 ADD SWAP1 POP DUP2 DUP2 SUB PUSH0 DUP4 ADD MSTORE PUSH2 0x6E1 DUP2 PUSH2 0x6A8 JUMP JUMPDEST SWAP1 POP SWAP2 SWAP1 POP JUMP JUMPDEST PUSH32 0x4574686572206D7573742067726561746572207468616E20657175616C20302E PUSH0 DUP3 ADD MSTORE PUSH32 0x3100000000000000000000000000000000000000000000000000000000000000 PUSH1 0x20 DUP3 ADD MSTORE POP JUMP JUMPDEST PUSH0 PUSH2 0x742 PUSH1 0x21 DUP4 PUSH2 0x5BC JUMP JUMPDEST SWAP2 POP PUSH2 0x74D DUP3 PUSH2 0x6E8 JUMP JUMPDEST PUSH1 0x40 DUP3 ADD SWAP1 POP SWAP2 SWAP1 POP JUMP JUMPDEST PUSH0 PUSH1 0x20 DUP3 ADD SWAP1 POP DUP2 DUP2 SUB PUSH0 DUP4 ADD MSTORE PUSH2 0x76F DUP2 PUSH2 0x736 JUMP JUMPDEST SWAP1 POP SWAP2 SWAP1 POP JUMP JUMPDEST PUSH32 0x4E487B7100000000000000000000000000000000000000000000000000000000 PUSH0 MSTORE PUSH1 0x12 PUSH1 0x4 MSTORE PUSH1 0x24 PUSH0 REVERT JUMPDEST PUSH32 0x4E487B7100000000000000000000000000000000000000000000000000000000 PUSH0 MSTORE PUSH1 0x11 PUSH1 0x4 MSTORE PUSH1 0x24 PUSH0 REVERT JUMPDEST PUSH0 PUSH2 0x7DA DUP3 PUSH2 0x55E JUMP JUMPDEST SWAP2 POP PUSH2 0x7E5 DUP4 PUSH2 0x55E JUMP JUMPDEST SWAP3 POP DUP3 PUSH2 0x7F5 JUMPI PUSH2 0x7F4 PUSH2 0x776 JUMP JUMPDEST JUMPDEST DUP3 DUP3 DIV SWAP1 POP SWAP3 SWAP2 POP POP JUMP JUMPDEST PUSH0 PUSH2 0x80A DUP3 PUSH2 0x55E JUMP JUMPDEST SWAP2 POP PUSH2 0x815 DUP4 PUSH2 0x55E JUMP JUMPDEST SWAP3 POP DUP3 DUP3 MUL PUSH2 0x823 DUP2 PUSH2 0x55E JUMP JUMPDEST SWAP2 POP DUP3 DUP3 DIV DUP5 EQ DUP4 ISZERO OR PUSH2 0x83A JUMPI PUSH2 0x839 PUSH2 0x7A3 JUMP JUMPDEST JUMPDEST POP SWAP3 SWAP2 POP POP JUMP JUMPDEST PUSH32 0x52657061796D656E7420616D6F756E74206D75737420626520657175616C2079 PUSH0 DUP3 ADD MSTORE PUSH32 0x6F7572206C6F616E000000000000000000000000000000000000000000000000 PUSH1 0x20 DUP3 ADD MSTORE POP JUMP JUMPDEST PUSH0 PUSH2 0x89B PUSH1 0x28 DUP4 PUSH2 0x5BC JUMP JUMPDEST SWAP2 POP PUSH2 0x8A6 DUP3 PUSH2 0x841 JUMP JUMPDEST PUSH1 0x40 DUP3 ADD SWAP1 POP SWAP2 SWAP1 POP JUMP JUMPDEST PUSH0 PUSH1 0x20 DUP3 ADD SWAP1 POP DUP2 DUP2 SUB PUSH0 DUP4 ADD MSTORE PUSH2 0x8C8 DUP2 PUSH2 0x88F JUMP JUMPDEST SWAP1 POP SWAP2 SWAP1 POP JUMP INVALID LOG2 PUSH5 0x6970667358 0x22 SLT KECCAK256 DUP7 PUSH23 0xD53FA8A24DCEFC9965ED1716F8A5EDF155ADA8C2A9E201 0xB2 0xC2 0xF8 PUSH8 0xB93B9264736F6C63 NUMBER STOP ADDMOD AND STOP CALLER "
				},
				"gasEstimates": {
					"creation": {
						"codeDepositCost": "461800",
						"executionCost": "497",
						"totalCost": "462297"
					},
					"external": {
						"loan(uint256)": "infinite",
						"repayLoan()": "infinite"
					}
				},
				"methodIdentifiers": {
					"loan(uint256)": "365a5306",
					"repayLoan()": "f966ade7"
				}
			},
			"storageLayout": {
				"storage": [
					{
						"astId": 13,
						"contract": "contracts/Loan.sol:Loan",
						"label": "_collateralAsset",
						"offset": 0,
						"slot": "0",
						"type": "t_mapping(t_address,t_struct(collateral)8_storage)"
					},
					{
						"astId": 17,
						"contract": "contracts/Loan.sol:Loan",
						"label": "_loan",
						"offset": 0,
						"slot": "1",
						"type": "t_mapping(t_address,t_uint256)"
					}
				],
				"types": {
					"t_address": {
						"encoding": "inplace",
						"label": "address",
						"numberOfBytes": "20"
					},
					"t_bool": {
						"encoding": "inplace",
						"label": "bool",
						"numberOfBytes": "1"
					},
					"t_mapping(t_address,t_struct(collateral)8_storage)": {
						"encoding": "mapping",
						"key": "t_address",
						"label": "mapping(address => struct collateral)",
						"numberOfBytes": "32",
						"value": "t_struct(collateral)8_storage"
					},
					"t_mapping(t_address,t_uint256)": {
						"encoding": "mapping",
						"key": "t_address",
						"label": "mapping(address => uint256)",
						"numberOfBytes": "32",
						"value": "t_uint256"
					},
					"t_struct(collateral)8_storage": {
						"encoding": "inplace",
						"label": "struct collateral",
						"members": [
							{
								"astId": 3,
								"contract": "contracts/Loan.sol:Loan",
								"label": "amount",
								"offset": 0,
								"slot": "0",
								"type": "t_uint256"
							},
							{
								"astId": 5,
								"contract": "contracts/Loan.sol:Loan",
								"label": "ratio",
								"offset": 0,
								"slot": "1",
								"type": "t_uint256"
							},
							{
								"astId": 7,
								"contract": "contracts/Loan.sol:Loan",
								"label": "cannotLoan",
								"offset": 0,
								"slot": "2",
								"type": "t_bool"
							}
						],
						"numberOfBytes": "96"
					},
					"t_uint256": {
						"encoding": "inplace",
						"label": "uint256",
						"numberOfBytes": "32"
					}
				}
			},
			"userdoc": {
				"kind": "user",
				"methods": {},
				"version": 1
			}
		}
	}
}